:10000000F8FF00201104000037240000372400000E
:100010003724000037240000372400003724000074
:100020003724000037240000372400003724000064
:100030003724000037240000372400003724000054
:100040003724000037240000372400003724000044
:10040000FFFFFFFFFFFFFFFFFFFFFFFFFEFFFFFFFD
:1004100062B607F097FAFEE710B500200400E4B2D8
:10042000082C08DA0022012114F14000C0B201F0CA
:1004300009FE641CF3E700220121492001F002FEBD
:10044000012201214A2001F0FDFD012201214B2062
:1004500001F0F8FD002201214C2001F0F3FD002203
:1004600001214D2001F0EEFD4FF4A071492001F073
:10047000E3FE4FF4A0714A2001F0DEFE4FF4A071BC
:100480004B2001F0D9FE4FF4A0714C2001F0D4FEB6
:100490000020DFF8241D08600120DFF81C1D086023
:1004A0004FF4FA7001F020FF0120DFF8101D086002
:1004B0000020DFF80C1D08600020DFF8081D086030
:1004C0001120DFF8041D08700020DFF8001D08600F
:1004D0000120DFF8F81C08600120DFF8E81C086044
:1004E000782001F001FF0120DFF8D01C0860002017
:1004F000DFF8CC1C08600020DFF8C81C0860B120C1
:10050000DFF8C41C08700020DFF8C01C0860012060
:10051000DFF8B81C08600120DFF8A81C0860012083
:10052000DFF8981C08600120DFF8941C08600020A8
:10053000DFF8901C08600520DFF88C1C0870002094
:10054000DFF8881C08600120DFF8801C08600120AB
:10055000DFF8701C08600120DFF8601C08600120D3
:10056000DFF85C1C08600020DFF8581C08603A20A7
:10057000DFF8541C08700020DFF8501C08600120D0
:10058000DFF8481C08600120DFF8381C08600120F3
:10059000DFF8281C08600120DFF8241C0860002018
:1005A000DFF8201C08603A20DFF81C1C08700020CF
:1005B000DFF8181C08600120DFF8101C086001201B
:1005C000DFF8001C08600120DFF8F01B0860002045
:1005D000DFF8EC1B08600020DFF8E81B0860B220A1
:1005E000DFF8E41B08700020DFF8E01B0860012042
:1005F000DFF8D81B08600120DFF8C81B0860012065
:10060000DFF8B81B08600120DFF8B41B0860002089
:10061000DFF8B01B08600520DFF8AC1B0870002075
:10062000DFF8A81B08600120DFF8A01B086001208C
:10063000DFF8901B08600120DFF8801B08600120B4
:10064000DFF87C1B08600020DFF8781B08603A2088
:10065000DFF8741B08700020DFF8701B08600120B1
:10066000DFF8681B08600120DFF8581B08600120D4
:10067000DFF8481B08600120DFF8441B08600020F9
:10068000DFF8401B08603A20DFF83C1B08700020B0
:10069000DFF8381B08600120DFF8301B08600120FC
:1006A000DFF8201B08600120DFF8101B0860002025
:1006B000DFF80C1B08600020DFF8081B0860B3207F
:1006C000DFF8041B08700020DFF8001B0860012021
:1006D000DFF8F81A08600120DFF8E81A0860012046
:1006E000DFF8D81A08600120DFF8D41A086000206B
:1006F000DFF8D01A08600520DFF8CC1A0870002057
:10070000DFF8C81A08600120DFF8C01A086001206D
:10071000DFF8B01A08600120DFF8A01A0860012095
:10072000DFF89C1A08600020DFF8981A08603A2069
:10073000DFF8941A08700020DFF8901A0860012092
:10074000DFF8881A08600120DFF8781A08600120B5
:10075000DFF8681A08600120DFF8641A08600020DA
:10076000DFF8601A08603A20DFF85C1A0870002091
:10077000DFF8581A08600120DFF8501A08600120DD
:10078000DFF8401A08600120DFF8301A0860012005
:10079000DFF82C1A08600020DFF8281A086005200E
:1007A000DFF8241A08700020DFF8201A0860012002
:1007B000DFF8181A08600120DFF8081A0860012025
:1007C000DFF8F81908600120DFF8F419086000204C
:1007D000DFF8F01908603A20DFF8EC190870002003
:1007E000DFF8E81908600120DFF8E019086001204F
:1007F000DFF8D01908600120DFF8C0190860012077
:10080000DFF8BC1908600020DFF8B81908603A204A
:10081000DFF8B41908700020DFF8B0190860012073
:10082000DFF8A81908600120DFF898190860012096
:10083000DFF8881908600020DFF8841908600020BC
:10084000DFF880190860B420DFF87C1908700020F8
:10085000DFF8781908600120DFF8701908600120BE
:10086000DFF8601908600120DFF8501908600120E6
:10087000DFF84C1908600020DFF8481908600720ED
:10088000DFF8441908700020DFF8401908600120E3
:10089000DFF8381908600120DFF828190860012006
:1008A000DFF8181908600020DFF81419086000202C
:1008B000DFF810190860C020DFF80C19087000205C
:1008C000DFF8081908600120DFF80019086001202E
:1008D000DFF8F01808600120DFF8E0180860012058
:1008E000DFF8DC1808600020DFF8D818086028203E
:1008F000DFF8D41808700020DFF8D0180860012055
:10090000DFF8C81808600120DFF8B8180860012077
:10091000DFF8A81808600120DFF8A418086000209C
:10092000DFF8A01808600820DFF89C180870002085
:10093000DFF8981808600120DFF89018086001209F
:10094000DFF8801808600120DFF8701808600120C7
:10095000DFF86C1808600020DFF868180860842051
:10096000DFF8641808700020DFF8601808600120C4
:10097000DFF8581808600120DFF8481808600120E7
:10098000DFF8381808600020DFF83418086000200D
:10099000DFF830180860C120DFF82C18087000203C
:1009A000DFF8281808600120DFF82018086001200F
:1009B000DFF8101808600120DFF800180860012037
:1009C000DFF8FC1708600020DFF8F8170860C02087
:1009D000DFF8F41708700020DFF8F0170860012036
:1009E000DFF8E81708600120DFF8D8170860012059
:1009F000DFF8C81708600020DFF8C417086000207F
:100A0000DFF8C0170860C220DFF8BC1708700020AC
:100A1000DFF8B81708600120DFF8B0170860012080
:100A2000DFF8A01708600120DFF8901708600120A8
:100A3000DFF88C1708600020DFF8881708600C20AA
:100A4000DFF8841708700020DFF8801708600120A5
:100A5000DFF8781708600120DFF8681708600120C8
:100A6000DFF8581708600120DFF8541708600020ED
:100A7000DFF8501708600020DFF84C1708700020DE
:100A8000DFF8481708600120DFF8401708600120F0
:100A9000DFF8301708600120DFF820170860002019
:100AA000DFF81C1708600020DFF818170860C32063
:100AB000DFF8141708700020DFF810170860012015
:100AC000DFF8081708600120DFF8F8160860012039
:100AD000DFF8E81608600120DFF8E416086000205F
:100AE000DFF8E01608608C20DFF8DC1608700020C4
:100AF000DFF8D81608600120DFF8D0160860012062
:100B0000DFF8C01608600120DFF8B0160860012089
:100B1000DFF8AC1608600020DFF8A81608602A206D
:100B2000DFF8A41608700020DFF8A0160860012086
:100B3000DFF8981608600120DFF8881608600120A9
:100B4000DFF8781608600020DFF8741608600020CF
:100B5000DFF870160860C420DFF86C1608700020FB
:100B6000DFF8681608600120DFF8601608600120D1
:100B7000DFF8501608600120DFF8401608600120F9
:100B8000DFF83C1608600020DFF8381608608A207D
:100B9000DFF8341608700020DFF8301608600120F6
:100BA000DFF8281608600120DFF818160860012019
:100BB000DFF8081608600120DFF80416086000203E
:100BC000DFF800160860EE20DFF8FC150870002042
:100BD000DFF8F81508600120DFF8F0150860012043
:100BE000DFF8E01508600120DFF8D015086000206C
:100BF000DFF8CC1508600020DFF8C8150860C520B4
:100C0000DFF8C41508700020DFF8C0150860012067
:100C1000DFF8B81508600120DFF8A815086001208A
:100C2000DFF8981508600120DFF8941508600020AF
:100C3000DFF8901508600C20DFF88C150870002094
:100C4000DFF8881508600120DFF8801508600120B2
:100C5000DFF8701508600120DFF8601508600020DB
:100C6000DFF85C1508600020DFF858150860E02008
:100C7000DFF8541508700020DFF8501508600120D7
:100C8000DFF8481508600120DFF8381508600120FA
:100C9000DFF8281508600120DFF82415086000201F
:100CA000DFF8201508600520DFF81C15087000200B
:100CB000DFF8181508600120DFF810150860012022
:100CC000DFF8001508600120DFF8F014086001204B
:100CD000DFF8EC1408600020DFF8E81408601A2040
:100CE000DFF8E41408700020DFF8E0140860012049
:100CF000DFF8D81408600120DFF8C814086001206C
:100D0000DFF8B81408600120DFF8B4140860002090
:100D1000DFF8B01408600C20DFF8AC140870002075
:100D2000DFF8A81408600120DFF8A0140860012093
:100D3000DFF8901408600120DFF8801408600120BB
:100D4000DFF87C1408600020DFF8781408600E20BB
:100D5000DFF8741408700020DFF8701408600120B8
:100D6000DFF8681408600120DFF8581408600120DB
:100D7000DFF8481408600120DFF844140860002000
:100D8000DFF8401408603A20DFF83C1408700020B7
:100D9000DFF8381408600120DFF830140860012003
:100DA000DFF8201408600120DFF81014086001202B
:100DB000DFF80C1408600020DFF808140860342005
:100DC000DFF8041408700020DFF800140860012028
:100DD000DFF8F81308600120DFF8E813086001204D
:100DE000DFF8D81308600120DFF8D4130860002072
:100DF000DFF8D01308602D20DFF8CC130870002036
:100E0000DFF8C81308600120DFF8C0130860012074
:100E1000DFF8B01308600120DFF8A013086001209C
:100E2000DFF89C1308600020DFF8981308602F207B
:100E3000DFF8941308700020DFF890130860012099
:100E4000DFF8881308600120DFF8781308600120BC
:100E5000DFF8681308600120DFF8641308600020E1
:100E6000DFF8601308602D20DFF85C1308700020A5
:100E7000DFF8581308600120DFF8501308600120E4
:100E8000DFF8401308600120DFF83013086001200C
:100E9000DFF82C1308600020DFF8281308602A20F0
:100EA000DFF8241308700020DFF820130860012009
:100EB000DFF8181308600120DFF80813086001202C
:100EC000DFF8F81208600120DFF8F4120860002053
:100ED000DFF8F01208602F20BB4908700020BB49E2
:100EE00008600120B94908600120B6490860012066
:100EF000B24908600120B24908600020B149086089
:100F00003C20B14908700020B04908600120AF4979
:100F100008600120AB4908600120A8490860012051
:100F2000A74908600020A74908600020A64908706A
:100F30000020A64908600120A44908600120A149B9
:100F4000086001209D49086001209D49086000203B
:100F50009C49086001209C49087000209B4908605A
:100F600001209A49086001209649086001209349B0
:100F70000860012092490860002092490860022020
:100F80009149087000209149086001208F4908604C
:100F900001208C49086001208849086001208849A7
:100FA00008600020874908601020874908700020E9
:100FB0008649086001208549086001208149086050
:100FC00001207E49086000207D49086000207D499D
:100FD0000860E1207C49087000207C4908600120FD
:100FE0007A49086001207749086001207349086048
:100FF000012073490860002072490860042072498A
:1010000008700020714908600120704908600120C3
:101010006C4908600120694908600120684908603E
:101020000020684908601B20674908700020674954
:1010300008600120654908600120624908600120BC
:101040005E49086001205E49086000205D49086033
:101050000D205D49087000205C49086001205B4953
:1010600008600120574908600120544908600120A8
:10107000534908600020534908600E205249087007
:1010800000205249086001205049086001204D4964
:101090000860012049490860012049490860002092
:1010A000484908602D2048490870002047490860D9
:1010B00001204649086001204249086001203F495B
:1010C000086001203E49086000203E490860292050
:1010D0003D49087000203D49086001203B490860F7
:1010E0000120384908600120344908600120344952
:1010F000086000203349086024203349087000202C
:101100003249086001203149086001202D490860FA
:1011100001202A4908600120294908600020294946
:10112000086029202849087000202849086001200B
:101130002649086001202349086001201F490860F2
:1011400001201F49086000201E49086028201E4910
:10115000087000201D49086001201C49086001201A
:1011600018490860012015490860012014490860E9
:1011700000201449086026201349087000201349F4
:10118000086001201149086001200E490860012013
:101190000A49086001200A490860002009490860DE
:1011A00031200949087000200849086001200749DA
:1011B0000860012003490BE03410FE432810FE4371
:1011C0003010FE432C10FE4380F00F402410FE43ED
:1011D00008600120DFF80C1C08600120DFF8081C03
:1011E00008600020DFF8041C08603B20DFF8001CCA
:1011F00008700020DFF8FC1B08600120DFF8F41BFA
:1012000008600120DFF8E41B08600120DFF8D41B30
:1012100008600120DFF8D01B08600020DFF8CC1B3D
:1012200008600020DFF8C81B08700020DFF8C41B2E
:1012300008600120DFF8BC1B08600120DFF8AC1B50
:1012400008600120DFF89C1B08600120DFF8981B74
:1012500008600020DFF8941B08600020DFF8901B76
:1012600008700020DFF88C1B08600120DFF8841B69
:1012700008600120DFF8741B08600120DFF8641BA0
:1012800008600120DFF8601B08600020DFF85C1BAD
:1012900008600320DFF8581B08700020DFF8541B9B
:1012A00008600120DFF84C1B08600120DFF83C1BC0
:1012B00008600120DFF82C1B08600120DFF8281BE4
:1012C00008600020DFF8241B08601220DFF8201BD4
:1012D00008700020DFF81C1B08600120DFF8141BD9
:1012E00008600120DFF8041B08600120DFF8F41A11
:1012F00008600020DFF8F01A08600020DFF8EC1A20
:1013000008603A20DFF8E81A08700020DFF8E41AD5
:1013100008600120DFF8DC1A08600120DFF8CC1A31
:1013200008600120DFF8BC1A08600120DFF8B81A55
:1013300008600020DFF8B41A08600520DFF8B01A52
:1013400008700020DFF8AC1A08600120DFF8A41A4A
:1013500008600120DFF8941A08600120DFF8841A81
:1013600008600020DFF8801A08600020DFF87C1A8F
:1013700008602920DFF8781A08700020DFF8741A56
:1013800008600120DFF86C1A08600120DFF85C1AA1
:1013900008600120DFF84C1A08600020DFF8481AC6
:1013A00008600020DFF8441A08602C20DFF8401A9B
:1013B00008700020DFF83C1A08600120DFF8341ABA
:1013C00008600120DFF8241A0860DFF8540C007868
:1013D00000F001F810BD10B50400E4B2042C04DBE9
:1013E000C821DFF8400C00F0BCFFDFF8340C0470BB
:1013F000E4B2002C09D0022C00F0B982C0F05E816A
:10140000032C00F0EA8300F0EBBC0120DFF8D419D4
:1014100008600020DFF8D01908600020DFF8CC1940
:1014200008603620DFF8C81908700020DFF8C419FA
:1014300008600120DFF8BC1908600120DFF8AC1952
:1014400008600120DFF89C1908600120DFF8981976
:1014500008600020DFF894190860C820DFF89019B0
:1014600008700020DFF88C1908600120DFF884196B
:1014700008600120DFF8741908600120DFF86419A2
:1014800008600020DFF8601908600020DFF85C19B0
:1014900008602A20DFF8581908700020DFF8541976
:1014A00008600120DFF84C1908600120DFF83C19C2
:1014B00008600120DFF82C1908600120DFF82819E6
:1014C00008600020DFF8241908600020DFF82019E8
:1014D00008700020DFF81C1908600120DFF81419DB
:1014E00008600120DFF8041908600120DFF8F41813
:1014F00008600120DFF8F01808600020DFF8EC1821
:1015000008600220DFF8E81808700020DFF8E4180F
:1015100008600120DFF8DC1808600120DFF8CC1833
:1015200008600120DFF8BC1808600120DFF8B81857
:1015300008600020DFF8B41808600020DFF8B01859
:1015400008700020DFF8AC1808600120DFF8A4184C
:1015500008600120DFF8941808600120DFF8841883
:1015600008600120DFF8801808600020DFF87C1890
:1015700008608120DFF8781808700020DFF8741800
:1015800008600120DFF86C1808600120DFF85C18A3
:1015900008600120DFF84C1808600020DFF84818C8
:1015A00008600020DFF8441808602B20DFF840189E
:1015B00008700020DFF83C1808600120DFF83418BC
:1015C00008600120DFF8241808600120DFF81418F3
:1015D00008600120DFF8101808600020DFF80C1800
:1015E00008600020DFF8081808700020DFF80418F1
:1015F00008600120DFF8FC1708600120DFF8EC1715
:1016000008600120DFF8DC1708600120DFF8D81738
:1016100008600020DFF8D41708600320DFF8D01737
:1016200008700020DFF8CC1708600120DFF8C4172D
:1016300008600120DFF8B41708600120DFF8A41764
:1016400008600120DFF8A01708600020DFF89C1771
:1016500008600020DFF8981708700020DFF8941762
:1016600008600120DFF88C1708600120DFF87C1784
:1016700008600120DFF86C1708600120DFF86817A8
:1016800008600020DFF8641708608220DFF8601728
:1016900008700020DFF85C1708600120DFF854179D
:1016A00008600120DFF8441708608020DFF878190F
:1016B00008808020DFF87419088091E30120DFF8AA
:1016C000241708600020DFF8201708600020DFF8EA
:1016D0001C1708603620DFF8181708700020DFF8A4
:1016E000141708600120DFF80C1708600120DFF8EC
:1016F000FC1608600120DFF8EC1608600120DFF816
:10170000E81608600020DFF8E4160860A820DFF87B
:10171000E01608700020DFF8DC1608600120DFF812
:10172000D41608600120DFF8C41608600120DFF835
:10173000B41608600020DFF8B01608600020DFF85B
:10174000AC1608602A20DFF8A81608700020DFF821
:10175000A41608600120DFF89C1608600120DFF85D
:101760008C1608600120DFF87C1608600120DFF885
:10177000781608600020DFF8741608600020DFF893
:10178000701608700020DFF86C1608600120DFF882
:10179000641608600120DFF8541608600120DFF8A5
:1017A000441608600120DFF8401608600020DFF8CA
:1017B0003C1608600320DFF8381608700020DFF8B8
:1017C000341608600120DFF82C1608600120DFF8CD
:1017D0001C1608600120DFF80C1608600120DFF8F5
:1017E000081608600020DFF8041608600020DFF803
:1017F000001608700020DFF8FC1508600120DFF8F3
:10180000F41508600120DFF8E41508600120DFF816
:10181000D41508600120DFF8D01508600020DFF83B
:10182000CC1508608220DFF8C81508700020DFF8AA
:10183000C41508600120DFF8BC1508600120DFF83E
:10184000AC1508600120DFF89C1508600020DFF867
:10185000981508600020DFF8941508602B20DFF849
:10186000901508700020DFF88C1508600120DFF863
:10187000841508600120DFF8741508600120DFF886
:10188000641508600120DFF8601508600020DFF8AB
:101890005C1508600020DFF8581508700020DFF89C
:1018A000541508600120DFF84C1508600120DFF8AE
:1018B0003C1508600120DFF82C1508600120DFF8D6
:1018C000281508600020DFF8241508600220DFF8E2
:1018D000201508700020DFF81C1508600120DFF8D3
:1018E000141508600120DFF8041508600120DFF8F6
:1018F000F41408600120DFF8F01408600020DFF81D
:10190000EC1408600020DFF8E81408700020DFF80D
:10191000E41408600120DFF8DC1408600120DFF81F
:10192000CC1408600120DFF8BC1408600120DFF847
:10193000B81408600020DFF8B41408608120DFF8D4
:10194000B01408700020DFF8AC1408600120DFF844
:10195000A41408600120DFF8941408608020DFF8E8
:10196000C81608808020DFF8C416088038E20120FD
:10197000DFF8701408600020DFF86C1408600020A5
:10198000DFF8681408603620DFF86414087000205F
:10199000DFF8601408600120DFF8581408600120A7
:1019A000DFF8481408600120DFF8381408600120CF
:1019B000DFF8341408600020DFF8301408600820D5
:1019C000DFF82C1408700020DFF8281408600120CC
:1019D000DFF8201408600120DFF8101408600120EF
:1019E000DFF8001408600020DFF8FC130860002016
:1019F000DFF8F81308602A20DFF8F41308700020DD
:101A0000DFF8F01308600120DFF8E8130860012018
:101A1000DFF8D81308600120DFF8C8130860012040
:101A2000DFF8C41308600020DFF8C013086000204E
:101A3000DFF8BC1308700020DFF8B813086001203D
:101A4000DFF8B01308600120DFF8A0130860012060
:101A5000DFF8901308600120DFF88C130860002085
:101A6000DFF8881308600220DFF884130870002074
:101A7000DFF8801308600120DFF878130860012088
:101A8000DFF8681308600120DFF8581308600120B0
:101A9000DFF8541308600020DFF8501308600020BE
:101AA000DFF84C1308700020DFF8481308600120AD
:101AB000DFF8401308600120DFF8301308600120D0
:101AC000DFF8201308600120DFF81C1308600020F5
:101AD000DFF8181308608120DFF814130870002065
:101AE000DFF8101308600120DFF8081308600120F8
:101AF000DFF8F81208600120BA4908600020BA49EE
:101B000008600020B94908602B20B94908700020FE
:101B1000B84908600120B74908600120B34908604E
:101B20000120B04908600120AF4908600020AF499A
:101B300008600020AE4908700020AE49086001200E
:101B4000AC4908600120A94908600120A549086046
:101B50000120A54908600020A44908600320A44989
:101B600008700020A34908600120A24908600120F4
:101B70009E49086001209B49086001209A4908603D
:101B800000209A490860002099490870002099496E
:101B900008600120974908600120944908600120ED
:101BA0009049086001209049086000208F49086032
:101BB00082208F49087000208E49086001208D49DD
:101BC00008600120894908608020DFF85C140880E3
:101BD0008020DFF85814088002E101208149086064
:101BE0000020814908600020804908603620804933
:101BF000087000207F49086001207E4908600120AC
:101C00007A49086001207749086001207649086018
:101C100000207649086068207549087000207549E1
:101C200008600120734908600120704908600120A4
:101C30006C49086000206C49086000206B4908600E
:101C40002A206B49087000206A4908600120694910
:101C50000860012065490860012062490860012090
:101C600061490860002061490860002060490870EF
:101C700000206049086001205E49086001205B493E
:101C8000086001205749086001205749086000207A
:101C900056490860032056490870002055490860DD
:101CA00001205449086001205049086001204D4935
:101CB000086001204C49086000204C490860002061
:101CC0004B49087000204B490860012049490860D1
:101CD000012046490860012042490860012042492C
:101CE00008600020414908608220414908700020B6
:101CF0004049086001203F49086001203B490860D5
:101D00000120384908600020374908600020374921
:101D100008602B20364908700020364908600120F1
:101D20003449086001203149086001202D490860CC
:101D300001202D49086000202C49086000202C4912
:101D4000087000202B49086001202A490860012002
:101D500026490860012023490860012022490860C3
:101D600000202249086002202149087000202149F2
:101D7000086001201F49086001201C4908600120FB
:101D800018490860012018490860002017490860B8
:101D900000201749087000201649086001201549E5
:101DA000086001201149086001200E4908600120E7
:101DB0000D49086000200D49086081200C49087019
:101DC00000200C49086001200A49086001200749E9
:101DD0000860802094490880802094490880FFE7AB
:101DE00010BD00002810FE433010FE432C10FE43AF
:101DF00080F00F402410FE4303B489480078C007E8
:101E00000AD5BDF80000C01CADF80000BDF8020006
:101E1000801CADF8020009E0BDF80000801CADF8A0
:101E20000000BDF80200C01CADF80200012080498E
:101E3000086000207F49086000207F4908602A2050
:101E40007E49087000207E49086001207C490860B6
:101E50000120794908600120754908600120754911
:101E60000860002074490860BDF8000080B2000AD4
:101E700072490870002072490860012070490860AA
:101E800001206D4908600120694908600120694905
:101E90000860002068490860BDF8000067490870C4
:101EA00000206749086001206549086001206249F7
:101EB000086001205E49086001205E49086000203A
:101EC0005D490860BDF80000BDF8041011FA80F00B
:101ED000401E00125949087000205949086001202D
:101EE00057490860012054490860012050490860A2
:101EF00001205049086000204F490860BDF80000EB
:101F0000BDF804100818401E4C49087000204C49C8
:101F1000086001204A490860012047490860012003
:101F20004349086000204349086000204249086096
:101F30002B20424908700020414908600120404997
:101F4000086001203C4908600120394908600120EF
:101F500038490860002038490860BDF8020080B2A6
:101F6000000A3649087000203549086001203449CC
:101F7000086001203049086001202D4908600120D7
:101F80002C49086000202C490860BDF802002B494C
:101F9000087000202A4908600120294908600120B2
:101FA0002549086001202249086001202149086074
:101FB000002021490860BDF80200BDF8061011FAA2
:101FC00080F0401E00121D49087000201C49086066
:101FD00001201B49086001201749086001201449AD
:101FE0000860012013490860002013490860BDF80B
:101FF0000200BDF806100818401E104908700020A5
:102000000F49086001200E49086001200A49086054
:1020100002B0704704480088704704480088704741
:10202000ECA1FF1FB47A0000D40BFF1FD60BFF1FDB
:102030002810FE433010FE432C10FE4380F00F406A
:102040002410FE4370B504000D0016004FF480719B
:102050002000C0B200F0F0F86DB2002D11D174482C
:10206000E4B2611150F821007149E4B2621151F8F3
:1020700022104969012214F01F039A4091434161E3
:1020800036E06B48E4B2611150F821006849E4B2CF
:10209000621151F822104969012214F01F039A407D
:1020A00011434161F6B2002E11D16148E4B26111D1
:1020B00050F821000068012114F01F02914088436C
:1020C0005B49E4B2621151F82210086010E05848F0
:1020D000E4B2611150F821000068012114F01F02E0
:1020E000914008435249E4B2621151F8221008604D
:1020F00070BD30B449B2002911D14D4AC0B243116C
:1021000052F823204A4BC0B2441153F824305B6983
:10211000012410F01F05AC40A343536110E0444A72
:10212000C0B2431152F82320414BC0B2441153F8BE
:1021300024305B69012410F01F05AC402343536138
:1021400030BC704738B504000D003948E4B2611165
:1021500050F82100406914F01F010200CA40D00766
:1021600003D46321334800F0FCF8EDB2002D11D107
:102170002F48E4B2611150F821000068012114F0E9
:102180001F02914088432A49E4B2621151F822109B
:10219000086010E02648E4B2611150F821000068A0
:1021A000012114F01F02914008432149E4B2621159
:1021B00051F82210086031BD10B504001C48E4B28B
:1021C000611150F82100406914F01F010200CA405B
:1021D000D00703D47B21174800F0C3F81448E4B2B9
:1021E000611150F82100012114F01F029140C160DB
:1021F00010BD10B504000E48E4B2611150F8210082
:10220000406914F01F010200CA40D00703D58C2199
:10221000084800F0A6F80648E4B2611150F8210021
:10222000006914F01F010200CA4012F0010010BD45
:10223000300BFF1F1C7C000010B4294A12684FF4B9
:102240000073C0B24409A3401A43254B1A60254AC3
:10225000C0B2431152F82320012310F01F04A34001
:10226000C2F8A0301F4AC0B2431152F82320C0B2B6
:1022700010F01F0342F8231010BC704710B4184A26
:1022800012684FF40073C0B24409A3401A43144BC0
:102290001A60144AC0B2431152F82320012310F0EF
:1022A0001F04A340C2F8A03031F4E0610D4AC0B26F
:1022B000431152F82320C0B210F01F0352F823201C
:1022C00012F4E0621143074AC0B2431152F82320CE
:1022D000C0B210F01F0342F8231010BC704700007A
:1022E000388004408C0BFF1F80B200281BD00E49A1
:1022F000096851F001010C4A116000210B4A11607C
:1023000080B20C4908600521094A11600121074A81
:102310001160064909680906FBD50449096849089E
:102320004900024A116070473880044000000440B0
:102330000400044008000440DFF800F0510CFF1FC7
:10234000DFF800F0810CFF1FBFF34F8F4648006895
:1023500010F4E0604549084343490860BFF34F8FDC
:10236000FEE738B504000D00002000F08DF82A00CB
:1023700021003F4800F0C0F8002000F0A2F84FF420
:102380007A70FFF7B1FFF2E738B504000D002100C5
:1023900049B2042000F0CCF9200032BD10B5002471
:1023A000042000F0F1F9042000F024FA002841D1C3
:1023B000002000F069F8042000F01CFA012801D187
:1023C00001200400002000F07CF82A4800F094F876
:1023D0004FF4FA70FFF788FFE4B2012CEBD1042030
:1023E00000F008FA0028E6D1042000F003FA0028E3
:1023F00006D1002000F065F86420FFF775FFF3E7D1
:10240000042000F0F7F9012806D1002000F059F867
:102410003220FFF769FFF3E7174800F06DF8FFF788
:102420008BFF6420FFF760FF0020FFF789FFFFF7B5
:102430008BFFC0E710BD10B510480468012000F004
:1024400023F8012000F03DF80D48E4B20F2101FB14
:102450000402E4B221000B4800F04EF84FF47A7009
:10246000FFF742FFEDE700000CED00E00400FA0585
:10247000DC7D0000907E0000107E000004ED00E096
:102480001C04FF1F787D000010B5040064B2042C0A
:1024900007DA01220121174864B2205CFFF7D2FD60
:1024A0000EE0042004002000441E40B2002807D0A3
:1024B000012201210F4864B2205CFFF7C3FDF2E75F
:1024C00010BD10B5040064B2042C05DA094864B2EA
:1024D000205CFFF771FE0CE0042004002000441E85
:1024E00040B2002805D0034864B2205CFFF764FEC8
:1024F000F4E710BDD80BFF1F0EB400B582B003A9DE
:102500000091024600AB0121034878440A3000F0F4
:1025100089F906BC5DF810FB555900002DE9F84318
:1025200004000D0064B2002C08D0022C2CD018D36B
:10253000042C4FD03BD3052C5FD071E0DFF8300284
:10254000006850F48060DFF8281208604FF4407192
:102550006620FFF771FE4FF440716720FFF76CFEB5
:102560005EE0DFF80C02006850F40060DFF8001253
:1025700008604FF440714320FFF75EFE4FF4407156
:102580004420FFF759FE4BE0DFF8E401006850F407
:102590008050DFF8DC1108604FF440716320FFF7D2
:1025A0004BFE4FF440716220FFF746FE38E0DFF843
:1025B000C001006850F40050DFF8B41108604FF417
:1025C00040715020FFF738FE4FF440715120FFF763
:1025D00033FE25E0DFF89C01006850F48060DFF8EE
:1025E000941108604FF440719920FFF725FE4FF4D5
:1025F00040719820FFF720FE12E0DFF878010068B4
:1026000050F40060DFF86C1108604FF440718920CD
:10261000FFF712FE4FF440718820FFF70DFEFFE731
:10262000DFF8540164B250F82400C07810F0F300D1
:10263000DFF8441164B251F82410C870DFF8380193
:1026400064B250F824008078DFF82C1164B251F89D
:102650002410887064B2002C02D064B2012C07D11F
:10266000DFF8180100684FF47A714843814606E0AC
:10267000DFF80C0100684FF47A7148438146280165
:10268000B9FBF0F00600B6B2B6F5005F02DB41F62A
:10269000FF700600B9FBF5F0B6B2B0EB061007000C
:1026A000BFB2202F03DBDC213648FFF75AFE324849
:1026B00064B250F82400007810F0E0008046C6F3C1
:1026C000042050EA08002C4964B251F82410087024
:1026D000294864B250F824004670274864B250F884
:1026E0002400807A10F0E000804617F01F0050EAC6
:1026F0000800214964B251F8241088721E4864B25F
:1027000050F82400007C50F088001B4964B251F856
:1027100024100874184864B250F82400C07850F0AF
:102720000C00154964B251F82410C870BDE8F1835B
:10273000114A40B252F8202012791206F8D50E4AFA
:1027400040B252F82020D171704770B504000D00DE
:1027500016003000461E002808D095F9001049B236
:10276000200040B2FFF7E4FF6D1CF2E770BD0000EF
:102770003480044028800440A00BFF1F5CA1FF1F91
:1027800064A1FF1FCC7C000010B5040064B2082CCB
:102790000DDA00220021224864B2205CFFF752FCCF
:1027A00003211F4864B2205CFFF768FD14E0082095
:1027B00004002000441E40B200280DD00022002159
:1027C000174864B2205CFFF73DFC0321144864B253
:1027D000205CFFF753FDECE710BD10B50400104876
:1027E00064B2205CFFF705FD002801D1002000E065
:1027F000012010BD10B50400200040B2FFF7EDFF2E
:1028000000280AD10A20FFF76FFD200040B2FFF731
:10281000E4FF002801D1002000E0012010BD0000ED
:10282000CC0BFF1F2DE9F04FA1B0824600201746C8
:102830001D4602910B900DF1440B6FF000490AE028
:1028400017F8011B0298D0470290002800F0A282DE
:102850000B98401C0B90387808B90B989CE22528FF
:10286000EED10020059006900790089009900A90FC
:1028700001E040F0010017F8011F2029F9D02329B9
:102880000DD02B2904D02D2906D030290AD00CE0F8
:1028900040F0020080B2EEE740F00400FAE740F0BA
:1028A0000800F7E740F01000F4E72A290ED1296864
:1028B000296051F8042B2960002A0D9204D5514259
:1028C00040F004000D9180B27F1C11E000210D91B9
:1028D00009E00D99494505D001EB810302EB430165
:1028E00030390D917F1C3A78A2F130010A29F0D3DA
:1028F00039782E2903D04FF0FF310C911DE017F8E5
:10290000011F2A2907D1296829607F1C51F8042B4F
:1029100029600C9211E000210C9109E00C994945C5
:1029200005D001EB810302EB430130390C917F1C90
:102930003A78A2F130010A29F0D3ADF838000FF649
:10294000B820397800F076FD08B117F8010B8DF842
:102950003A009DF83A00682802BF39786829622059
:1029600005D06C2804BF38786C2803D171208DF80D
:102970003A007F1C11A8049017F8014BB4F1250010
:1029800024D02038022840F2C580133800F0EB80B4
:102990000B3800F04F81401E00F02481401E0228B9
:1029A00040F2B880001F00F01D81401F00F08380BE
:1029B000401E00F0D880401E29D0C01E0CD0801EC2
:1029C00000F0D180C01E00F0CE803DE101200590D6
:1029D00025208DF8440043E12868286050F8044B16
:1029E00028600394DDF83080B8F1000F04D520464C
:1029F00000F02CFD804607E042460021204600F012
:102A000041FD08B1A0EB0408CDF8188028E1296841
:102A100029604FF03C0851F8040B29600021CDE9F2
:102A2000000111A80390DDE90001049C11B908B967
:102A30000C9AC2B10206120FA0EB02123032D2B2CF
:102A40003A2AA8BF27320009A8F1010340EA017021
:102A500009091A5508BF0028984604D0039A08EBC4
:102A600004039A42E6D308EB04000390C8F13C014A
:102A70000C980691814209DA401A08904FF6EF71DE
:102A8000BDF838000840ADF83800E9E0002840F112
:102A9000E7809DF8380000F01400102840F0E08036
:102AA0000D98059A801A089A801A401A0128C0F2D7
:102AB000D7800890D4E09DF83A0062281AD06828A0
:102AC00006D06A280CD06C281CD0712808D019E0D8
:102AD0002868286050F8041B28600B980880BFE025
:102AE0002868286050F8042B28600B98C117C2E9A9
:102AF0000001B5E02868286050F8041B28600B9896
:102B00000870ADE02868286050F8041B28600B9816
:102B10000860A5E02868C01D20F007022A60D2E9FD
:102B2000000108322A60CDE90001002903D5012007
:102B300005902D200CE0BDF83800810703D5012059
:102B400005902B2004E0C00704D50120059020202B
:102B50008DF84400059911A808180390214600A893
:102B600000F0D8F97CE09DF83A206C2A0DD0712A4B
:102B700018BF6A2A09D12868C01D20F007032B60FE
:102B8000D3E9000108332B6005E02968296051F87A
:102B9000040B29600021CDE90001682A08BF80B23A
:102BA00007D0622A08BFC0B203D0742A18BF7A2A9D
:102BB00002D10021CDE900019DF83800000730D591
:102BC000DDE90001002908BF00282AD044F02000D8
:102BD000782826D130208DF844008BF8014002205F
:102BE00005901EE09DF83A00294600F0D8F8CDE99E
:102BF0000001002904DA0598411C05912D210EE001
:102C0000BDF83800810704D50598411C05912B219A
:102C100005E0C00705D50598411C0591202100F865
:102C20000B10059911A808180390214600A800F080
:102C3000EDF815E0012005902868286050F8041B85
:102C400028608DF844100BE0012005902520002C11
:102C50008DF8440004D00598411C059100F80B4004
:102C60000D980599401A0899401A0699401A099931
:102C7000401A0799401A0A99A0EB01089DF83800FC
:102C800040070FD420208DF84000002408E00123E5
:102C900010AA00A9504600F098FB00287AD1641CC5
:102CA0004445F4DB059C11AE0AE016F8011B0298BE
:102CB000D047029000286DD00B98401C0B90641EEA
:102CC000002CF2D130208DF840000026089C08E04E
:102CD000012310AA00A9504600F077FB002859D123
:102CE000761CA642F4DB069C039E0AE016F8011B44
:102CF0000298D047029000284CD00B98401C0B90B3
:102D0000641E002CF2D130208DF840000026099C72
:102D100007E0012310AA00A9504600F056FBC8BBEB
:102D2000761CA642F5DB03980699079C0E1809E06D
:102D300016F8011B0298D047029058B30B98401C1C
:102D40000B90641E002CF3D130208DF8400000263B
:102D50000A9C07E0012310AA00A9504600F035FBA9
:102D6000C0B9761CA642F5DB9DF8380040077FF518
:102D700072AD20208DF84000002400E0641C444522
:102D8000BFF669AD012310AA00A9504600F01DFB53
:102D90000028F3D04FF0FF3021B0BDE8F08F62285B
:102DA00026D068281DD06A2808D06C2827D0712822
:102DB00004D0742823D07A280CD020E00868C01DE5
:102DC00020F007000860D0E90023083008601946A9
:102DD000104670470A680A6052F8040B0A60002126
:102DE00070470A680A6052F8040B0A6000B20BE0F0
:102DF0000A680A6052F8040B0A6040B204E00A68EC
:102E00000A6052F8040B0A60C11770472DE9FA4EA8
:102E100005460A462F696F2A08BF082405D041F0ED
:102E20002000782814BF0A2410243C26D5E900018C
:102E3000642A18BF692A81468A4605D1002903DA27
:102E4000D9F100096AEB4A0ABAF1000F08BFB9F1DB
:102E5000000F0CD1286B50B9082C36D195F83800EA
:102E6000000732D530203B2687F83B002DE0E317E2
:102E700048465146224600F031FBA4FB0023A9EB53
:102E800002023032D2B2A6F1010B3A2A5E4603DBCF
:102E90009DF80030513B9A1881465FEA010A0BF811
:102EA000072008BFB9F1000F03D0E868F119884284
:102EB000DDD3082C09D195F83800000705D5F05D61
:102EC000302802D0761E3020F055C6F13C00A861B3
:102ED000F119E960296B884208DA081A28624FF66E
:102EE000EF71288F08402887BDE8F38E00290ED5A2
:102EF00095F8381001F01401102908D1696B6A693E
:102F0000891A2A6A891A081A0128A8BF2862BDE806
:102F1000F38E00002DE9F34F8BB0D0E90089006BF0
:102F2000002801AF48BF062005D404BF41F02000AF
:102F3000672802D101200B99086340F2FF720B98B9
:102F40004168C1F30A50904220D1080302BF0B9898
:102F5000006800280AD10B99032088619DF8300091
:102F600061381A2858D30FF2A44109E00B990320C5
:102F700088619DF8300061381A284AD30FF28441E5
:102F80000B98C068032200F021FB00E1012807DA5A
:102F90000B9800F056FB012802DB00230026EDE031
:102FA0000B9ADFF854B1526840F2FE3161F31E52C1
:102FB0000B994A6040F2FE31461A404649460022CB
:102FC000002300F05FFB38BF89F0004936B247F2BA
:102FD00097507043494990FBF1F636B2C6F10707A6
:102FE000012F92461BDBF80707D552465B46404649
:102FF000494600F05FFB804689467F10504659469F
:1030000052465B4600F056FB002F82468B46EAD1C3
:1030100026E00FF2EC31B3E70FF2EC31B0E77F427C
:103020000024374D12E0F80707D552465B4620468C
:10303000294600F03FFB04460D467F105046594696
:1030400052465B4600F036FB82468B46002FEAD1A3
:103050004046494622462B4600F0FEFB8046894604
:103060009DF830000B99DFF89CB0096B40F020050B
:10307000662D0CBF06F10A0006204718142FA8BFC2
:10308000132730208DF804000DF10504012F3BDBE0
:103090004046494600F004FD014604F108020423BD
:1030A0004FF00A0CB1FBFCFC0CEB8C04A1EB4401CF
:1030B000303102F8011D0A21BCFBF1FE0EEB8E043B
:1030C000ACEB440430345B1E714602F8014DE7D18D
:1030D000083F012F02F10804D8DB00F001FD024691
:1030E0000B464046494600F009FD00225B4600F0D1
:1030F000E1FA80468946CBE700002440A086010023
:103100000000F03F84D797410DF10500201A0DF122
:10311000050702E0401E761E7F1C39783029F9D061
:10312000662D02D136B2711C03E0652D0CBF012162
:1031300000210B9A126B8B181BB29842B8BF034642
:103140001BB219001AD4814204DAC85D3528A8BF21
:10315000392000DA3020CA19521E00E05B1E12F836
:103160000159491E8542F9D0392802D1C85D401C59
:10317000C855002902D57F1E5B1C761C36B29DF80F
:1031800030100B9800961BB23A4600F003F80DB0D1
:10319000BDE8F08F2DE9F04786B006468A46904696
:1031A0001D4600F088FD406A376B90F80090012DB5
:1031B00002DA01250FF258284AF02000BDF9384004
:1031C000662808BF641C13D0672840F0888014F17B
:1031D000040F73DBBC4271DA96F83800641C0007F8
:1031E00002D4BD42B8BF2F4624B23F1B48BF0027C0
:1031F00024B2F068B169012C21DA4A1C30230B5447
:10320000012F03DA96F83810090702D502F800906A
:10321000521CE742B8BF7C4224B26142E719AF4278
:10322000B261B8BF3D4671622DB2F5612A46B369FD
:103230004146181800F0CAF9781BB062AEE00818D1
:10324000A54216DA2A46414600F0C0F9B16969186C
:10325000601BB161012F706203DA96F83800000735
:1032600005D5F06801F80090F069401CF061B76284
:1032700094E02246414600F0A9F9B06920182D1BC0
:10328000012F03DA96F83810090703D5F16800F822
:103290000190401CB0612DB2AF42B8BF3D46F0680E
:1032A000B3692DB22A4604EB0801181800F08EF914
:1032B000B0692818B061781B70626FE0BD4204DA13
:1032C00096F83810090758BF2F467F1E48BF0027C1
:1032D000BAF1670F0CBF4FF0650A4FF0450AB169AC
:1032E000F06818F8013B0B544A1C012F05DA96F8D8
:1032F0003810090758BFB26115D502F80090531C69
:10330000012FB3610FDB6D1E2DB2AF42B8BF3D463A
:103310002DB22A464146181800F058F9B06928180D
:10332000B061781B7062F068B16901EB00082000A1
:1033300008F801AB03D42B2008F8010B03E02D2182
:1033400008F8011B6442002502AF08E00A2200A829
:1033500000F0CAFC019807F8010B6D1C009C21B21B
:103360000129F3DA022D06DA4AF02000652804BFAD
:10337000302008F8010B4DB9302008F8010B07E0A8
:103380006D1E02A8285C303008F8010B012DF7DA19
:10339000F068B1690818A8EB0000F06196F83800F1
:1033A00000F0140010280DD17069B1690818716A15
:1033B0000818F1690818B16A0818716B8842BCBF17
:1033C000081A306206B0BDE8F087F8B504460D462D
:1033D00016461F46002004E0E86A401CE8627F1E93
:1033E000002047B116F8011BA868A047A860002874
:1033F000F2D14FF0FF30F2BD686A6C747A4C000075
:103400006E616E004E414E00696E6600494E460088
:10341000300050F8041B61B150F8042BD30744BFAF
:10342000A9F101039A180023091F42F8043BFAD1BD
:10343000EFE770470278C9B28A421AB11CBF10F890
:10344000012FF9E718BF00207047000000F10103C9
:10345000810704D010F8011B89B18107FAD10268F5
:10346000B2F10131914311F0803F04BF50F8042FB5
:10347000F6E710F8011B11B110F8011BFBE7C01AA9
:1034800070470000C9B2830706D0521E22D310F83D
:10349000013B9942F7D11FE0083A13D302F104022D
:1034A00041EA012141EA014150F8043B121F21BFCA
:1034B0004B40A3F1013C2CEA030C1CF0803FF3D0FD
:1034C000C9B2001F083210F8013B521E28BF91EA12
:1034D000030FF8D818BF0120401E70471B4213D1BC
:1034E000094236D12AB18446B0FBF2F002FB10C289
:1034F000704700F001BCFCD30022002370470B0092
:103500000200002100207047904271EB030CF6D3BB
:1035100070B5B1FA81F4B3FA83F52C1BA340C4F162
:10352000200532FA05F63343A2405FF00046E6403C
:1035300002E05B085FEA3202841A71EB030524BFE4
:10354000204629467641F4D302000B0030000021CA
:1035500070BD012ACFD970B5140C20D0B1FA81F416
:10356000B2FA82F5C4F120046419B4F12006D6D36E
:10357000B2405FF00044F440002502E052085FEAE8
:103580003303C61A71EB020E24BF30467146644104
:103590006D41F3D302000B002000290070BD0C46E2
:1035A000B1FBF2F102FB11452D0445EA1045B5FBD4
:1035B000F2F402FB145580B240EA0545B5FBF2F087
:1035C00002FB105240EA044070BD000062B38B075A
:1035D00008D0521E11F8013B00F8013B00F0248096
:1035E0008B07F6D1830740F0208000BF103A07D345
:1035F00030B4B1E83810103AA0E83810F9D230BC35
:10360000530724BFB1E80810A0E8081044BF51F8E0
:10361000043B40F8043BD20724BF31F8022B20F8CA
:10362000022B44BF0B7803707047083A07D3B1E808
:103630000810083A40F8043B40F804CBF7D253078F
:10364000E4E730B4436803F0004201211B031B0B85
:10365000436004BF0368002B08D10DE00368DD0F51
:1036600045EA440444605B000360491E4468E30289
:10367000F4D523031B0B436043681A43426008469A
:1036800030BC70474FF4001C1CEB410F94BF1CEB87
:10369000430F09E041EA030C50EA4C0C52EA0C0CCF
:1036A00003D2994208BF9042704714BF8B428242B6
:1036B00070470000B0B581EA030C0CF0004C40F2FA
:1036C000FF7515EA11541DBF15EA1357AC42AF42FE
:1036D00039E0E41923EA455343F48013C90241F069
:1036E000004141EA505EC7021100A7FB0202002818
:1036F0004FF00000EEFB01204FF00001E3FB07213B
:1037000018BF42F00102401800214941E3FB0E01BD
:10371000A4F580640F0302D252004041494154F1A4
:1037200001046CDD470872F1004250F1000051EBDA
:103730000451A1F580115CBF41EA0C01B0BD4CEA17
:1037400005510020B0BD05EA1357AC4214BFAF428B
:1037500041E050EA410E1CBF52EA430E02E06146CE
:103760000020B0BD24423C441BD15FEA070EF6D0D6
:10377000090302BF01460020AEF1140EB1FA81F731
:10378000AEEB070401FA07FE0C37C7F1200100FA7F
:1037900007F7C8404EEA000E23EA455343F480136E
:1037A000A2E733F00043B3FA83F704BFB2FA82FE14
:1037B00077440B3FE41BB7F1200E2FBF02FA0EF344
:1037C000BB40C7F1200E22FA0EFE38BF43EA0E03BB
:1037D000BA40641C82E750EA410E14BF52EA430E1D
:1037E0006FF000014FF4001717EB430F8ABF194623
:1037F00017EB410FB5E74CEA05510020B0BDD4F1FD
:103800000104B4F120070FDAC4F12007520828BFE1
:1038100042F0010210FA07F501FA07F7E1BF2A4367
:10382000E0403843E1400FE0352C98DCC7F120043C
:1038300052EA400220FA07F218BF42F0010231FAC0
:1038400007F0A1400A43002172F1004250F100004C
:1038500051EB0C01B0BD0000F0B540F2FF7581EAFC
:10386000030C0CF0004C15EA11541DBF15EA135758
:10387000AC42AF42E5E0BC41C1F31301C3F3130313
:10388000801A994143F4801304D2641E40004941D8
:1038900080185941C90241EA5051B1FBF3F603FBCC
:1038A0001611A2FB0675D7EBC020A94102D2761EE5
:1038B00080185941C90241EA5051B1FBF3FE03FBA4
:1038C0001E11A2FB0E75D7EBC020A94103D2AEF1A9
:1038D000010E80185941890241EA9051760546EA65
:1038E0008E2EB1FBF3F603FB1611A2FB0675D7EB88
:1038F0008020A94102D2761E80185941C90241EAAE
:1039000050514EEA060EB1FBF3F603FB1611A2FB73
:103910000675D7EBC020A94102D2761E8018594106
:10392000C90241EA5051B1FBF3F703FB1711A2FBA7
:103930000735D3EBC020A94167F100070CBF004257
:1039400047F0010766F3D5274FEA1E31B80814F592
:10395000806412DDBD0775F1004250EB0E5051EB53
:10396000045111F5801F5CBF41EA0C01F0BD4CF021
:103970007F6141F0E0410020F0BDBD076D0840EAE5
:103980000E5041F48011D4F10104B4F120060ADA9A
:10399000C4F120060200E04001FA06F3E1401843BA
:1039A000B24015430EE0342C13DCC6F1200445EA86
:1039B00040056D0820FA06F2154321FA06F0A140F1
:1039C0000D43002175F1004250F1000051EB0C0154
:1039D000F0BD00205FEA0C01F0BDCFB992185B4149
:1039E000B3FA83F704BFB2FA82F6BF190B3FB7F1FF
:1039F00020062FBF02FA06F3BB40C7F1200622FAC9
:103A000006F638BF3343BA401CB1E419641E33E7ED
:103A10007F4231F00041B1FA81F404BFB0FA80F680
:103A2000A4190B3CB4F120062FBF00FA06F1A14007
:103A3000C4F1200620FA06F638BF3143A0403C1BF3
:103A40001AE7AC421ABF05EA1357AF4212E050EA38
:103A500041061CBF52EA4306BFE750EA4107304621
:103A600061461CBF41EA0551F0BD52EA430C08BF54
:103A7000C143F0BD00204FF4001616EB410F98BF74
:103A800016EB430F08BF16EB410F24BFC14305E0FF
:103A900016EB430F0CBF61464CEA0551F0BD000028
:103AA000400D40EAC120490080F00D8040F0004008
:103AB000490DA1F58061491C05D4D1F11F0154BF06
:103AC000C840C01770474FF000007047010040F138
:103AD0000980F446404200F005F851F0004160478B
:103AE000010000BF09D0B0FA80F18840C91CC1F5BF
:103AF0008461090501EBD0214005704770B44FF097
:103B0000004591EA030F44BF6B4000F001B900BFCC
:103B1000841A71EB030604D26E40001BB1411219E6
:103B200073414FF4001C1CEB410F34BF7CEB430688
:103B300084E00C0DA4EB1356362E7DDC012E43DC05
:103B400045EAC32343EA525312BFD20292025B08F2
:103B5000240545EAC12141EA5051D2EBC0209941E8
:103B600025D407D1B0FA80F610FA06F164D000200F
:103B7000203608E0B1FA81F6B140C6F1200220FA01
:103B800002F21143B0404FEAF474B4EB465434F0FF
:103B900001064FEA74040AD8D6F50016760D04F033
:103BA0000044F04061FA06F25040F1404840C00A3B
:103BB00040EA415021F0004128BF5FEA500550F132
:103BC000000044EBD12137E045EAC323DB0A45EA94
:103BD000C121C90AB6F120050EDD42EA0242120CEB
:103BE000C5F1200603FA06F6EB4042EA06056D42EF
:103BF000984161F100010DE062FA06F5F24055408E
:103C000063FA06FC82EA0C02F3405A406D4290418E
:103C100061EB030111F4801F05D1641E620502D01F
:103C20006D004041494121F48011430875F1004382
:103C300050F1000041EB045170BC70471CEB410F88
:103C400015D223F0004352EA43060BD04FEA4C0C46
:103C5000BCEB410F04D80C0D661E342EB7DDEBE72C
:103C6000801A994150EA410608BF0021E4E708BFE5
:103C70001CEB430F28BF6FF00001DDE780B5134850
:103C800000F0B0F80FF24801016041608160C1604E
:103C90000161416181610FF23C0242628162C16255
:103CA000016341630FF2300282630FF23402C26398
:103CB0000164416401BD10B5044800F093F8044666
:103CC000206808B9FFF7DAFF204610BDF0A1FF1FFA
:103CD000000000002E00000066616C7365000000AB
:103CE000747275650000000091FBF2F303FB121182
:103CF000C0E90031704700007047000070B44FF019
:103D0000004591EA030C44BF6B40FFF701BF00BFC1
:103D1000841A71EB030603D2001BB14112197341DF
:103D20004FF4001C1CEB410F34BF7CEB430443E019
:103D30000C0DA4EB1356352E50DC45EAC323DB0AE9
:103D400045EAC121C912B6F120050DDD63FA05F679
:103D5000EB4086EA0305124218BF45F00105C01882
:103D600051F100010CD213E062FA06F5F240554021
:103D7000F3415A40B340F3405A408018594107D3A9
:103D800049085FEA30005FEA350528BF45F00105C4
:103D900001F58011420875F1004250F1000041EB3D
:103DA000045170BC4FF4001C1CEB410F38BF70472E
:103DB0000020090D090570471CEB410F10D252EA93
:103DC00043060BD0BCEB410F05D80C0DAB43661E70
:103DD000342EB5DD02E0AB438018594170BC70470A
:103DE00070BC70477047000010F00702DFF8DC3746
:103DF0001B6819004FF6FF031940DFF8D43753EA68
:103E000002231943DFF8C43719607047012110F00D
:103E10001F029140DFF8BC2740B2430942F823104B
:103E20007047012110F01F029140DFF8AC2740B22B
:103E3000430942F82310704710B440B2002809D556
:103E40000A01DFF8983740B210F00F04E31803F8C6
:103E5000042C04E00A01DFF8883740B2C25410BCD9
:103E60007047F0B583B000F02FFCDFF878070468E6
:103E7000DFF874070568FEF7CDF8ADF80600FEF729
:103E8000CCF8ADF80400DFF8640700F0BBFC00F0EC
:103E9000A3FD0FF20D71672001F0CBF80FF62101A1
:103EA000102001F0C6F8DFF8480700680A2101FB7E
:103EB00000F1002001F0D4F80FF2AD61542001F0C0
:103EC000B8F80620FFF790FF00215720FFF7B4FF56
:103ED0000620FFF789FF00210020FFF7ADFF062035
:103EE000FFF782FF08214420FFF7A6FF00F0EEFC59
:103EF000DFF8F80601F062F9DFF8F81608704420E0
:103F0000FFF784FF022001F0E1F8DFF8EC0600681B
:103F1000DFF8E81601F0D4FA07D9DFF8DC0600680C
:103F2000DFF8DC1601F0DEFA08D24420FFF779FF53
:103F3000002001F007FB002001F03CFB00F0C6FC74
:103F4000DFF8C016DFF8A40601F0CDF9DFF8B806F7
:103F50000090DFF8B836DFF8B826DFF8B816DFF8DB
:103F6000B80601F0E6F9DFF8B4060090DFF8B036E5
:103F7000DFF8B026DFF8B016DFF8B00601F0D9F9A7
:103F8000DFF8AC060090DFF8AC36DFF8AC26DFF8DF
:103F9000AC16DFF8AC0601F0CCF9DFF8A80600900B
:103FA000DFF8A436DFF8A426DFF8A416DFF8A406AD
:103FB00001F0BFF9DFF8A0060090DFF8A036DFF8C7
:103FC000A026DFF8A016DFF8A00601F0B2F9DFF8AE
:103FD0009C060090DFF89836DFF89826DFF89816F0
:103FE000DFF8980601F0A5F9DFF8600603783222C1
:103FF000DFF880060178462001F0FCF90600DFF8C2
:10400000440603783222DFF864060178462001F086
:10401000F1F9070076B25A2E02D17FF0590006005E
:10402000DFF85C060078002840F0B08076B2012E00
:10403000C0F285807FB2002F40F181800020DFF840
:1040400044160870DFF8FC050078DFF800160978E0
:10405000401A142810DA00200021DFF82C26C2E9CB
:10406000000100200021DFF82426C2E90001012020
:10407000DFF80C16087062E0DFF8A0050078DFF8C2
:10408000A4150978401A1A2859DBDFF8A40500782E
:10409000DFF8A4150978401ADFF880150978401A6E
:1040A000DFF88015097840180B2848DBDFF8580541
:1040B0000078DFF85C150978401A0F283FDBDFF83D
:1040C0005C050078DFF85C1509780818022190FB80
:1040D000F1F0DFF85C150978DFF85C2512785118EB
:1040E000022291FBF2F1401A012814DB0120DFF8D3
:1040F0009415087000200021DFF88C25C2E900012A
:1041000000200021DFF88425C2E900010220DFF849
:104110007015087013E00220DFF8681508700020A1
:104120000021DFF86425C2E9000100200021DFF84A
:104130005C25C2E900010220DFF84415087076B260
:10414000012E02DB7FB2012F05DA76B2002E06D5F2
:104150007FB2002F03D50320DFF82815087076B250
:10416000002E13D57FB2012F10DB19223221DFF888
:10417000940401F021F9002804D10420DFF804158B
:10418000087003E00620DFF8FC140870DFF8F00484
:10419000007801281CD1DFF8F024D2E90001DFF813
:1041A000ECC4DCE900238018594141F28932002334
:1041B00099420DDB01DC90420AD30020DFF8C014E5
:1041C0000870DFF8CC040078401CDFF8C4140870D5
:1041D000DFF8AC040078022815D1DFF8AC24D2E96E
:1041E0000001DFF8A8C4DCE900238018594142F23D
:1041F00011720023994206DB01DC904203D30020B8
:10420000DFF87C140870DFF888040078012805D0F6
:10421000DFF87C040078002840F08D81DFF864042A
:1042200090F90000002840F0A680DFF82C04007808
:10423000DFF82C140978401ADFF808140978DFF841
:104240000C241278891A88424BDBDFF804040078CA
:10425000012811D1DFF8F003007801280CD1DFF834
:10426000E4030078DFF8E41309780818022190FBD2
:10427000F1F0DFF820140870DFF8D403007801288B
:104280000BD1DFF8C4030078002806D1DFF8BC03A7
:1042900000782030DFF8FC130870DFF8B4030078F2
:1042A00000280BD1DFF8A0030078012806D1DFF841
:1042B000940300782038DFF8DC13087040F2FF70B8
:1042C000DFF8D41308804FF47840DFF8D01308806B
:1042D0001F20DFF8CC1308801F20DFF8C8130880E8
:1042E00049E0DFF880030078012811D1DFF86C0382
:1042F000007801280CD1DFF860030078DFF8601344
:1043000009780818022190FBF1F0DFF88813087093
:10431000DFF85003007801280BD1DFF84003007864
:10432000002806D1DFF8380300782430DFF8641362
:104330000870DFF83003007800280AD1DFF81C038A
:104340000078012805D1C44800782438DFF84413E8
:10435000087040F2FF70DFF8401308801F20DFF87C
:104360003C1308804FF47840DFF8341308801F2096
:10437000DFF830130880C34890F90000032840F0AC
:104380008180B5480078B6490978401AAD49097866
:10439000AE4A1278891A88423ADBAD480078012883
:1043A0000DD1A9480078012809D1A6480078A7496D
:1043B00009780818022190FBF1F0B6490870A4486A
:1043C0000078012808D1A0480078002804D19F482F
:1043D00000782330AF4908709D480078002808D144
:1043E00099480078012804D1964800782338A949D3
:1043F00008704FF6E070A84908804FF47840A7494C
:1044000008801F20A64908801F20A649088039E09F
:104410009448007801280DD190480078012809D1EE
:104420008D4800788E4909780818022190FBF1F038
:10443000984908708B480078012808D1874800788F
:10444000002804D1864800782430924908708548B5
:104450000078002808D181480078012804D17E48DE
:10446000007824388B4908704FF6E0708A4908803C
:104470001F208A4908804FF47840894908801F200E
:10448000884908807F4890F9000004280FD15F20F8
:10449000804908704FF478407F4908801F207F4989
:1044A00008801F207E4908801F207E4908807548AB
:1044B00090F90000062811D1624800782738754924
:1044C00008704FF4FC60744908801F20734908800D
:1044D0001F20734908801F2072490880694890F99D
:1044E0000000012810D15C48007814386949087030
:1044F0000020694908801F20684908801F206849FA
:1045000008801F20674908805E4890F90000022853
:104510001AD15348007816305E49087000205E4971
:1045200008801F205D4908801F205D4908801F20EA
:104530005C49088008E04420FFF773FC002001F08C
:1045400001F8002001F036F8022000F0FCFD2849B7
:1045500009684FF47A7291FBF2F1B0FBF1F1524825
:10456000FDF7CAFFCEE4000080B55048006850F067
:1045700001004E4908604E480088401C4C490880A4
:104580004B480088C92803DA00204A49086002E045
:104590004948484908604748006800F0A4FA01BD4E
:1045A00038B5464800680028FBD04448006805003C
:1045B0005FF0FF30414908601D2004002800E04002
:1045C000C00701D500F052F931BD00000CED00E04C
:1045D0000000FA0500E100E080E100E018ED00E0F5
:1045E00000E400E0C07E0000C47E0000500EFF1F0B
:1045F00064A1FF1F1004FF1F480EFF1F0100E143CD
:104600000000E1C37066FF1FE7A1FF1FE6A1FF1FC7
:10461000E5A1FF1FE4A1FF1FAC7EFF1FE3A1FF1F69
:10462000E2A1FF1FE1A1FF1FE0A1FF1F2480FF1FE8
:10463000DFA1FF1FDEA1FF1FDDA1FF1FDCA1FF1F08
:10464000D083FF1FDBA1FF1FDAA1FF1FD9A1FF1F2E
:10465000D8A1FF1F288BFF1FD7A1FF1FD6A1FF1FC7
:10466000D5A1FF1FD4A1FF1FD48EFF1FD3A1FF1F11
:10467000D2A1FF1FD1A1FF1FD0A1FF1FD899FF1FFB
:10468000EAA1FF1FEBA1FF1FE80DFF1FF00DFF1FA9
:10469000E9A1FF1FE8A1FF1F1804FF1F1604FF1F59
:1046A0001404FF1F1204FF1FA47E00000C710340BE
:1046B000C8A1FF1F30A1FF1F00003443A090044099
:1046C00080B500F0F9F801BD10B582B0DFF8F40054
:1046D0000468FBF7A1FEFDF7A0FCADF80000FDF7B4
:1046E00099FCADF802004FF6FF720099200000F02F
:1046F00001F813BDF2B50400150000992000FDF784
:104700007BFBBDF80000BDF8021048430700012004
:10471000DFF8B41008600020DFF8B0100860002057
:10472000DFF8AC1008602C20DFF8A810087000201B
:10473000DFF8A41008600120DFF89C100860012059
:10474000DFF88C10086000200600BE4239D201203C
:10475000DFF8741008600120DFF870100860002096
:10476000DFF86C100860ADB2280ADFF86810087036
:104770000020DFF8641008600120DFF85C1008609A
:104780000120DFF84C1008600120DFF83C100860C1
:104790000120DFF8381008600020DFF834100860CE
:1047A000DFF8300005700020DFF82C1008600120D1
:1047B000DFF8241008600120DFF814100860761C70
:1047C000C3E7F1BDC87E00002810FE433010FE4351
:1047D0002C10FE4380F00F402410FE43012110F006
:1047E0001F0291404A4A40B2430942F823107047E1
:1047F000012110F01F029140464A40B2430942F89D
:104800002310704710B504004348046000F096F888
:1048100000F002F8002010BDE0B50120029045F63E
:1048200020000190002000901B233B4802683B4978
:10483000002000F027FF3A4800684008400038494F
:1048400008605720FFF7D4FF3648006850F0010099
:10485000344908600020FFF7C1FF33491B20FDF7F2
:10486000EBFC32491D20FDF7E7FC07BD80B5304861
:1048700090F90000042818D103202D490870572012
:10488000FFF7B6FF5FF000602A490860244800681F
:1048900050F00100224908605FF00060254908607F
:1048A0001D4800682449086005E05720FFF7A0FF75
:1048B00002201F49087001BD01201D4908701948D8
:1048C000006850F0010017490860704780B5042067
:1048D000174908705FF0FF30164908605720FFF74E
:1048E0007DFF134890F9000001280FD0104890F97F
:1048F00000000228F5D104200D4908705FF0FF3058
:104900000C4908605720FFF769FFEAE701BD000086
:1049100000E100E080E100E068A1FF1F50F00F40DF
:104920000C800040248000400201020012010900B6
:10493000DC0BFF1FA0900440109000401CB53220FB
:10494000FDF7D2FC5FF4E1310320FDF7E7FDFF2026
:104950008DF8000000208DF801000A208DF802007B
:104960002D208DF803004FF47A700400A4B2200AC1
:104970008DF8040020008DF8050000208DF8060059
:104980005A208DF80700082200A90320FDF7DDFE5C
:104990003220FDF7A9FCFF208DF8000002208DF8E1
:1049A000010000208DF8020000208DF80300002097
:1049B0008DF8040020208DF8050035208DF80600C4
:1049C0005A208DF80700082200A90320FDF7BDFE3C
:1049D0003220FDF789FC13BD38B500F095FD00F0DD
:1049E00065FF01F05DF8DFF8800501F0E5F8DFF81C
:1049F0007805B0F90000FFF769F8DFF87025DFF8F7
:104A00007035FEF757FE0022DFF86835FEF724FF09
:104A100001F048F9DFF860150860DFF84C05B0F9DF
:104A20000400FFF753F8DFF84425DFF84435FEF7BC
:104A300041FE0022DFF83C35FEF70EFF01F032F9AF
:104A4000DFF838150860DFF82005B0F90A00FFF735
:104A50003DF80022DFF82835FEF72CFE0022DFF8B3
:104A60001435FEF7F9FE01F01DF9DFF8181508609E
:104A7000DFF80805006801F05DF902000B00140082
:104A80001D00DFF8F404006801F054F922002B0047
:104A900001F078F9DFF8F024DFF8F034FEF70AFED1
:104AA00001F000F9DFF8E8140860DFF8D0040068CE
:104AB00001F040F902000B0014001D00DFF8B804FB
:104AC000006801F037F922002B0001F05BF9DFF8F4
:104AD000B824DFF8B834FEF7EDFD01F0E3F8DFF8B5
:104AE000B414086031BD2DE9F84F0600DFF8A87452
:104AF000DFF8A80400F0E5FFDFF8A004B0F900003B
:104B0000FEF7E4FFDFF86424DFF86434FEF7D2FD3B
:104B10000022DFF86034FEF79FFE01F0C3F8DFF8F3
:104B200080140860DFF87404B0F90400FEF7CEFFCB
:104B3000DFF83824DFF83834FEF7BCFD0022DFF858
:104B40003434FEF789FE01F0ADF8DFF85814086040
:104B5000DFF84804B0F90A00FEF7B8FF0022DFF8DA
:104B60002034FEF7A7FD0022DFF80834FEF774FEBC
:104B700001F098F8DFF830140860DFF82C040068C2
:104B8000DFF80014096801F063F9DFF81C1408600D
:104B9000DFF81004006801F0CDF802000B001400EB
:104BA0001D00DFF8FC03006801F0C4F822002B00B0
:104BB00001F0E8F8DFF8D023DFF8D033FEF77AFD14
:104BC00001F070F8DFF8E4130860DFF8C403006850
:104BD00001F0B0F804000D00DFF8CC03006801F02C
:104BE000A9F8DFF8CC23DFF8CC33FEF763FD020031
:104BF0000B0020002900FEF781FF01F053F8DFF8D9
:104C000090130860DFF8A4030068390001F094F9FC
:104C100001F090F882468B465FF07E50390001F03B
:104C200017F901F087F880468946DFF868030068C5
:104C300001F080F804000D00DFF86C03006801F05B
:104C400079F8DFF86C23DFF86C33FEF733FD0200F0
:104C50000B0020002900FEF751FF42464B46FEF7AD
:104C600029FD52465B46FFF749F801F01BF8C94998
:104C70000860C8480168DFF8400301F05DF901F001
:104C8000C7F901F0E7F9DFF834130860DFF82C0307
:104C90000068C94901F0F8F9C8490860C8480078B7
:104CA000401CC7490870C6480078012840F0808041
:104CB00000F004FEADF8020000F005FEADF80000C3
:104CC000C048D0E90023BDF90200C11710185941AE
:104CD000BC4AC2E90001BC48D0E90023BDF900008C
:104CE000C117101A73EB0101B74AC2E90001BDF9FF
:104CF0000200FEF7EBFE0022B44BFEF7ADFD00F024
:104D0000D1FFB3490860BDF900004042FEF7DEFE66
:104D10000022AE4BFEF7A0FD00F0C4FFAD490860D5
:104D2000AB480168AB48006801F02CFA5FF08041A5
:104D300001F0AAF9A849086000F0CAFDA648006879
:104D400000F0F8FFA54AA64BFEF7B4FC04000D00E6
:104D5000A448006800F0EEFF5FF03332A24BFEF78C
:104D6000A9FC22002B00FEF7C9FF00F09BFF9A4927
:104D70000860994800689B490860310096480068BF
:104D800001F077FA01F044F99849088097480088C3
:104D900097490988401A974908809548008895499D
:104DA000B1F900100A2291FBF2F10818924908802B
:104DB0008348007802280BD18D4800888D49B1F9CD
:104DC000001049000A2291FBF2F108188A49088074
:104DD0007B48007803280DD1854800888549B1F9C2
:104DE0000010032211FB02F10A2291FBF2F10818D4
:104DF000814908807248007804280BD17C480088DB
:104E00007C49B1F9001089000A2291FBF2F10818DF
:104E1000794908806A48007805280DD174480088CF
:104E20007449B1F90010052211FB02F10A2291FB2D
:104E3000F2F10818704908806148007806280DD101
:104E40006B4800886B49B1F90010062211FB02F192
:104E50000A2291FBF2F10818674908805848007847
:104E600007280DD1624800886249B1F90010072275
:104E700011FB02F10A2291FBF2F108185E49088049
:104E80004F48007808280BD1594800885949B1F992
:104E90000010C9000A2291FBF2F108185649088057
:104EA0004748007809280DD1514800885149B1F987
:104EB0000010092211FB02F10A2291FBF2F10818FD
:104EC0004D4908803E4800780A2814D100203C490A
:104ED0000870474800884749B1F900100A2211FBC1
:104EE00002F10A2291FBF2F10818434908803F4879
:104EF00000883F49088041480078401C3F490870BD
:104F00003E48007802280AD100203C4908705F2101
:104F10003B48007800B201F0DEF93A4908800021F0
:104F20000C0026480168384801F02CF9210001F0F6
:104F30006BF9404235490880344800882E49098879
:104F4000081830490988081800B200F0FBFA2F4809
:104F500000882949098808182A490988401A00B296
:104F600000F028FBBDE8F18FF80DFF1F05A3923A72
:104F7000019D3340C0FFDF40240EFF1F280EFF1F9E
:104F800000406F402C0EFF1FCB67791EDCA54C4004
:104F9000340EFF1F380EFF1F0AD7A33B080EFF1F5A
:104FA000180EFF1F1C0EFF1F200EFF1F300EFF1FCD
:104FB0007B14AE47E17A843F000020413C0EFF1F86
:104FC000CFA1FF1FE80DFF1FF00DFF1F00001440D1
:104FD000400EFF1F440EFF1F480EFF1F9A9999991C
:104FE0009999D93F4C0EFF1F3333E33FC0A1FF1FF8
:104FF000BEA1FF1FC2A1FF1FC4A1FF1FCEA1FF1FA3
:10500000E8A1FF1FC6A1FF1F00001041BCA1FF1FA8
:1050100010B504004FF4007094FBF0F101FB104157
:10502000002903D01E210B48FDF79BF90A480460B4
:1050300010BD38B504000D000748006807498842D4
:1050400003D030210348FDF78CF9044864B240F8DE
:10505000245031BD247D000008ED00E00000FF1F5A
:1050600038B504000D00002D03D122214F48FDF773
:1050700078F94F48006850F400004D49086000205E
:105080004C490860681E4C4964B2220150504A489D
:1050900064B210EB0410C06850F00100464964B2DD
:1050A00011EB0411C860444864B210EB041080682E
:1050B00040084000404964B211EB041188600320AD
:1050C0003D4964B211EB0411886031BD384909686B
:1050D00051F40001364A116036490968890889008F
:1050E000344A1160344940B211EB00118968490813
:1050F0004900314A40B212EB001291605FF0FF317B
:105100002D4A40B2030199502B4940B211EB0011D6
:10511000C96851F00101284A40B212EB0012D16077
:10512000254940B211EB0011896849084900224A1B
:1051300040B212EB0012916001211F4A40B212EB03
:1051400000129160704701005FF0FF301A4B49B2C6
:1051500013EB01135B68C01A0200174849B210EB49
:105160000110C068C0071AD5134849B210EB0110EE
:10517000C06850F00100104B49B213EB0113D86026
:105180000D4849B210EB01108068400840000A4BFE
:1051900049B213EB011398605FF0FF3004E012F1A5
:1051A000010F00D1521E100070470000747C0000F7
:1051B0003C80044000700340007103402DE9F04F33
:1051C00085B0040064200500EDB2B02D80F2868029
:1051D0000020824600208346002080460020814631
:1051E00000200700FFB2502F36DA00200600F6B28A
:1051F000BC2E2FDAFFB2BC2000FB0740F6B2305CB9
:10520000EDB2A84212D25FF07E50514600F0BAFFD4
:105210008246FFB2BC2000FB0740F6B2305C00F0D3
:1052200023FF414600F0AEFF804611E05FF07E5064
:10523000594600F0A7FF8346FFB2BC2000FB0740A1
:10524000F6B2305C00F010FF494600F09BFF81464B
:10525000B61CCCE7BF1CC5E74046514600F014FF22
:1052600080464846594600F00FFF814650468E4919
:1052700000F00AFF8D4900F05FFE824658468A49D9
:1052800000F002FF894900F057FE83465046594618
:1052900000F052FE00904046494600F0D9FD0099CA
:1052A00000F04AFE00904046494600F0D1FD0099CA
:1052B00000F042FE0290EDB2642D04D102980390FA
:1052C0008DF8045008E00398029900F00BF903D21E
:1052D000029803908DF80450AD1C75E79DF804000A
:1052E00005B0BDE8F08F70B4002200230C0000254B
:1052F0002A00D2B2502A1ADA00252B00DBB2BC2BCE
:1053000013DAD2B2BC2505FB0205DBB25D5D257068
:10531000674D2D782678B54202D2FF25257001E031
:1053200000252570641C5B1CE8E7521CE1E770BC9B
:105330007047F0B4049C00260E7000261E700126F3
:105340003500EDB2472D2BDA0E78002E0ED1EDB2DE
:10535000461B96F85D60EDB2471B97F85E70BE4243
:1053600004D0D5F15D06167001260E701E78002E51
:105370000ED1EDB22E1896F85D60EDB22F1897F8A9
:105380005E70BE4204D015F15E06267001261E70C6
:105390000E78012E02D11E78012E01D06D1CD0E7AF
:1053A0000E78002E01D1002616701E78002E01D135
:1053B000BB262670F0BC704770B4030000200C00C0
:1053C000E4B2D2B2944212D3E4B2BC2505FB043558
:1053D00095F85D50E4B2BC2606FB043696F81961D8
:1053E000B54202D00125280001E0641EE8E7C0B202
:1053F00070BC70472DE9F04F85B004000D00160019
:105400001F00EDB2681C00F025FE0290E4B2D4F15A
:10541000500000F01FFE8346FFB2781C00F01AFE19
:105420000190F6B2D6F1500000F014FE8246EDB2C3
:10543000FFB2BD4227D05846514600F009FD00900A
:105440000298019900F004FD0100009800F01CFE94
:105450000390039800F06EFC00F096FF00F022FC31
:1054600081461448494600F067FD00F063FC124A8B
:10547000124BFEF7F1F900F015FC8146484600F0AA
:10548000C7FD80460AE05046594600F02BF803D28B
:105490007FF05900804601E05A208046404640B2E5
:1054A00005B0BDE8F08F00000000BC4200002042C3
:1054B0001004FF1F000034437FBDC282FB2109405E
:1054C0004FF0807C1CEB400F94BF1CEB410F05E0BC
:1054D00040EA010C5FEA4C0C01D28142704718BFD0
:1054E000884270474FF0807C1CEB400F94BF1CEB50
:1054F000410F05E040EA010C5FEA4C0C01D2884202
:10550000704718BF8142704780B5002342F2107285
:105510000421002001F00EF8002342F21072052150
:10552000002001F007F8002342F21072062100204B
:1055300001F000F8002342F210720721002000F071
:10554000F9FF01BD10B5040024B2B4F5617F02DD9E
:105550004FF46170040024B214F5617F01DA314820
:10556000040024B2012C0BDB00220421002001F0F6
:10557000A9F824B222000521002001F0A3F818E0C8
:1055800024B2002C0BD524B262420421002001F089
:1055900099F800220521002001F094F809E000228A
:1055A0000421002001F08EF800220521002001F0E6
:1055B00089F810BD10B5040024B2B4F5617F02DD96
:1055C0004FF46170040024B214F5617F01DA1548CC
:1055D000040024B2012C0BDB00220621002001F084
:1055E00071F824B222000721002001F06BF818E0C6
:1055F00024B2002C0BD524B262420621002001F017
:1056000061F800220721002001F05CF809E0002287
:105610000621002001F056F800220721002001F0A9
:1056200051F810BD7CFCFFFF2DE9F84380460C00CB
:105630005FEA981010F00700C0B25FEA40194046D8
:10564000103810F03F00C0B2C000050015EB090093
:105650000700E4B217EBC400401E0600F6B2FFB22A
:10566000BE420DD3002200213800C0B2FCF7EAFC94
:105670004FF481713800C0B2FCF7DEFD7F1CEDE70E
:10568000BDE8F1832DE9F84F04000D0016001F005E
:105690009DF92880DDF82C90DDF830A04FFA88F8CD
:1056A000B8F1000F02D15FF0010B11E04FFA88F85A
:1056B000B8F1010F02D15FF0020B09E04FFA88F850
:1056C000B8F1020F02D15FF0040B01E05FF0100BA4
:1056D0004FFA88F8B8F1000F05D16748854202D328
:1056E0006648A84221D24FFA88F8B8F1010F09D1D3
:1056F0006148854206D36248A84203D315F00300EF
:10570000032812D14FFA88F8B8F1020F09D15A488C
:10571000854206D35B48A84203D315F00300002856
:1057200003D061215848FCF71CFEB9F5004F03D3A4
:1057300063215548FCF715FE5448006850F00200FC
:10574000524908605248006850F002005049086011
:10575000504864B261010D5064B2600100F18040B4
:1057600010F510400661002064B2610101F1804132
:1057700011F5104188805FFA8BFB64B2600100F183
:10578000804010F51040A0F814B04FFA88F85FEA96
:10579000082010F4E0604FFA88F818F00701084379
:1057A00064B2610101F1804111F51041C8804846A1
:1057B0004004400C64B2610101F1804111F51041D7
:1057C000C88248464004400C64B2610101F1804146
:1057D00011F51041C8833048006830F080002E4930
:1057E00008605FFA8BFB64B2600100F1804010F545
:1057F0001040C0F808B0002064B2610101F180419E
:1058000011F51041C8605FEACA7002D4D9F10000F6
:1058100000E0002064B2610101F1804111F5104106
:1058200088614CF20A0064B2610101F1804111F516
:1058300010418883FFB27809313050F08000174959
:1058400064B2605416493800C0B2FCF7F5FC594602
:10585000C9B22800FFF7E8FE124800680121A14004
:10586000884310490860104800680121A14008439E
:105870000D490860BDE8F18F10F00F4013F10F40A3
:1058800012F10F4010F10F40147B000040800440E3
:105890003C80044000900040008000400010024026
:1058A000000101000C8000402480004080B50120F0
:1058B00000F07CFF022000F079FF01BD80B50120DF
:1058C00000F0F7FF02BD80B5022000F0F2FF02BD3C
:1058D00080B5012001F003F8022001F000F801BDBD
:1058E00080B5012201218120FCF7ACFB01220121BE
:1058F0008020FCF7A7FB01BD80B501218120FCF7CA
:1059000021FC01218020FCF71DFC00BF002180202C
:10591000FCF718FC00BF00218120FCF713FC01BD3F
:1059200070B5040000200600F6B2082E18DAE4B2C2
:1059300014FA06F0000604D501218020FCF702FCD1
:1059400003E000218020FCF7FDFB01218120FCF712
:10595000F9FB00BF00218120FCF7F4FB761CE3E794
:1059600000218020FCF7C5FB01218120FCF7EAFB28
:1059700000BF8020FCF73DFC012802D1002005007B
:1059800001E00120050000218120FCF7DBFB012163
:105990008020FCF7AEFB00BFEDB2002D01D100204E
:1059A00000E0012070BD000038B500218020FCF728
:1059B000A0FB00200500EDB2082D13DA00218120A4
:1059C000FCF7C0FB00BF01218120FCF7BBFB00BF3F
:1059D00064008020FCF70DFC012800D1641C00BF8E
:1059E0006D1CE8E700218120FCF7ACFB0121802041
:1059F000FCF77FFB00218020FCF7A4FB0121812024
:105A0000FCF7A0FB00BF00218120FCF79BFB2000DE
:105A1000C0B232BD38B500218020FCF76AFB0020FF
:105A20000500EDB2082D13DA00218120FCF78AFB76
:105A300000BF01218120FCF785FB00BF64008020AE
:105A4000FCF7D7FB012800D1641C00BF6D1CE8E700
:105A500000218120FCF776FB01218020FCF749FB27
:105A600001218020FCF76EFB01218120FCF76AFBFD
:105A700000BF00218120FCF765FB2000C0B232BDD1
:105A800080B500218020FCF75DFB01218120FCF71F
:105A900059FB00BF01218020FCF754FB00BF01BD72
:105AA00080B5FFF71DFFFFF727FFD020FFF738FF76
:105AB0006B20FFF735FF0020FFF732FFFFF7E0FF15
:105AC00001BD1FB50400FFF717FFD020FFF728FF27
:105AD0003B20FFF725FFFFF70FFFD120FFF720FF47
:105AE000FFF762FF8DF80000FFF75EFF8DF8010001
:105AF0009DF800009DF8011051EA00202080FFF77A
:105B000053FF8DF80200FFF74FFF8DF803009DF85B
:105B100002009DF8031051EA00206080FFF744FF67
:105B20008DF80400FFF740FF8DF805009DF8040094
:105B30009DF8051051EA0020A080FFF735FF8DF891
:105B40000600FFF731FF8DF807009DF806009DF86D
:105B5000071051EA0020E080FFF726FF8DF80800CB
:105B6000FFF722FF8DF809009DF808009DF8091045
:105B700051EA00202081FFF717FF8DF80A00FFF798
:105B800013FF8DF80B009DF80A009DF80B1051EAE9
:105B900000206081FFF708FF8DF80C00FFF73AFF47
:105BA0008DF80D009DF80C009DF80D1051EA0020B5
:105BB000A081FFF765FF1FBD30B58BB0040000A8C2
:105BC0001C2100F0ADFE002005002DB2B5F57A7F56
:105BD0002EDA07A8FFF775FF0098BDF91C1000FA30
:105BE00081F000900198BDF91E1000FA81F001903B
:105BF0000298BDF9201000FA81F002900398BDF9D7
:105C0000221000FA81F003900498BDF9241000FAE4
:105C100081F004900598BDF9261000FA81F00590F6
:105C20000698BDF9281000FA81F006906D1CCCE7AB
:105C300000984FF47A7190FBF1F0009001984FF4C6
:105C40007A7190FBF1F0019002984FF47A7190FB19
:105C5000F1F0029003984FF47A7190FBF1F0039009
:105C600004984FF47A7190FBF1F0049005984FF48A
:105C70007A7190FBF1F0059006984FF47A7190FBE1
:105C8000F1F0069000982080019860800298A08032
:105C90000398E08004982081059860810698A0818F
:105CA0000BB030BD4FEAF17CBCF1E04C2CBFBCF531
:105CB000001F11E05FEA4C0C34BFBCF17F5F2EE0A7
:105CC0005FEA9C0C4FEA0C1C4FEA3C0CC10071F1DE
:105CD00000414CEB50707047C90241EA5051C0027C
:105CE00018BF41F0010141F000414FEA6C50C0F192
:105CF0000900212810D240EACC7CCCF1200C11FA0A
:105D00000CF070F10040CCF1200C21FA0CF00CF0FA
:105D1000004C40EB0C0070474FEACC7070474900D4
:105D200011F5001F04D84FEACC10FF30C0057047B2
:105D3000C81770475FF0FF0C1CEAD05114BF6145D3
:105D400006E0C110400721F0E04101F160517047C9
:105D500079B900F0004100020AD0B0FA80FC00FAE4
:105D60000CF001F16051A1EB0C5101EBD021400589
:105D7000704741020CBF40F4E0016FF000010020C9
:105D80007047000038B50FB4DDE9020100F0CBFD2B
:105D90000546DDE9000100F0C6FD0246012DB8BF51
:105DA000012A2CDA0198002807D5DDE9000181F0ED
:105DB0000041CDE90001082400E0002403980028F8
:105DC00007D5DDE9020181F00041CDE9020184F04F
:105DD0000604DDE90201DDE90023FDF753FC02D2F0
:105DE000FDF73AFD27E0002D06D5DDE90001DDE9EC
:105DF0000223FDF731FD20E0002000211DE0022AF2
:105E000008BFDDE900011ED0022D08BFDDE9020157
:105E100019D09542019B07BF00200C4900200021AA
:105E2000002B039B4CBF08240024002B48BF84F0A8
:105E30000604012A01D184F00204224605B0BDE81F
:105E4000304000F089BD05B030BD00BF0000F03F1C
:105E500090EA010F44BF81F0004100F09BB900BF00
:105E6000431A4FF000423EBF5340C01AC91800BF4A
:105E7000D3095FEAD05C13EB400F34BFB3EB410FA3
:105E800040E07CEBD1530CD342EA012122D8D1EB84
