:10000000F8FF00201104000037240000372400000E
:100010003724000037240000372400003724000074
:100020003724000037240000372400003724000064
:100030003724000037240000372400003724000054
:100040003724000037240000372400003724000044
:10040000FFFFFFFFFFFFFFFFFFFFFFFFFEFFFFFFFD
:1004100062B608F04FF8FEE710B500200400E4B221
:10042000082C08DA0022012114F14000C0B201F0CA
:1004300009FE641CF3E700220121492001F002FEBD
:10044000012201214A2001F0FDFD012201214B2062
:1004500001F0F8FD002201214C2001F0F3FD002203
:1004600001214D2001F0EEFD4FF4A071492001F073
:10047000E3FE4FF4A0714A2001F0DEFE4FF4A071BC
:100480004B2001F0D9FE4FF4A0714C2001F0D4FEB6
:100490000020DFF8241D08600120DFF81C1D086023
:1004A0004FF4FA7001F020FF0120DFF8101D086002
:1004B0000020DFF80C1D08600020DFF8081D086030
:1004C0001120DFF8041D08700020DFF8001D08600F
:1004D0000120DFF8F81C08600120DFF8E81C086044
:1004E000782001F001FF0120DFF8D01C0860002017
:1004F000DFF8CC1C08600020DFF8C81C0860B120C1
:10050000DFF8C41C08700020DFF8C01C0860012060
:10051000DFF8B81C08600120DFF8A81C0860012083
:10052000DFF8981C08600120DFF8941C08600020A8
:10053000DFF8901C08600520DFF88C1C0870002094
:10054000DFF8881C08600120DFF8801C08600120AB
:10055000DFF8701C08600120DFF8601C08600120D3
:10056000DFF85C1C08600020DFF8581C08603A20A7
:10057000DFF8541C08700020DFF8501C08600120D0
:10058000DFF8481C08600120DFF8381C08600120F3
:10059000DFF8281C08600120DFF8241C0860002018
:1005A000DFF8201C08603A20DFF81C1C08700020CF
:1005B000DFF8181C08600120DFF8101C086001201B
:1005C000DFF8001C08600120DFF8F01B0860002045
:1005D000DFF8EC1B08600020DFF8E81B0860B220A1
:1005E000DFF8E41B08700020DFF8E01B0860012042
:1005F000DFF8D81B08600120DFF8C81B0860012065
:10060000DFF8B81B08600120DFF8B41B0860002089
:10061000DFF8B01B08600520DFF8AC1B0870002075
:10062000DFF8A81B08600120DFF8A01B086001208C
:10063000DFF8901B08600120DFF8801B08600120B4
:10064000DFF87C1B08600020DFF8781B08603A2088
:10065000DFF8741B08700020DFF8701B08600120B1
:10066000DFF8681B08600120DFF8581B08600120D4
:10067000DFF8481B08600120DFF8441B08600020F9
:10068000DFF8401B08603A20DFF83C1B08700020B0
:10069000DFF8381B08600120DFF8301B08600120FC
:1006A000DFF8201B08600120DFF8101B0860002025
:1006B000DFF80C1B08600020DFF8081B0860B3207F
:1006C000DFF8041B08700020DFF8001B0860012021
:1006D000DFF8F81A08600120DFF8E81A0860012046
:1006E000DFF8D81A08600120DFF8D41A086000206B
:1006F000DFF8D01A08600520DFF8CC1A0870002057
:10070000DFF8C81A08600120DFF8C01A086001206D
:10071000DFF8B01A08600120DFF8A01A0860012095
:10072000DFF89C1A08600020DFF8981A08603A2069
:10073000DFF8941A08700020DFF8901A0860012092
:10074000DFF8881A08600120DFF8781A08600120B5
:10075000DFF8681A08600120DFF8641A08600020DA
:10076000DFF8601A08603A20DFF85C1A0870002091
:10077000DFF8581A08600120DFF8501A08600120DD
:10078000DFF8401A08600120DFF8301A0860012005
:10079000DFF82C1A08600020DFF8281A086005200E
:1007A000DFF8241A08700020DFF8201A0860012002
:1007B000DFF8181A08600120DFF8081A0860012025
:1007C000DFF8F81908600120DFF8F419086000204C
:1007D000DFF8F01908603A20DFF8EC190870002003
:1007E000DFF8E81908600120DFF8E019086001204F
:1007F000DFF8D01908600120DFF8C0190860012077
:10080000DFF8BC1908600020DFF8B81908603A204A
:10081000DFF8B41908700020DFF8B0190860012073
:10082000DFF8A81908600120DFF898190860012096
:10083000DFF8881908600020DFF8841908600020BC
:10084000DFF880190860B420DFF87C1908700020F8
:10085000DFF8781908600120DFF8701908600120BE
:10086000DFF8601908600120DFF8501908600120E6
:10087000DFF84C1908600020DFF8481908600720ED
:10088000DFF8441908700020DFF8401908600120E3
:10089000DFF8381908600120DFF828190860012006
:1008A000DFF8181908600020DFF81419086000202C
:1008B000DFF810190860C020DFF80C19087000205C
:1008C000DFF8081908600120DFF80019086001202E
:1008D000DFF8F01808600120DFF8E0180860012058
:1008E000DFF8DC1808600020DFF8D818086028203E
:1008F000DFF8D41808700020DFF8D0180860012055
:10090000DFF8C81808600120DFF8B8180860012077
:10091000DFF8A81808600120DFF8A418086000209C
:10092000DFF8A01808600820DFF89C180870002085
:10093000DFF8981808600120DFF89018086001209F
:10094000DFF8801808600120DFF8701808600120C7
:10095000DFF86C1808600020DFF868180860842051
:10096000DFF8641808700020DFF8601808600120C4
:10097000DFF8581808600120DFF8481808600120E7
:10098000DFF8381808600020DFF83418086000200D
:10099000DFF830180860C120DFF82C18087000203C
:1009A000DFF8281808600120DFF82018086001200F
:1009B000DFF8101808600120DFF800180860012037
:1009C000DFF8FC1708600020DFF8F8170860C02087
:1009D000DFF8F41708700020DFF8F0170860012036
:1009E000DFF8E81708600120DFF8D8170860012059
:1009F000DFF8C81708600020DFF8C417086000207F
:100A0000DFF8C0170860C220DFF8BC1708700020AC
:100A1000DFF8B81708600120DFF8B0170860012080
:100A2000DFF8A01708600120DFF8901708600120A8
:100A3000DFF88C1708600020DFF8881708600C20AA
:100A4000DFF8841708700020DFF8801708600120A5
:100A5000DFF8781708600120DFF8681708600120C8
:100A6000DFF8581708600120DFF8541708600020ED
:100A7000DFF8501708600020DFF84C1708700020DE
:100A8000DFF8481708600120DFF8401708600120F0
:100A9000DFF8301708600120DFF820170860002019
:100AA000DFF81C1708600020DFF818170860C32063
:100AB000DFF8141708700020DFF810170860012015
:100AC000DFF8081708600120DFF8F8160860012039
:100AD000DFF8E81608600120DFF8E416086000205F
:100AE000DFF8E01608608C20DFF8DC1608700020C4
:100AF000DFF8D81608600120DFF8D0160860012062
:100B0000DFF8C01608600120DFF8B0160860012089
:100B1000DFF8AC1608600020DFF8A81608602A206D
:100B2000DFF8A41608700020DFF8A0160860012086
:100B3000DFF8981608600120DFF8881608600120A9
:100B4000DFF8781608600020DFF8741608600020CF
:100B5000DFF870160860C420DFF86C1608700020FB
:100B6000DFF8681608600120DFF8601608600120D1
:100B7000DFF8501608600120DFF8401608600120F9
:100B8000DFF83C1608600020DFF8381608608A207D
:100B9000DFF8341608700020DFF8301608600120F6
:100BA000DFF8281608600120DFF818160860012019
:100BB000DFF8081608600120DFF80416086000203E
:100BC000DFF800160860EE20DFF8FC150870002042
:100BD000DFF8F81508600120DFF8F0150860012043
:100BE000DFF8E01508600120DFF8D015086000206C
:100BF000DFF8CC1508600020DFF8C8150860C520B4
:100C0000DFF8C41508700020DFF8C0150860012067
:100C1000DFF8B81508600120DFF8A815086001208A
:100C2000DFF8981508600120DFF8941508600020AF
:100C3000DFF8901508600C20DFF88C150870002094
:100C4000DFF8881508600120DFF8801508600120B2
:100C5000DFF8701508600120DFF8601508600020DB
:100C6000DFF85C1508600020DFF858150860E02008
:100C7000DFF8541508700020DFF8501508600120D7
:100C8000DFF8481508600120DFF8381508600120FA
:100C9000DFF8281508600120DFF82415086000201F
:100CA000DFF8201508600520DFF81C15087000200B
:100CB000DFF8181508600120DFF810150860012022
:100CC000DFF8001508600120DFF8F014086001204B
:100CD000DFF8EC1408600020DFF8E81408601A2040
:100CE000DFF8E41408700020DFF8E0140860012049
:100CF000DFF8D81408600120DFF8C814086001206C
:100D0000DFF8B81408600120DFF8B4140860002090
:100D1000DFF8B01408600C20DFF8AC140870002075
:100D2000DFF8A81408600120DFF8A0140860012093
:100D3000DFF8901408600120DFF8801408600120BB
:100D4000DFF87C1408600020DFF8781408600E20BB
:100D5000DFF8741408700020DFF8701408600120B8
:100D6000DFF8681408600120DFF8581408600120DB
:100D7000DFF8481408600120DFF844140860002000
:100D8000DFF8401408603A20DFF83C1408700020B7
:100D9000DFF8381408600120DFF830140860012003
:100DA000DFF8201408600120DFF81014086001202B
:100DB000DFF80C1408600020DFF808140860342005
:100DC000DFF8041408700020DFF800140860012028
:100DD000DFF8F81308600120DFF8E813086001204D
:100DE000DFF8D81308600120DFF8D4130860002072
:100DF000DFF8D01308602D20DFF8CC130870002036
:100E0000DFF8C81308600120DFF8C0130860012074
:100E1000DFF8B01308600120DFF8A013086001209C
:100E2000DFF89C1308600020DFF8981308602F207B
:100E3000DFF8941308700020DFF890130860012099
:100E4000DFF8881308600120DFF8781308600120BC
:100E5000DFF8681308600120DFF8641308600020E1
:100E6000DFF8601308602D20DFF85C1308700020A5
:100E7000DFF8581308600120DFF8501308600120E4
:100E8000DFF8401308600120DFF83013086001200C
:100E9000DFF82C1308600020DFF8281308602A20F0
:100EA000DFF8241308700020DFF820130860012009
:100EB000DFF8181308600120DFF80813086001202C
:100EC000DFF8F81208600120DFF8F4120860002053
:100ED000DFF8F01208602F20BB4908700020BB49E2
:100EE00008600120B94908600120B6490860012066
:100EF000B24908600120B24908600020B149086089
:100F00003C20B14908700020B04908600120AF4979
:100F100008600120AB4908600120A8490860012051
:100F2000A74908600020A74908600020A64908706A
:100F30000020A64908600120A44908600120A149B9
:100F4000086001209D49086001209D49086000203B
:100F50009C49086001209C49087000209B4908605A
:100F600001209A49086001209649086001209349B0
:100F70000860012092490860002092490860022020
:100F80009149087000209149086001208F4908604C
:100F900001208C49086001208849086001208849A7
:100FA00008600020874908601020874908700020E9
:100FB0008649086001208549086001208149086050
:100FC00001207E49086000207D49086000207D499D
:100FD0000860E1207C49087000207C4908600120FD
:100FE0007A49086001207749086001207349086048
:100FF000012073490860002072490860042072498A
:1010000008700020714908600120704908600120C3
:101010006C4908600120694908600120684908603E
:101020000020684908601B20674908700020674954
:1010300008600120654908600120624908600120BC
:101040005E49086001205E49086000205D49086033
:101050000D205D49087000205C49086001205B4953
:1010600008600120574908600120544908600120A8
:10107000534908600020534908600E205249087007
:1010800000205249086001205049086001204D4964
:101090000860012049490860012049490860002092
:1010A000484908602D2048490870002047490860D9
:1010B00001204649086001204249086001203F495B
:1010C000086001203E49086000203E490860292050
:1010D0003D49087000203D49086001203B490860F7
:1010E0000120384908600120344908600120344952
:1010F000086000203349086024203349087000202C
:101100003249086001203149086001202D490860FA
:1011100001202A4908600120294908600020294946
:10112000086029202849087000202849086001200B
:101130002649086001202349086001201F490860F2
:1011400001201F49086000201E49086028201E4910
:10115000087000201D49086001201C49086001201A
:1011600018490860012015490860012014490860E9
:1011700000201449086026201349087000201349F4
:10118000086001201149086001200E490860012013
:101190000A49086001200A490860002009490860DE
:1011A00031200949087000200849086001200749DA
:1011B0000860012003490BE03410FE432810FE4371
:1011C0003010FE432C10FE4380F00F402410FE43ED
:1011D00008600120DFF80C1C08600120DFF8081C03
:1011E00008600020DFF8041C08603B20DFF8001CCA
:1011F00008700020DFF8FC1B08600120DFF8F41BFA
:1012000008600120DFF8E41B08600120DFF8D41B30
:1012100008600120DFF8D01B08600020DFF8CC1B3D
:1012200008600020DFF8C81B08700020DFF8C41B2E
:1012300008600120DFF8BC1B08600120DFF8AC1B50
:1012400008600120DFF89C1B08600120DFF8981B74
:1012500008600020DFF8941B08600020DFF8901B76
:1012600008700020DFF88C1B08600120DFF8841B69
:1012700008600120DFF8741B08600120DFF8641BA0
:1012800008600120DFF8601B08600020DFF85C1BAD
:1012900008600320DFF8581B08700020DFF8541B9B
:1012A00008600120DFF84C1B08600120DFF83C1BC0
:1012B00008600120DFF82C1B08600120DFF8281BE4
:1012C00008600020DFF8241B08601220DFF8201BD4
:1012D00008700020DFF81C1B08600120DFF8141BD9
:1012E00008600120DFF8041B08600120DFF8F41A11
:1012F00008600020DFF8F01A08600020DFF8EC1A20
:1013000008603A20DFF8E81A08700020DFF8E41AD5
:1013100008600120DFF8DC1A08600120DFF8CC1A31
:1013200008600120DFF8BC1A08600120DFF8B81A55
:1013300008600020DFF8B41A08600520DFF8B01A52
:1013400008700020DFF8AC1A08600120DFF8A41A4A
:1013500008600120DFF8941A08600120DFF8841A81
:1013600008600020DFF8801A08600020DFF87C1A8F
:1013700008602920DFF8781A08700020DFF8741A56
:1013800008600120DFF86C1A08600120DFF85C1AA1
:1013900008600120DFF84C1A08600020DFF8481AC6
:1013A00008600020DFF8441A08602C20DFF8401A9B
:1013B00008700020DFF83C1A08600120DFF8341ABA
:1013C00008600120DFF8241A0860DFF8540C007868
:1013D00000F001F810BD10B50400E4B2042C04DBE9
:1013E000C821DFF8400C00F0BCFFDFF8340C0470BB
:1013F000E4B2002C09D0022C00F0B982C0F05E816A
:10140000032C00F0EA8300F0EBBC0120DFF8D419D4
:1014100008600020DFF8D01908600020DFF8CC1940
:1014200008603620DFF8C81908700020DFF8C419FA
:1014300008600120DFF8BC1908600120DFF8AC1952
:1014400008600120DFF89C1908600120DFF8981976
:1014500008600020DFF894190860C820DFF89019B0
:1014600008700020DFF88C1908600120DFF884196B
:1014700008600120DFF8741908600120DFF86419A2
:1014800008600020DFF8601908600020DFF85C19B0
:1014900008602A20DFF8581908700020DFF8541976
:1014A00008600120DFF84C1908600120DFF83C19C2
:1014B00008600120DFF82C1908600120DFF82819E6
:1014C00008600020DFF8241908600020DFF82019E8
:1014D00008700020DFF81C1908600120DFF81419DB
:1014E00008600120DFF8041908600120DFF8F41813
:1014F00008600120DFF8F01808600020DFF8EC1821
:1015000008600220DFF8E81808700020DFF8E4180F
:1015100008600120DFF8DC1808600120DFF8CC1833
:1015200008600120DFF8BC1808600120DFF8B81857
:1015300008600020DFF8B41808600020DFF8B01859
:1015400008700020DFF8AC1808600120DFF8A4184C
:1015500008600120DFF8941808600120DFF8841883
:1015600008600120DFF8801808600020DFF87C1890
:1015700008608120DFF8781808700020DFF8741800
:1015800008600120DFF86C1808600120DFF85C18A3
:1015900008600120DFF84C1808600020DFF84818C8
:1015A00008600020DFF8441808602B20DFF840189E
:1015B00008700020DFF83C1808600120DFF83418BC
:1015C00008600120DFF8241808600120DFF81418F3
:1015D00008600120DFF8101808600020DFF80C1800
:1015E00008600020DFF8081808700020DFF80418F1
:1015F00008600120DFF8FC1708600120DFF8EC1715
:1016000008600120DFF8DC1708600120DFF8D81738
:1016100008600020DFF8D41708600320DFF8D01737
:1016200008700020DFF8CC1708600120DFF8C4172D
:1016300008600120DFF8B41708600120DFF8A41764
:1016400008600120DFF8A01708600020DFF89C1771
:1016500008600020DFF8981708700020DFF8941762
:1016600008600120DFF88C1708600120DFF87C1784
:1016700008600120DFF86C1708600120DFF86817A8
:1016800008600020DFF8641708608220DFF8601728
:1016900008700020DFF85C1708600120DFF854179D
:1016A00008600120DFF8441708608020DFF878190F
:1016B00008808020DFF87419088091E30120DFF8AA
:1016C000241708600020DFF8201708600020DFF8EA
:1016D0001C1708603620DFF8181708700020DFF8A4
:1016E000141708600120DFF80C1708600120DFF8EC
:1016F000FC1608600120DFF8EC1608600120DFF816
:10170000E81608600020DFF8E4160860A820DFF87B
:10171000E01608700020DFF8DC1608600120DFF812
:10172000D41608600120DFF8C41608600120DFF835
:10173000B41608600020DFF8B01608600020DFF85B
:10174000AC1608602A20DFF8A81608700020DFF821
:10175000A41608600120DFF89C1608600120DFF85D
:101760008C1608600120DFF87C1608600120DFF885
:10177000781608600020DFF8741608600020DFF893
:10178000701608700020DFF86C1608600120DFF882
:10179000641608600120DFF8541608600120DFF8A5
:1017A000441608600120DFF8401608600020DFF8CA
:1017B0003C1608600320DFF8381608700020DFF8B8
:1017C000341608600120DFF82C1608600120DFF8CD
:1017D0001C1608600120DFF80C1608600120DFF8F5
:1017E000081608600020DFF8041608600020DFF803
:1017F000001608700020DFF8FC1508600120DFF8F3
:10180000F41508600120DFF8E41508600120DFF816
:10181000D41508600120DFF8D01508600020DFF83B
:10182000CC1508608220DFF8C81508700020DFF8AA
:10183000C41508600120DFF8BC1508600120DFF83E
:10184000AC1508600120DFF89C1508600020DFF867
:10185000981508600020DFF8941508602B20DFF849
:10186000901508700020DFF88C1508600120DFF863
:10187000841508600120DFF8741508600120DFF886
:10188000641508600120DFF8601508600020DFF8AB
:101890005C1508600020DFF8581508700020DFF89C
:1018A000541508600120DFF84C1508600120DFF8AE
:1018B0003C1508600120DFF82C1508600120DFF8D6
:1018C000281508600020DFF8241508600220DFF8E2
:1018D000201508700020DFF81C1508600120DFF8D3
:1018E000141508600120DFF8041508600120DFF8F6
:1018F000F41408600120DFF8F01408600020DFF81D
:10190000EC1408600020DFF8E81408700020DFF80D
:10191000E41408600120DFF8DC1408600120DFF81F
:10192000CC1408600120DFF8BC1408600120DFF847
:10193000B81408600020DFF8B41408608120DFF8D4
:10194000B01408700020DFF8AC1408600120DFF844
:10195000A41408600120DFF8941408608020DFF8E8
:10196000C81608808020DFF8C416088038E20120FD
:10197000DFF8701408600020DFF86C1408600020A5
:10198000DFF8681408603620DFF86414087000205F
:10199000DFF8601408600120DFF8581408600120A7
:1019A000DFF8481408600120DFF8381408600120CF
:1019B000DFF8341408600020DFF8301408600820D5
:1019C000DFF82C1408700020DFF8281408600120CC
:1019D000DFF8201408600120DFF8101408600120EF
:1019E000DFF8001408600020DFF8FC130860002016
:1019F000DFF8F81308602A20DFF8F41308700020DD
:101A0000DFF8F01308600120DFF8E8130860012018
:101A1000DFF8D81308600120DFF8C8130860012040
:101A2000DFF8C41308600020DFF8C013086000204E
:101A3000DFF8BC1308700020DFF8B813086001203D
:101A4000DFF8B01308600120DFF8A0130860012060
:101A5000DFF8901308600120DFF88C130860002085
:101A6000DFF8881308600220DFF884130870002074
:101A7000DFF8801308600120DFF878130860012088
:101A8000DFF8681308600120DFF8581308600120B0
:101A9000DFF8541308600020DFF8501308600020BE
:101AA000DFF84C1308700020DFF8481308600120AD
:101AB000DFF8401308600120DFF8301308600120D0
:101AC000DFF8201308600120DFF81C1308600020F5
:101AD000DFF8181308608120DFF814130870002065
:101AE000DFF8101308600120DFF8081308600120F8
:101AF000DFF8F81208600120BA4908600020BA49EE
:101B000008600020B94908602B20B94908700020FE
:101B1000B84908600120B74908600120B34908604E
:101B20000120B04908600120AF4908600020AF499A
:101B300008600020AE4908700020AE49086001200E
:101B4000AC4908600120A94908600120A549086046
:101B50000120A54908600020A44908600320A44989
:101B600008700020A34908600120A24908600120F4
:101B70009E49086001209B49086001209A4908603D
:101B800000209A490860002099490870002099496E
:101B900008600120974908600120944908600120ED
:101BA0009049086001209049086000208F49086032
:101BB00082208F49087000208E49086001208D49DD
:101BC00008600120894908608020DFF85C140880E3
:101BD0008020DFF85814088002E101208149086064
:101BE0000020814908600020804908603620804933
:101BF000087000207F49086001207E4908600120AC
:101C00007A49086001207749086001207649086018
:101C100000207649086068207549087000207549E1
:101C200008600120734908600120704908600120A4
:101C30006C49086000206C49086000206B4908600E
:101C40002A206B49087000206A4908600120694910
:101C50000860012065490860012062490860012090
:101C600061490860002061490860002060490870EF
:101C700000206049086001205E49086001205B493E
:101C8000086001205749086001205749086000207A
:101C900056490860032056490870002055490860DD
:101CA00001205449086001205049086001204D4935
:101CB000086001204C49086000204C490860002061
:101CC0004B49087000204B490860012049490860D1
:101CD000012046490860012042490860012042492C
:101CE00008600020414908608220414908700020B6
:101CF0004049086001203F49086001203B490860D5
:101D00000120384908600020374908600020374921
:101D100008602B20364908700020364908600120F1
:101D20003449086001203149086001202D490860CC
:101D300001202D49086000202C49086000202C4912
:101D4000087000202B49086001202A490860012002
:101D500026490860012023490860012022490860C3
:101D600000202249086002202149087000202149F2
:101D7000086001201F49086001201C4908600120FB
:101D800018490860012018490860002017490860B8
:101D900000201749087000201649086001201549E5
:101DA000086001201149086001200E4908600120E7
:101DB0000D49086000200D49086081200C49087019
:101DC00000200C49086001200A49086001200749E9
:101DD0000860802094490880802094490880FFE7AB
:101DE00010BD00002810FE433010FE432C10FE43AF
:101DF00080F00F402410FE4303B489480078C007E8
:101E00000AD5BDF80000C01CADF80000BDF8020006
:101E1000801CADF8020009E0BDF80000801CADF8A0
:101E20000000BDF80200C01CADF80200012080498E
:101E3000086000207F49086000207F4908602A2050
:101E40007E49087000207E49086001207C490860B6
:101E50000120794908600120754908600120754911
:101E60000860002074490860BDF8000080B2000AD4
:101E700072490870002072490860012070490860AA
:101E800001206D4908600120694908600120694905
:101E90000860002068490860BDF8000067490870C4
:101EA00000206749086001206549086001206249F7
:101EB000086001205E49086001205E49086000203A
:101EC0005D490860BDF80000BDF8041011FA80F00B
:101ED000401E00125949087000205949086001202D
:101EE00057490860012054490860012050490860A2
:101EF00001205049086000204F490860BDF80000EB
:101F0000BDF804100818401E4C49087000204C49C8
:101F1000086001204A490860012047490860012003
:101F20004349086000204349086000204249086096
:101F30002B20424908700020414908600120404997
:101F4000086001203C4908600120394908600120EF
:101F500038490860002038490860BDF8020080B2A6
:101F6000000A3649087000203549086001203449CC
:101F7000086001203049086001202D4908600120D7
:101F80002C49086000202C490860BDF802002B494C
:101F9000087000202A4908600120294908600120B2
:101FA0002549086001202249086001202149086074
:101FB000002021490860BDF80200BDF8061011FAA2
:101FC00080F0401E00121D49087000201C49086066
:101FD00001201B49086001201749086001201449AD
:101FE0000860012013490860002013490860BDF80B
:101FF0000200BDF806100818401E104908700020A5
:102000000F49086001200E49086001200A49086054
:1020100002B0704704480088704704480088704741
:1020200003A2FF1F24860000D40BFF1FD60BFF1F47
:102030002810FE433010FE432C10FE4380F00F406A
:102040002410FE4370B504000D0016004FF480719B
:102050002000C0B200F0F0F86DB2002D11D174482C
:10206000E4B2611150F821007149E4B2621151F8F3
:1020700022104969012214F01F039A4091434161E3
:1020800036E06B48E4B2611150F821006849E4B2CF
:10209000621151F822104969012214F01F039A407D
:1020A00011434161F6B2002E11D16148E4B26111D1
:1020B00050F821000068012114F01F02914088436C
:1020C0005B49E4B2621151F82210086010E05848F0
:1020D000E4B2611150F821000068012114F01F02E0
:1020E000914008435249E4B2621151F8221008604D
:1020F00070BD30B449B2002911D14D4AC0B243116C
:1021000052F823204A4BC0B2441153F824305B6983
:10211000012410F01F05AC40A343536110E0444A72
:10212000C0B2431152F82320414BC0B2441153F8BE
:1021300024305B69012410F01F05AC402343536138
:1021400030BC704738B504000D003948E4B2611165
:1021500050F82100406914F01F010200CA40D00766
:1021600003D46321334800F0FCF8EDB2002D11D107
:102170002F48E4B2611150F821000068012114F0E9
:102180001F02914088432A49E4B2621151F822109B
:10219000086010E02648E4B2611150F821000068A0
:1021A000012114F01F02914008432149E4B2621159
:1021B00051F82210086031BD10B504001C48E4B28B
:1021C000611150F82100406914F01F010200CA405B
:1021D000D00703D47B21174800F0C3F81448E4B2B9
:1021E000611150F82100012114F01F029140C160DB
:1021F00010BD10B504000E48E4B2611150F8210082
:10220000406914F01F010200CA40D00703D58C2199
:10221000084800F0A6F80648E4B2611150F8210021
:10222000006914F01F010200CA4012F0010010BD45
:10223000300BFF1F8C87000010B4294A12684FF43E
:102240000073C0B24409A3401A43254B1A60254AC3
:10225000C0B2431152F82320012310F01F04A34001
:10226000C2F8A0301F4AC0B2431152F82320C0B2B6
:1022700010F01F0342F8231010BC704710B4184A26
:1022800012684FF40073C0B24409A3401A43144BC0
:102290001A60144AC0B2431152F82320012310F0EF
:1022A0001F04A340C2F8A03031F4E0610D4AC0B26F
:1022B000431152F82320C0B210F01F0352F823201C
:1022C00012F4E0621143074AC0B2431152F82320CE
:1022D000C0B210F01F0342F8231010BC704700007A
:1022E000388004408C0BFF1F80B200281BD00E49A1
:1022F000096851F001010C4A116000210B4A11607C
:1023000080B20C4908600521094A11600121074A81
:102310001160064909680906FBD50449096849089E
:102320004900024A116070473880044000000440B0
:102330000400044008000440DFF800F0510CFF1FC7
:10234000DFF800F0810CFF1FBFF34F8F4648006895
:1023500010F4E0604549084343490860BFF34F8FDC
:10236000FEE738B504000D00002000F08DF82A00CB
:1023700021003F4800F0C0F8002000F0A2F84FF420
:102380007A70FFF7B1FFF2E738B504000D002100C5
:1023900049B2042000F0CCF9200032BD10B5002471
:1023A000042000F0F1F9042000F024FA002841D1C3
:1023B000002000F069F8042000F01CFA012801D187
:1023C00001200400002000F07CF82A4800F094F876
:1023D0004FF4FA70FFF788FFE4B2012CEBD1042030
:1023E00000F008FA0028E6D1042000F003FA0028E3
:1023F00006D1002000F065F86420FFF775FFF3E7D1
:10240000042000F0F7F9012806D1002000F059F867
:102410003220FFF769FFF3E7174800F06DF8FFF788
:102420008BFF6420FFF760FF0020FFF789FFFFF7B5
:102430008BFFC0E710BD10B510480468012000F004
:1024400023F8012000F03DF80D48E4B20F2101FB14
:102450000402E4B221000B4800F04EF84FF47A7009
:10246000FFF742FFEDE700000CED00E00400FA0585
:102470004C890000008A00008089000004ED00E023
:102480001C04FF1FE888000010B5040064B2042C8F
:1024900007DA01220121174864B2205CFFF7D2FD60
:1024A0000EE0042004002000441E40B2002807D0A3
:1024B000012201210F4864B2205CFFF7C3FDF2E75F
:1024C00010BD10B5040064B2042C05DA094864B2EA
:1024D000205CFFF771FE0CE0042004002000441E85
:1024E00040B2002805D0034864B2205CFFF764FEC8
:1024F000F4E710BDD80BFF1F0EB400B582B003A9DE
:102500000091024600AB0121034878440A3000F0F4
:1025100089F906BC5DF810FBC56400002DE9F8439D
:1025200004000D0064B2002C08D0022C2CD018D36B
:10253000042C4FD03BD3052C5FD071E0DFF8300284
:10254000006850F48060DFF8281208604FF4407192
:102550006620FFF771FE4FF440716720FFF76CFEB5
:102560005EE0DFF80C02006850F40060DFF8001253
:1025700008604FF440714320FFF75EFE4FF4407156
:102580004420FFF759FE4BE0DFF8E401006850F407
:102590008050DFF8DC1108604FF440716320FFF7D2
:1025A0004BFE4FF440716220FFF746FE38E0DFF843
:1025B000C001006850F40050DFF8B41108604FF417
:1025C00040715020FFF738FE4FF440715120FFF763
:1025D00033FE25E0DFF89C01006850F48060DFF8EE
:1025E000941108604FF440719920FFF725FE4FF4D5
:1025F00040719820FFF720FE12E0DFF878010068B4
:1026000050F40060DFF86C1108604FF440718920CD
:10261000FFF712FE4FF440718820FFF70DFEFFE731
:10262000DFF8540164B250F82400C07810F0F300D1
:10263000DFF8441164B251F82410C870DFF8380193
:1026400064B250F824008078DFF82C1164B251F89D
:102650002410887064B2002C02D064B2012C07D11F
:10266000DFF8180100684FF47A714843814606E0AC
:10267000DFF80C0100684FF47A7148438146280165
:10268000B9FBF0F00600B6B2B6F5005F02DB41F62A
:10269000FF700600B9FBF5F0B6B2B0EB061007000C
:1026A000BFB2202F03DBDC213648FFF75AFE324849
:1026B00064B250F82400007810F0E0008046C6F3C1
:1026C000042050EA08002C4964B251F82410087024
:1026D000294864B250F824004670274864B250F884
:1026E0002400807A10F0E000804617F01F0050EAC6
:1026F0000800214964B251F8241088721E4864B25F
:1027000050F82400007C50F088001B4964B251F856
:1027100024100874184864B250F82400C07850F0AF
:102720000C00154964B251F82410C870BDE8F1835B
:10273000114A40B252F8202012791206F8D50E4AFA
:1027400040B252F82020D171704770B504000D00DE
:1027500016003000461E002808D095F9001049B236
:10276000200040B2FFF7E4FF6D1CF2E770BD0000EF
:102770003480044028800440A00BFF1F6CA1FF1F81
:1027800074A1FF1F3C88000010B5040064B2082C3F
:102790000DDA00220021224864B2205CFFF752FCCF
:1027A00003211F4864B2205CFFF768FD14E0082095
:1027B00004002000441E40B200280DD00022002159
:1027C000174864B2205CFFF73DFC0321144864B253
:1027D000205CFFF753FDECE710BD10B50400104876
:1027E00064B2205CFFF705FD002801D1002000E065
:1027F000012010BD10B50400200040B2FFF7EDFF2E
:1028000000280AD10A20FFF76FFD200040B2FFF731
:10281000E4FF002801D1002000E0012010BD0000ED
:10282000CC0BFF1F2DE9F04FA1B0824600201746C8
:102830001D4602910B900DF1440B6FF000490AE028
:1028400017F8011B0298D0470290002800F0A382DD
:102850000B98401C0B90387808B90B989DE22528FE
:10286000EED10020059006900790089009900A90FC
:1028700001E040F0010017F8011F2029F9D02329B9
:102880000DD02B2904D02D2906D030290AD00CE0F8
:1028900040F0020080B2EEE740F00400FAE740F0BA
:1028A0000800F7E740F01000F4E72A290ED1296864
:1028B000296051F8042B29600D92002A04D5514259
:1028C00040F004000D9180B27F1C11E000210D91B9
:1028D00009E00D99494505D001EB810302EB430165
:1028E00030390D917F1C3A78A2F130010A29F0D3DA
:1028F00039782E2903D04FF0FF310C911DE017F8E5
:10290000011F2A2907D1296829607F1C51F8042B4F
:1029100029600C9211E000210C9109E00C994945C5
:1029200005D001EB810302EB430130390C917F1C90
:102930003A78A2F130010A29F0D3ADF838000FF649
:10294000B820397800F076FD08B117F8010B8DF842
:102950003A009DF83A00682802BF39786829622059
:1029600005D06C2804BF38786C2803D171208DF80D
:102970003A007F1C11A8049017F8014BB4F1250010
:1029800024D02038022840F2C680133800F0EC80B2
:102990000B3800F05081401E00F02581401E0228B7
:1029A00040F2B980001F00F01E81401F00F08480BB
:1029B000401E00F0D980401E29D0C01E0CD0801EC1
:1029C00000F0D280C01E00F0CF803EE101200590D3
:1029D00025208DF8440044E12868286050F8044B15
:1029E00028600394DDF83080B8F1000F04D520464C
:1029F00000F02CFD804607E042460021204600F012
:102A000041FD08B1A0EB0408CDF8188029E1296840
:102A100029604FF03C0851F8040B29600021CDE9F2
:102A2000000111A80390DDE90001049C11B908B967
:102A30000C9ACAB10206120FA0EB02123032A8F1B2
:102A4000010ED2B2F0463A2AA8BF273200090EF88A
:102A5000042040EA0170090908BF002804D0039A45
:102A600008EB04039A42E5D308EB04000390C8F195
:102A70003C010C980691814209DA401A08904FF601
:102A8000EF71BDF838000840ADF83800E9E00028E3
:102A900040F1E7809DF8380000F01400102840F065
:102AA000E0800D98059A801A089A801A401A012829
:102AB000C0F2D7800890D4E09DF83A0062281AD07E
:102AC000682806D06A280CD06C281CD0712808D041
:102AD00019E02868286050F8041B28600B980880CB
:102AE000BFE02868286050F8042B28600B98C117B5
:102AF000C2E90001B5E02868286050F8041B28608E
:102B00000B980870ADE02868286050F8041B286016
:102B10000B980860A5E02868C01D20F007022A6015
:102B2000D2E9000108322A60CDE90001002903D56D
:102B3000012005902D200CE0BDF83800810703D559
:102B4000012005902B2004E0C00704D5012005904A
:102B500020208DF84400059911A8081803902146FB
:102B600000A800F0D7F97CE09DF83A206C2A0DD03F
:102B7000712A18BF6A2A09D12868C01D20F00703EE
:102B80002B60D3E9000108332B6005E02968296038
:102B900051F8040B29600021CDE90001682A08BF23
:102BA00080B207D0622A08BFC0B203D0742A18BF0F
:102BB0007A2A02D10021CDE900019DF838000007F2
:102BC00030D5DDE90001002908BF00282AD044F0F3
:102BD0002000782826D130208DF844008BF8014061
:102BE000022005901EE029469DF83A0000F0D8F832
:102BF000CDE90001002904DA0598411C05912D2139
:102C00000EE0BDF83800810704D50598411C0591F8
:102C10002B2105E0C00705D50598411C0591202111
:102C200000F80B10059911A808180390214600A878
:102C300000F0EDF815E0012005902868286050F8B4
:102C4000041B28608DF844100BE00120059025201E
:102C50008DF84400002C04D00598411C059100F823
:102C60000B400D980599401A0899401A0699401A88
:102C70000999401A0799401A0A99A0EB01089DF892
:102C8000380040070FD420208DF84000002408E0D1
:102C9000012310AA00A9504600F097FB00287AD122
:102CA000641C4445F4DB059C11AE0AE016F8011BD8
:102CB0000298D047029000286DD00B98401C0B90D2
:102CC000641E002CF2D130208DF840000026089CB4
:102CD00008E0012310AA00A9504600F076FB002866
:102CE00059D1761CA642F4DB069C039E0AE016F836
:102CF000011B0298D047029000284CD00B98401C32
:102D00000B90641E002CF2D130208DF8400000267C
:102D1000099C07E0012310AA00A9504600F055FBCA
:102D2000C8BB761CA642F5DB03980699079C0E18D3
:102D300009E016F8011B0298D047029058B30B988F
:102D4000401C0B90641E002CF3D130208DF8400005
:102D500000260A9C07E0012310AA00A9504600F0B3
:102D600034FBC0B9761CA642F5DB9DF8380040075D
:102D70007FF571AD20208DF84000002400E0641C38
:102D80004445BFF668AD012310AA00A9504600F0E3
:102D90001CFB0028F3D04FF0FF3021B0BDE8F08FCE
:102DA000622826D068281DD06A2808D06C2827D031
:102DB000712804D0742823D07A280CD020E0086829
:102DC000C01D20F007000860D0E90023083008602B
:102DD0001946104670470A680A6052F8040B0A60E8
:102DE000002170470A680A6052F8040B0A6000B2BA
:102DF0000BE00A680A6052F8040B0A6040B204E073
:102E00000A680A6052F8040B0A60C11770472DE97E
:102E1000FA4E05460A462F696F2A08BF082405D0D6
:102E200041F02000782814BF0A241024D5E90001BD
:102E30003C2681468A46642A18BF692A05D10029A2
:102E400003DAD9F100096AEB4A0ABAF1000F08BFA8
:102E5000B9F1000F0CD1286B50B9082C36D195F878
:102E60003800000732D530203B2687F83B002DE0A4
:102E7000E31748465146224600F030FBA4FB0023EE
:102E8000A9EB02023032A6F1010BD2B25E463A2A19
:102E900003DB9DF80030513B9A180BF80720814660
:102EA0005FEA010A08BFB9F1000F03D0E868F11921
:102EB0008842DDD3082C09D195F83800000705D5E4
:102EC000F05D302802D0761E3020F055C6F13C006F
:102ED000A861F119E960296B884208DA081A2862AA
:102EE0004FF6EF71288F08402887BDE8F38E002940
:102EF0000ED595F8381001F01401102908D1696B2E
:102F00006A69891A2A6A891A081A0128A8BF2862D8
:102F1000BDE8F38E2DE9F34F8BB0D0E90089006B4B
:102F200001AF002848BF062005D404BF41F02000AF
:102F3000672802D101200B99086340F2FF720B98B9
:102F40004168C1F30A50904220D1080302BF0B9898
:102F5000006800280AD10B99032088619DF8300091
:102F600061381A2858D30FF2A44109E00B990320C5
:102F700088619DF8300061381A284AD30FF28441E5
:102F80000B98C068032200F021FB00E1012807DA5A
:102F90000B9800F056FB012802DB00230026EDE031
:102FA0000B9A526840F2FE3161F31E520B994A604F
:102FB00040F2FE31461A404649460022002300F006
:102FC00061FB38BF89F0004936B247F29750704331
:102FD0004949DFF828B190FBF1F636B2C6F1070790
:102FE0009246012F1BDBF80707D552465B46404649
:102FF000494600F05FFB804689467F10504659469F
:1030000052465B4600F056FB82468B46002FEAD1C3
:1030100026E00FF2EC31B3E70FF2EC31B0E77F427C
:103020000024374D12E0F80707D552465B4620468C
:10303000294600F03FFB04460D467F105046594696
:1030400052465B4600F036FB82468B46002FEAD1A3
:103050004046494622462B4600F0FEFB8046894604
:103060009DF8300040F02005662D0CBF06F10A00E7
:1030700006200B99096B4718142FA8BF132730207F
:103080008DF804000DF10504DFF878B0012F3BDB6B
:103090004046494600F01AFD014604F108020423A7
:1030A0004FF00A0CB1FBFCFC0CEB8C04A1EB4401CF
:1030B000303102F8011D0A21BCFBF1FE0EEB8E043B
:1030C000ACEB44043034714602F8014D5B1EE7D18D
:1030D000083F02F10804012FD8DB00F017FD02467B
:1030E0000B464046494600F01FFD00225B4600F0BB
:1030F000E1FA80468946CBE7A08601000000244023
:103100000000F03F84D797410DF10500201A0DF122
:10311000050702E0401E761E7F1C39783029F9D061
:10312000662D02D136B2711C03E0652D0CBF012162
:1031300000210B9A126B8B181BB29842B8BF034642
:103140001BB219001AD4814204DAC85D3528A8BF21
:10315000392000DA3020CA19521E00E05B1E12F836
:103160000159491E8542F9D0392802D1C85D401C59
:10317000C855002902D57F1E5B1C761C36B29DF80F
:1031800030100B9800961BB23A4600F003F80DB0D1
:10319000BDE8F08F2DE9F04786B006468A46904696
:1031A0001D4600F09EFD406A376B90F80090012D9F
:1031B00002DA01250FF258284AF02000BDF9384004
:1031C000662808BF641C13D0672840F0888014F17B
:1031D000040F73DBBC4271DA96F83800641C0007F8
:1031E00002D4BD42B8BF2F4624B23F1B48BF0027C0
:1031F000F068B16924B2012C21DA30234A1C0B5447
:10320000012F03DA96F83810090702D502F800906A
:10321000521CB261E742B8BF7C4224B26142E71956
:103220007162AF42B8BF3D462DB2F5612A46B3691F
:103230004146181800F0CAF9781BB062AEE00818D1
:10324000A54216DA2A46414600F0C0F9B16969186C
:10325000B161601B7062012F03DA96F83800000735
:1032600005D5F06801F80090F069401CF061B76284
:1032700094E02246414600F0A9F9B06920182D1BC0
:10328000012F03DA96F83810090703D5F16800F822
:103290000190401C2DB2B061AF42B8BF3D46F0680E
:1032A000B3692DB22A4604EB0801181800F08EF914
:1032B000B0692818B061781B70626FE0BD4204DA13
:1032C00096F83810090758BF2F467F1E48BF0027C1
:1032D000BAF1670F0CBF4FF0650A4FF0450AB169AC
:1032E000F06818F8013B0B544A1C012F05DA96F8D8
:1032F0003810090758BFB26115D502F80090531C69
:10330000B361012F0FDB6D1E2DB2AF42B8BF3D463A
:103310002DB22A464146181800F058F9B06928180D
:10332000B061781B7062F068B16901EB00082000A1
:1033300008F801AB03D42B2008F8010B03E02D2182
:1033400008F8011B6442002502AF08E00A2200A829
:1033500000F0E0FC019807F8010B6D1C009C21B205
:103360000129F3DA022D06DA4AF02000652804BFAD
:10337000302008F8010B4DB9302008F8010B07E0A8
:103380006D1E02A8285C303008F8010B012DF7DA19
:10339000F068B1690818A8EB0000F06196F83800F1
:1033A00000F0140010280DD17069B1690818716A15
:1033B0000818F1690818B16A0818716B8842BCBF17
:1033C000081A306206B0BDE8F087F8B504460D462D
:1033D00016461F46002004E0E86A401CE8627F1E93
:1033E000002047B116F8011BA868A047A860002874
:1033F000F2D14FF0FF30F2BD686A6C747A4C000075
:103400006E616E004E414E00696E6600494E460088
:10341000300050F8041B61B150F8042BD30744BFAF
:10342000A9F101039A18002342F8043B091FFAD1BD
:10343000EFE770470278C9B28A421AB11CBF10F890
:10344000012FF9E718BF00207047000000F10103C9
:10345000810704D010F8011B89B18107FAD10268F5
:10346000B2F10131914311F0803F04BF50F8042FB5
:10347000F6E710F8011B11B110F8011BFBE7C01AA9
:1034800070470000C9B2830706D0521E22D310F83D
:10349000013B9942F7D11FE0083A13D302F104022D
:1034A00041EA012141EA014150F8043B121F21BFCA
:1034B0004B40A3F1013C2CEA030C1CF0803FF3D0FD
:1034C000C9B2001F083210F8013B521E28BF91EA12
:1034D000030FF8D818BF0120401E70471B4213D1BC
:1034E000094236D12AB18446B0FBF2F002FB10C289
:1034F000704700F017BCFCD30022002370470B007C
:103500000200002100207047904271EB030CF6D3BB
:1035100070B5B1FA81F4B3FA83F52C1BA340C4F162
:10352000200532FA05F63343A2405FF00046E6403C
:1035300002E05B085FEA3202841A71EB030524BFE4
:10354000204629467641F4D302000B0030000021CA
:1035500070BD012ACFD970B5140C20D0B1FA81F416
:10356000B2FA82F5C4F120046419B4F12006D6D36E
:10357000B2405FF00044F440002502E052085FEAE8
:103580003303C61A71EB020E24BF30467146644104
:103590006D41F3D302000B002000290070BD0C46E2
:1035A000B1FBF2F102FB11452D0445EA1045B5FBD4
:1035B000F2F402FB145580B240EA0545B5FBF2F087
:1035C00002FB105240EA044070BD000062B38B075A
:1035D00008D0521E11F8013B00F8013B00F0248096
:1035E0008B07F6D1830740F0208000BF103A07D345
:1035F00030B4B1E83810103AA0E83810F9D230BC35
:10360000530724BFB1E80810A0E8081044BF51F8E0
:10361000043B40F8043BD20724BF31F8022B20F8CA
:10362000022B44BF0B7803707047083A07D3B1E808
:103630000810083A40F8043B40F804CBF7D253078F
:10364000E4E730B4436803F0004201211B031B0B85
:10365000436004BF0368002B08D10DE00368DD0F51
:1036600045EA440444605B000360491E4468E30289
:10367000F4D523031B0B436043681A43426008469A
:1036800030BC70474FF4001C1CEB410F94BF1CEB87
:10369000430F09E041EA030C50EA4C0C52EA0C0CCF
:1036A00003D2994208BF9042704714BF8B428242B6
:1036B00070470000B0B581EA030C0CF0004C40F2FA
:1036C000FF7515EA11541DBF15EA1357AC42AF42FE
:1036D00039E0E41923EA455343F48013C90241F069
:1036E000004141EA505EC7021100A7FB0202002818
:1036F0004FF00000EEFB01204FF00001E3FB07213B
:1037000018BF42F00102401800214941E3FB0E01BD
:10371000A4F580640F0302D252004041494154F1A4
:1037200001046CDD470872F1004250F1000051EBDA
:103730000451A1F580115CBF41EA0C01B0BD4CEA17
:1037400005510020B0BD05EA1357AC4214BFAF428B
:1037500041E050EA410E1CBF52EA430E02E06146CE
:103760000020B0BD24423C441BD15FEA070EF6D0D6
:10377000090302BF01460020AEF1140EB1FA81F731
:10378000AEEB070401FA07FE0C37C7F1200100FA7F
:1037900007F7C8404EEA000E23EA455343F480136E
:1037A000A2E733F00043B3FA83F704BFB2FA82FE14
:1037B00077440B3FE41BB7F1200E2FBF02FA0EF344
:1037C000BB40C7F1200E22FA0EFE38BF43EA0E03BB
:1037D000BA40641C82E750EA410E14BF52EA430E1D
:1037E0006FF000014FF4001717EB430F8ABF194623
:1037F00017EB410FB5E74CEA05510020B0BDD4F1FD
:103800000104B4F120070FDAC4F12007520828BFE1
:1038100042F0010210FA07F501FA07F7E1BF2A4367
:10382000E0403843E1400FE0352C98DCC7F120043C
:1038300052EA400220FA07F218BF42F0010231FAC0
:1038400007F0A1400A43002172F1004250F100004C
:1038500051EB0C01B0BD0000F0B540F2FF7581EAFC
:10386000030C0CF0004C15EA11541DBF15EA135758
:10387000AC42AF42E5E0BC41C1F31301C3F3130313
:10388000801A994143F4801304D2641E40004941D8
:1038900080185941C90241EA5051B1FBF3F603FBCC
:1038A0001611A2FB0675D7EBC020A94102D2761EE5
:1038B00080185941C90241EA5051B1FBF3FE03FBA4
:1038C0001E11A2FB0E75D7EBC020A94103D2AEF1A9
:1038D000010E80185941890241EA9051760546EA65
:1038E0008E2EB1FBF3F603FB1611A2FB0675D7EB88
:1038F0008020A94102D2761E80185941C90241EAAE
:1039000050514EEA060EB1FBF3F603FB1611A2FB73
:103910000675D7EBC020A94102D2761E8018594106
:10392000C90241EA5051B1FBF3F703FB1711A2FBA7
:103930000735D3EBC020A94167F100070CBF004257
:1039400047F0010766F3D5274FEA1E31B80814F592
:10395000806412DDBD0775F1004250EB0E5051EB53
:10396000045111F5801F5CBF41EA0C01F0BD4CF021
:103970007F6141F0E0410020F0BDBD076D0840EAE5
:103980000E5041F48011D4F10104B4F120060ADA9A
:10399000C4F120060200E04001FA06F3E1401843BA
:1039A000B24015430EE0342C13DCC6F1200445EA86
:1039B00040056D0820FA06F2154321FA06F0A140F1
:1039C0000D43002175F1004250F1000051EB0C0154
:1039D000F0BD00205FEA0C01F0BDCFB992185B4149
:1039E000B3FA83F704BFB2FA82F6BF190B3FB7F1FF
:1039F00020062FBF02FA06F3BB40C7F1200622FAC9
:103A000006F638BF3343BA401CB1E419641E33E7ED
:103A10007F4231F00041B1FA81F404BFB0FA80F680
:103A2000A4190B3CB4F120062FBF00FA06F1A14007
:103A3000C4F1200620FA06F638BF3143A0403C1BF3
:103A40001AE7AC421ABF05EA1357AF4212E050EA38
:103A500041061CBF52EA4306BFE750EA4107304621
:103A600061461CBF41EA0551F0BD52EA430C08BF54
:103A7000C143F0BD00204FF4001616EB410F98BF74
:103A800016EB430F08BF16EB410F24BFC14305E0FF
:103A900016EB430F0CBF61464CEA0551F0BD000028
:103AA000F446400D40EAC120490006D200F014F867
:103AB000004248BF6FF00040604700F00DF84FF043
:103AC000004188428CBF084640426047400D40EAB2
:103AD000C120490080F00D8040F00040490DA1F563
:103AE0008061491C05D4D1F11F0154BFC840C017E3
:103AF00070474FF000007047010040F10980F44624
:103B0000404200F005F851F000416047010000BF5D
:103B100009D0B0FA80F18840C91CC1F5846109055B
:103B200001EBD0214005704770B44FF0004591EA99
:103B3000030F44BF6B4000F001B900BF841A71EB62
:103B4000030604D26E40001BB141121973414FF4B9
:103B5000001C1CEB410F34BF7CEB430684E00C0DD2
:103B6000A4EB1356362E7DDC012E43DC45EAC3233D
:103B700043EA525312BFD20292025B08240545EA7F
:103B8000C12141EA5051D2EBC020994125D407D13F
:103B9000B0FA80F610FA06F164D00020203608E072
:103BA000B1FA81F6B140C6F1200220FA02F21143C7
:103BB000B0404FEAF474B4EB465434F001064FEAD7
:103BC00074040AD8D6F50016760D04F00044F040CF
:103BD00061FA06F25040F1404840C00A40EA4150C4
:103BE00021F0004128BF5FEA500550F1000044EB8E
:103BF000D12137E045EAC323DB0A45EAC121C90ADE
:103C0000B6F120050EDD42EA0242120CC5F1200693
:103C100003FA06F6EB4042EA06056D42984161F16F
:103C200000010DE062FA06F5F240554063FA06FC29
:103C300082EA0C02F3405A406D42904161EB03016D
:103C400011F4801F05D1641E620502D06D00404151
:103C5000494121F48011430875F1004350F10000FF
:103C600041EB045170BC70471CEB410F15D223F09F
:103C7000004352EA43060BD04FEA4C0CBCEB410F19
:103C800004D80C0D661E342EB7DDEBE7801A99417F
:103C900050EA410608BF0021E4E708BF1CEB430FD0
:103CA00028BF6FF00001DDE780B5134800F0B0F8E1
:103CB0000FF24801016041608160C16001614161B2
:103CC00081610FF23C0242628162C1620163416321
:103CD0000FF2300282630FF23402C2630164416466
:103CE00001BD10B5044800F093F80446206808B9F7
:103CF000FFF7DAFF204610BD04A2FF1F00000000FE
:103D00002E00000066616C736500000074727565BA
:103D10000000000091FBF2F303FB1211C0E9003137
:103D2000704700007047000070B44FF0004591EA02
:103D3000030C44BF6B40FFF701BF00BF841A71EB57
:103D4000030603D2001BB141121973414FF4001C4A
:103D50001CEB410F34BF7CEB430443E00C0DA4EBA0
:103D60001356352E50DC45EAC323DB0A45EAC12150
:103D7000C912B6F120050DDD63FA05F6EB4086EABF
:103D80000305124218BF45F00105C01851F10001AA
:103D90000CD213E062FA06F5F2405540F3415A4066
:103DA000B340F3405A408018594107D349085FEAAD
:103DB00030005FEA350528BF45F0010501F58011A7
:103DC000420875F1004250F1000041EB045170BC13
:103DD0004FF4001C1CEB410F38BF70470020090D49
:103DE000090570471CEB410F10D252EA43060BD075
:103DF000BCEB410F05D80C0DAB43661E342EB5DD70
:103E000002E0AB438018594170BC704770BC7047EA
:103E10007047000010F00702DFF86C391B681900CA
:103E20004FF6FF031940DFF8643953EA02231943C0
:103E3000DFF8543919607047012110F01F029140DA
:103E4000DFF84C2940B2430942F8231070470121A2
:103E500010F01F029140DFF83C2940B2430942F8BC
:103E60002310704710B440B2002809D50A01DFF8CA
:103E7000283940B210F00F04E31803F8042C04E0D2
:103E80000A01DFF8183940B2C25410BC7047F0B5CF
:103E900085B000F005FDDFF808090468DFF80409C3
:103EA0000568FEF7B7F8ADF81200FEF7B6F8ADF802
:103EB0001000DFF8F40800F097FF01F07FF80FF62C
:103EC0009D01672001F0A7FB0FF6CD11102001F036
:103ED000A2FBDFF8D80800680A2101FB00F10020EE
:103EE00001F0B0FB0FF63D01542001F094FB0620D9
:103EF000FFF790FF00215720FFF7B4FF0620FFF7E0
:103F000089FF00210020FFF7ADFF0620FFF782FFA9
:103F100008214420FFF7A6FF00F0CAFFDFF8880859
:103F200001F0CEFBDFF8881808704420FFF784FF0B
:103F3000DFF880080068DFF8801801F043FD07D93A
:103F4000DFF870080068DFF8741801F04DFD08D242
:103F50004420FFF77CFF002001F076FD002001F0F7
:103F6000ABFD00F0A5FFDFF85818DFF83C0801F0C2
:103F70003CFC2B00DFF848280499200000F070FE7C
:103F8000DFF840080090DFF84038DFF84028DFF81D
:103F90004018DFF8400801F04EFCDFF83C080090C4
:103FA000DFF83838DFF83828DFF83818DFF8380855
:103FB00001F041FCDFF834080090DFF83438DFF816
:103FC0003428DFF83418DFF8340801F034FCDFF867
:103FD00030080090DFF82C38DFF82C28DFF82C1898
:103FE000DFF82C0801F027FCDFF828080090DFF844
:103FF0002838DFF82828DFF82818DFF8280801F02B
:104000001AFCDFF824080090DFF82038DFF82028B9
:10401000DFF82018DFF8200801F00DFCDFF8E807D2
:1040200003783222DFF808080178462001F064FCAA
:104030000600DFF8CC0703783222DFF8EC070178BE
:10404000462001F059FC070076B25A2E02D17FF0CB
:10405000590006000020ADF80A000020ADF8080065
:10406000DFF8D807B0F9000001F060FD4FF6FF73EC
:1040700000220100029800F0BFFD6820ADF80800A2
:10408000DFF8BC07006801F087FD01F04FFD4FF637
:10409000FF7300220100029800F0AEFD0F20ADF882
:1040A0000A000020ADF80800DFF89827D2E90001E7
:1040B000DFF89417D1E90023101801F037FD4FF60F
:1040C000FF7300220100029800F096FD7020ADF809
:1040D0000A000020ADF8080076B2300001F026FD9D
:1040E00001004FF6FF730022029800F085FD682062
:1040F000ADF808007FB2380001F018FD4FF6FF73ED
:1041000000220100029800F077FDDFF840070078F8
:10411000002840F0B08076B2012EC0F285807FB2D8
:10412000002F40F181800020DFF824170870DFF8AD
:10413000D0060078DFF8D0160978401A142810DA73
:1041400000200021DFF8FC26C2E900010020002148
:10415000DFF8F426C2E900010120DFF8F01608704C
:1041600062E0DFF874060078DFF874160978401A08
:104170001A2859DBDFF874060078DFF8781609781A
:10418000401ADFF854160978401ADFF854160978F7
:1041900040180B2848DBDFF82C060078DFF82C16D7
:1041A0000978401A0F283FDBDFF82C060078DFF88B
:1041B000301609780818022190FBF1F0DFF82C1670
:1041C0000978DFF8302612785118022291FBF2F1BB
:1041D000401A012814DB0120DFF874160870002053
:1041E0000021DFF86026C2E9000100200021DFF88D
:1041F0005826C2E900010220DFF85016087013E0CB
:104200000220DFF84C16087000200021DFF8342669
:10421000C2E9000100200021DFF82C26C2E90001DC
:104220000220DFF82816087076B2012E02DB7FB27A
:10423000012F05DA76B2002E06D57FB2002F03D506
:104240000320DFF80C16087076B2002E13D57FB26B
:10425000012F10DB19223221DFF8640501F02EFB5B
:10426000002804D10420DFF8E815087003E00620D8
:10427000DFF8DC150870DFF8D405007801281CD1C0
:10428000DFF8C025D2E90001DFF8BCC5DCE9002376
:104290008018594141F28932002399420DDB01DC3B
:1042A00090420AD30020DFF8A4150870DFF8A405B7
:1042B0000078401CDFF89C150870DFF89005007846
:1042C000022815D1DFF87C25D2E90001DFF878C596
:1042D000DCE900238018594142F21172002399420F
:1042E00006DB01DC904203D30020DFF86015087084
:1042F000DFF860050078012805D0DFF85805007860
:10430000002840F0A181DFF8480590F9000000285E
:1043100040F0A780DFF8FC040078DFF8001509788A
:10432000401ADFF8DC140978DFF8DC241278891AE7
:1043300088424BDBDFF8D4040078012811D1DFF884
:10434000C404007801280CD1DFF8B4040078DFF849
:10435000B81409780818022190FBF1F0DFF8F8147E
:104360000870DFF8A804007801280BD1DFF8940466
:104370000078002806D1DFF8900400782030DFF8BC
:10438000D8140870DFF88404007800280BD1DFF817
:1043900074040078012806D1DFF86404007820381E
:1043A000DFF8B414087040F2FF70DFF8B014088032
:1043B0004FF47840DFF8A81408801F20DFF8A41419
:1043C00008801F20DFF8A01408804AE0DFF85004BE
:1043D0000078012811D1DFF84004007801280CD1C1
:1043E000DFF830040078DFF8341409780818022167
:1043F00090FBF1F0DFF860140870DFF82404007817
:1044000001280BD1DFF810040078002806D1DFF86E
:104410000C0400782430DFF840140870DFF8000442
:10442000007800280BD1DFF8F0030078012806D1CE
:10443000DFF8E00300782438DFF81C14087040F23D
:10444000FF70DFF8181408801F20DFF814140880AC
:104450004FF47840DFF80C1408801F20DFF80814B0
:104460000880DFF8EC0390F90000032840F0938007
:10447000DFF8A0030078DFF8A4130978401ADFF80A
:1044800080130978DFF880231278891A884248DB84
:10449000DFF878030078012811D1DFF8680300788D
:1044A00001280CD1DFF858030078DFF85C13097895
:1044B0000818022190FBF1F0DFF89C130870DFF878
:1044C0004C03007801280BD1DFF83803007800286E
:1044D00006D1DFF8340300782330DFF87C1308704E
:1044E000CA480078002809D1C6480078012805D1BB
:1044F000C34800782338DFF8601308704FF6E07087
:10450000DFF8581308804FF47840DFF85413088020
:104510001F20DFF8501308801F20DFF84C1308809D
:1045200039E0BF48007801280DD1BB480078012848
:1045300009D1B8480078B94909780818022190FBD8
:10454000F1F0C5490870B6480078012808D1B24892
:104550000078002804D1B14800782430BE490870A2
:10456000AF480078002808D1AB480078012804D172
:10457000A84800782438B84908704FF6E070B74969
:1045800008801F20B64908804FF47840B54908805C
:104590001F20B5490880AE4890F9000004280FD1CB
:1045A0005F20AD4908704FF47840AC4908801F2067
:1045B000AB4908801F20AB4908801F20AA4908800A
:1045C000A34890F90000062811D18D4800782738BB
:1045D000A14908704FF4FC60A04908801F20A04941
:1045E00008801F209F4908801F209F490880984805
:1045F00090F90000012810D18648007814389649B7
:1046000008700020954908801F20954908801F20C8
:10461000944908801F20944908808D4890F9000033
:1046200002281AD17D48007816308B490870002086
:104630008A4908801F208A4908801F2089490880EC
:104640001F208949088008E04420FFF700FC002073
:1046500001F0FAF9002001F02FFA7F48007801F00C
:10466000C7FA01F0D5FA0022804BFFF7F5F80022D7
:104670007F4BFFF71FF8FFF713FAC0B2ADF80C003D
:1046800000207C4908707B4800788028BFF650AC39
:1046900078480078ADF80E0070480188039800F063
:1046A0007DF974480078ADF804007020ADF806007C
:1046B0006D480188019800F071F95820ADF80600A6
:1046C00068480188019800F069F95020ADF80600AB
:1046D00063480188019800F061F94020ADF80600B8
:1046E00065480188019800F059F93820ADF80600B6
:1046F00062480188019800F051F93420ADF80600B5
:104700005F480188019800F049F92820ADF80600BB
:104710001F21019800F042F956480078401C554985
:104720000870B0E780B55748006850F0010055495F
:10473000086055480088401C53490880524800884A
:10474000C92803DA00205149086002E050484F4967
:1047500008604E48006800F0B8FC01BD38B54D480F
:1047600000680028FBD04B48006805005FF0FF3070
:10477000484908601D20040035FA04F0C00701D53F
:1047800000F066FB31BD00000CED00E00000FA0512
:1047900000E100E080E100E018ED00E000E400E06E
:1047A000208A0000248A0000600EFF1F74A1FF1FF2
:1047B0001004FF1F480EFF1F0100E1430000E1C38A
:1047C0008066FF1FFDA1FF1FFCA1FF1FFBA1FF1FB4
:1047D000FAA1FF1FBC7EFF1FF9A1FF1FF8A1FF1F59
:1047E000F7A1FF1FF6A1FF1F3480FF1FF5A1FF1FD8
:1047F000F4A1FF1FF3A1FF1FF2A1FF1FE083FF1F22
:10480000F1A1FF1FF0A1FF1FEFA1FF1FEEA1FF1FEE
:10481000388BFF1FEDA1FF1FECA1FF1FEBA1FF1FB6
:10482000EAA1FF1FE48EFF1FE9A1FF1FE8A1FF1F00
:10483000E7A1FF1FE6A1FF1FE899FF1FD4A1FF1FFB
:104840003C0EFF1FE80DFF1FF00DFF1F00A2FF1F12
:1048500002A2FF1FFFA1FF1FFEA1FF1F1804FF1FE1
:104860001604FF1F1404FF1F1204FF1F008067407F
:104870000000604001A2FF1FD8A1FF1FDAA1FF1FA7
:10488000DCA1FF1F0C710340DEA1FF1F40A1FF1F31
:1048900000008243A090044080B500F0FFFA01BD03
:1048A00010B582B0DFF8F4040468FBF7B5FDFDF73E
:1048B000B4FBADF80000FDF7ADFBADF802004FF61C
:1048C000FF720099200000F001F813BDF2B504005A
:1048D000150000992000FDF78FFABDF80000BDF823
:1048E0000210484307000120DFF8B41408600020DC
:1048F000DFF8B01408600020DFF8AC1408602C204A
:10490000DFF8A81408700020DFF8A4140860012064
:10491000DFF89C1408600120DFF88C140860002088
:104920000600BE4239D20120DFF87414086001206D
:10493000DFF8701408600020DFF86C140860ADB276
:10494000280ADFF8681408700020DFF86414086093
:104950000120DFF85C1408600120DFF84C140860C7
:104960000120DFF83C1408600120DFF838140860EB
:104970000020DFF834140860DFF8300405700020F0
:10498000DFF82C1408600120DFF8241408600120EF
:10499000DFF814140860761CC3E7F1BD70B504009D
:1049A0000D00DFF81004066831002000FDF724FA3E
:1049B0000120DFF8EC1308600020DFF8E81308603E
:1049C0000020DFF8E41308602C20DFF8E013087003
:1049D0000020DFF8DC1308600120DFF8D413086042
:1049E0000120DFF8C41308600120DFF8B413086069
:1049F0000120DFF8B01308600020DFF8AC13086076
:104A0000ADB2280ADFF8A41308700020DFF8A01365
:104A100008600120DFF8981308600120DFF8881390
:104A200008600120DFF8781308600120DFF87413B4
:104A300008600020DFF870130860DFF8700305706D
:104A40000020DFF86C1308600120DFF864130860B1
:104A50000120DFF85413086070BD2DE9F14781B0E3
:104A60000C0015001E00DFF85003D0F800A0FDF781
:104A7000D4FA0838BDF80410884206DBFDF7CAFAFC
:104A80001038BDF80610884200DAB3E051460198AC
:104A9000FDF7B2F90120DFF8081308600020DFF805
:104AA000041308600020DFF8001308602C20DFF8F2
:104AB000FC1208700020DFF8F81208600120DFF80F
:104AC000F01208600120DFF8E01208600020814643
:104AD0005FFA89F9B9F1100F80F28C80DFF8DC02FF
:104AE000E4B2210151FA89F10818B0F5007000789C
:104AF0000700002080465FFA88F8B8F1080F76DAE0
:104B0000380638D50120DFF8981208600120DFF858
:104B1000941208600020DFF890120860ADB2280AF5
:104B2000DFF8881208700020DFF884120860012086
:104B3000DFF87C1208600120DFF86C1208600120A9
:104B4000DFF85C1208600120DFF8581208600020CE
:104B5000DFF854120860DFF8540205700020DFF817
:104B6000501208600120DFF8481208600120DFF8C9
:104B70003812086037E00120DFF8241208600120B5
:104B8000DFF8201208600020DFF81C120860B6B2BF
:104B9000300ADFF8181208700020DFF814120860DD
:104BA0000120DFF80C1208600120DFF8FC1108601A
:104BB0000120DFF8EC1108600120DFF8E81108603F
:104BC0000020DFF8E4110860DFF8E0010670002043
:104BD000DFF8DC1108600120DFF8D4110860012043
:104BE000DFF8C41108607F0018F1010883E719F1AC
:104BF00001096DE7BDE8F38771B581B00C001500C0
:104C00001E00207800282AD0FDF707FA0838BDF8E2
:104C10000410884207DA0020ADF80400BDF8060051
:104C20001030ADF80600FDF7F5F91038BDF80610A4
:104C3000884205DA0020ADF806000020ADF8040037
:104C400033009BB22A0092B221780198FFF705FF4A
:104C5000BDF804000830ADF80400641CD1E773BD52
:104C60002DE9FA4F83B004001500AA4603992000ED
:104C7000FDF7C2F80120DFF8281108600020DFF8F6
:104C8000241108600020DFF8201108602C20DFF8D4
:104C90001C1108700020DFF8181108600120DFF8EF
:104CA000101108600120DFF8001108600020804624
:104CB000BDF80E001FFA88F880456CD21FFA88F8FC
:104CC000BDF8120000FB08F0BDF80E1090FBF1F0EB
:104CD000ADF80000BDF80000BDF810104843019089
:104CE00000200700BDF80C00BFB2874250D2BFB20F
:104CF000BDF8100000FB07F0BDF80C1090FBF1F0C0
:104D00008146019810FA89F0060016F80A00C0B230
:104D1000C008C0B216F80A10C9B28908C9B2490160
:104D200051EAC02016F80A10C9B2C908C9B208432E
:104D3000834601201A49086001201A4908600020B2
:104D4000194908601FFA8BFB5FEA1B20174908709E
:104D50000020174908600120154908600120124908
:104D6000086001200E49086001200E4908600020FB
:104D70000D4908600D4880F800B000200C4908601B
:104D800001200B4908600120074908607F1CA9E742
:104D900018F101088CE705B0BDE8F08F288A000003
:104DA0002810FE433010FE432C10FE4380F00F40CD
:104DB0002410FE432C8A0000308A00001C79000079
:104DC000012110F01F0291404A4A40B2430942F8C3
:104DD00023107047012110F01F029140464A40B253
:104DE000430942F82310704710B50400434804609B
:104DF00000F096F800F002F8002010BDE0B50120A8
:104E0000029045F620000190002000901B233B48B3
:104E100002683B49002000F051FF3A480068400812
:104E20004000384908605720FFF7D4FF3648006833
:104E300050F00100344908600020FFF7C1FF3349FA
:104E40001B20FDF7F9F932491D20FDF7F5F907BDE3
:104E500080B5304890F90000042818D103202D496E
:104E600008705720FFF7B6FF5FF000602A4908601E
:104E70002448006850F00100224908605FF000609B
:104E8000254908601D4800682449086005E057204E
:104E9000FFF7A0FF02201F49087001BD01201D4936
:104EA00008701948006850F0010017490860704701
:104EB00080B50420174908705FF0FF30164908607C
:104EC0005720FFF77DFF134890F9000001280FD00D
:104ED000104890F900000228F5D104200D4908700F
:104EE0005FF0FF300C4908605720FFF769FFEAE7E1
:104EF00001BD000000E100E080E100E078A1FF1FBB
:104F000050F00F400C80004024800040020102005D
:104F100012010900DC0BFF1FA0900440109000401C
:104F20001CB53220FDF7E0F95FF4E1310320FDF715
:104F3000F5FAFF208DF8000000208DF801000A200E
:104F40008DF8020032208DF803004FF47A700400CF
:104F5000A4B2200A8DF8040020008DF8050000207E
:104F60008DF806005A208DF80700082200A90320BA
:104F7000FDF7EBFB3220FDF7B7F9FF208DF80000BD
:104F800002208DF8010000208DF8020000208DF82D
:104F9000030000208DF8040020208DF80500352046
:104FA0008DF806005A208DF80700082200A903207A
:104FB000FDF7CBFB3220FDF797F913BD38B500F0B4
:104FC00025FD00F08FFF01F087F8DFF8800501F084
:104FD0000FF9DFF87805B0F90000FEF78DFDDFF876
:104FE0007025DFF87035FEF765FB0022DFF86835C5
:104FF000FEF732FC01F072F9DFF860150860DFF8A7
:105000004C05B0F90400FEF777FDDFF84425DFF822
:105010004435FEF74FFB0022DFF83C35FEF71CFC61
:1050200001F05CF9DFF838150860DFF82005B0F909
:105030000A00FEF761FD0022DFF82835FEF73AFB93
:105040000022DFF81435FEF707FC01F047F9DFF81E
:1050500018150860DFF80805006800F0D9FD0200A7
:105060000B0014001D00DFF8F404006800F0D0FD10
:1050700022002B0001F07AF9DFF8F024DFF8F03499
:10508000FEF718FB01F02AF9DFF8E8140860DFF8F2
:10509000D004006800F0BCFD02000B0014001D00ED
:1050A000DFF8B804006800F0B3FD22002B0001F027
:1050B0005DF9DFF8B824DFF8B834FEF7FBFA01F049
:1050C0000DF9DFF8B414086031BD2DE9F84F060082
:1050D000DFF8A874DFF8A80401F00FF8DFF8A004E7
:1050E000B0F90000FEF708FDDFF86424DFF864344F
:1050F000FEF7E0FA0022DFF86034FEF7ADFB01F0C6
:10510000EDF8DFF880140860DFF87404B0F90400EB
:10511000FEF7F2FCDFF83824DFF83834FEF7CAFA7D
:105120000022DFF83434FEF797FB01F0D7F8DFF800
:1051300058140860DFF84804B0F90A00FEF7DCFCF8
:105140000022DFF82034FEF7B5FA0022DFF8083439
:10515000FEF782FB01F0C2F8DFF830140860DFF8D8
:105160002C040068DFF80014096801F065F9DFF825
:105170001C140860DFF81004006800F049FD02000C
:105180000B0014001D00DFF8FC03006800F040FD78
:1051900022002B0001F0EAF8DFF8D023DFF8D0334B
:1051A000FEF788FA01F09AF8DFF8E4130860DFF8F8
:1051B000C403006800F02CFD04000D00DFF8CC03F0
:1051C000006800F025FDDFF8CC23DFF8CC33FEF7D4
:1051D00071FA02000B0020002900FEF7A5FC01F087
:1051E0007DF8DFF890130860DFF8A4030068390049
:1051F00001F096F900F00CFD82468B465FF07E5080
:10520000390001F019F900F003FD80468946DFF806
:105210006803006800F0FCFC04000D00DFF86C037C
:10522000006800F0F5FCDFF86C23DFF86C33FEF764
:1052300041FA02000B0020002900FEF775FC4246EF
:105240004B46FEF737FA52465B46FEF76DFD01F01E
:1052500045F8C9490860C8480168DFF8400301F013
:105260005FF900F099FC00F0B9FCDFF83413086036
:10527000DFF82C030068C94901F0BEF9C84908608D
:10528000C8480078401CC7490870C6480078012803
:1052900040F0808000F02EFEADF8020000F02FFEFE
:1052A000ADF80000C048D0E90023BDF90200C117E5
:1052B00010185941BC4AC2E90001BC48D0E900239A
:1052C000BDF90000C117101A73EB0101B74AC2E91A
:1052D0000001BDF90200FEF70FFC0022B44BFEF7FF
:1052E000BBFA00F0FBFFB3490860BDF90000404283
:1052F000FEF702FC0022AE4BFEF7AEFA00F0EEFF26
:10530000AD490860AB480168AB48006801F0F2F9AC
:105310005FF0804101F070F9A849086000F0F4FDE9
:10532000A648006800F074FCA54AA64BFEF7C2F937
:1053300004000D00A448006800F06AFC5FF03332FE
:10534000A24BFEF7B7F922002B00FEF7EDFC00F0B0
:10535000C5FF9A490860994800689B490860310078
:105360009648006801F03DFA00F016FC9849088064
:105370009748008897490988401A974908809548B6
:1053800000889549B1F900100A2291FBF2F1081842
:10539000924908808348007802280BD18D48008804
:1053A0008D49B1F9001049000A2291FBF2F1081869
:1053B0008A4908807B48007803280DD185480088F9
:1053C0008549B1F90010032211FB02F10A2291FB79
:1053D000F2F10818814908807248007804280BD13E
:1053E0007C4800887C49B1F9001089000A2291FBB1
:1053F000F2F10818794908806A48007805280DD12B
:10540000744800887449B1F90010052211FB02F1BB
:105410000A2291FBF2F1081870490880614800786F
:1054200006280DD16B4800886B49B1F9001006229F
:1054300011FB02F10A2291FBF2F10818674908807A
:105440005848007807280DD1624800886249B1F9B0
:105450000010072211FB02F10A2291FBF2F1081859
:105460005E4908804F48007808280BD159480088C9
:105470005949B1F90010C9000A2291FBF2F108184C
:10548000564908804748007809280DD151480088BE
:105490005149B1F90010092211FB02F10A2291FBD6
:1054A000F2F108184D4908803E4800780A2814D1C6
:1054B00000203C490870474800884749B1F900106E
:1054C0000A2211FB02F10A2291FBF2F1081843496A
:1054D00008803F4800883F49088041480078401CC8
:1054E0003F4908703E48007802280AD100203C4914
:1054F00008705F213B48007800B201F0A4F93A49F6
:10550000088000210C0026480168384801F0F2F8B4
:10551000210001F031F940423549088034480088C3
:105520002E490988081830490988081800B200F087
:105530008BFA2F4800882949098808182A490988C0
:10554000401A00B200F0B8FABDE8F18FF80DFF1F65
:1055500005A3923A019D3340C0FFDF40240EFF1F98
:10556000280EFF1F00406F402C0EFF1FCB67791ED7
:10557000DCA54C40340EFF1F380EFF1F0AD7A33B9B
:10558000080EFF1F180EFF1F1C0EFF1F200EFF1F0F
:10559000300EFF1F7B14AE47E17A843F00002041AC
:1055A0003C0EFF1FE5A1FF1FE80DFF1FF00DFF1FC1
:1055B00000001440400EFF1F440EFF1F480EFF1F47
:1055C0009A9999999999D93F4C0EFF1F3333E33F2C
:1055D000D0A1FF1FCEA1FF1FD2A1FF1FD4A1FF1F8B
:1055E000E4A1FF1FFEA1FF1FD6A1FF1F0000104175
:1055F000CCA1FF1F10B504004FF4007094FBF0F134
:1056000001FB1041002903D01E210B48FCF7A9FE25
:105610000A48046010BD38B504000D000748006852
:105620000749884203D030210348FCF79AFE04481A
:1056300064B240F8245031BD9488000008ED00E0C9
:105640000000FF1F38B504000D00002D03D12221FA
:105650001748FCF786FE1748006850F4000015490B
:105660000860002014490860681E144964B22201D1
:105670005050124864B210EB0410C06850F00100A2
:105680000E4964B211EB0411C8600C4864B210EB0F
:105690000410806840084000084964B211EB04110E
:1056A00088600320054964B211EB0411886031BDA4
:1056B000E48700003C800440007003400071034018
:1056C0002DE9F04F85B0040064200500EDB2B02D47
:1056D00080F286800020824600208346002080469B
:1056E0000020814600200700FFB2502F36DA00204C
:1056F0000600F6B2BC2E2FDAFFB2BC2000FB07403A
:10570000F6B2305CEDB2A84212D25FF07E50514644
:1057100000F0F0FF8246FFB2BC2000FB0740F6B26B
:10572000305C00F065FA414600F0E4FF804611E08D
:105730005FF07E50594600F0DDFF8346FFB2BC208B
:1057400000FB0740F6B2305C00F052FA494600F028
:10575000D1FF8146B61CCCE7BF1CC5E74046514689
:1057600000F04AFF80464846594600F045FF814612
:1057700050468E4900F040FF8D4900F0D1FE824630
:1057800058468A4900F038FF894900F0C9FE83462F
:105790005046594600F0C4FE00904046494600F08D
:1057A0004BFE009900F0BCFE00904046494600F0D8
:1057B00043FE009900F0B4FE0290EDB2642D04D1D6
:1057C000029803908DF8045008E00398029900F0C5
:1057D0000BF903D2029803908DF80450AD1C75E7C5
:1057E0009DF8040005B0BDE8F08F70B400220023DE
:1057F0000C0000252A00D2B2502A1ADA00252B000C
:10580000DBB2BC2B13DAD2B2BC2505FB0205DBB23E
:105810005D5D2570674D2D782678B54202D2FF2553
:10582000257001E000252570641C5B1CE8E7521C14
:10583000E1E770BC7047F0B4049C00260E700026AF
:105840001E7001263500EDB2472D2BDA0E78002EA2
:105850000ED1EDB2461B96F85D60EDB2471B97F88E
:105860005E70BE4204D0D5F15D06167001260E7042
:105870001E78002E0ED1EDB22E1896F85D60EDB2B6
:105880002F1897F85E70BE4204D015F15E062670A0
:1058900001261E700E78012E02D11E78012E01D035
:1058A0006D1CD0E70E78002E01D1002616701E78F0
:1058B000002E01D1BB262670F0BC704770B40300E7
:1058C00000200C00E4B2D2B2944212D3E4B2BC2560
:1058D00005FB043595F85D50E4B2BC2606FB0436A2
:1058E00096F81961B54202D00125280001E0641E36
:1058F000E8E7C0B270BC70472DE9F04F85B00400F6
:105900000D0016001F00EDB2681C00F067F9029050
:10591000E4B2D4F1500000F061F98346FFB2781C84
:1059200000F05CF90190F6B2D6F1500000F056F9A3
:105930008246EDB2FFB2BD4227D05846514600F034
:105940007BFD00900298019900F076FD010000981F
:1059500000F052FE0390039800F05AF900F0CCFFDB
:1059600000F0BCFC81461448494600F0D9FD00F027
:105970004FF9124A124BFDF76FFF00F0AFFC814662
:10598000484600F009F980460AE05046594600F0C2
:105990002BF803D27FF05900804601E05A20804660
:1059A000404640B205B0BDE8F08F00000000BC42A8
:1059B000000020421004FF1F000034437FBDC2825C
:1059C000FB2109404FF0807C1CEB400F94BF1CEB87
:1059D000410F05E040EA010C5FEA4C0C01D2814224
:1059E000704718BF884270474FF0807C1CEB400F17
:1059F00094BF1CEB410F05E040EA010C5FEA4C0C40
:105A000001D28842704718BF8142704780B5002399
:105A100042F210720421002001F044F8002342F207
:105A200010720521002001F03DF8002342F21072AF
:105A30000621002001F036F8002342F210720721FF
:105A4000002001F02FF801BD10B5040024B2B4F518
:105A5000617F02DD4FF46170040024B214F5617FB0
:105A600001DA3148040024B2012C0BDB00220421AE
:105A7000002001F0DFF824B222000521002001F00F
:105A8000D9F818E024B2002C0BD524B262420421CC
:105A9000002001F0CFF800220521002001F0CAF813
:105AA00009E000220421002001F0C4F800220521B1
:105AB000002001F0BFF810BD10B5040024B2B4F509
:105AC000617F02DD4FF46170040024B214F5617F40
:105AD00001DA1548040024B2012C0BDB0022062158
:105AE000002001F0A7F824B222000721002001F0D5
:105AF000A1F818E024B2002C0BD524B26242062192
:105B0000002001F097F800220721002001F092F810
:105B100009E000220621002001F08CF80022072174
:105B2000002001F087F810BD7CFCFFFF70B403007B
:105B3000002200211900002900D55B420A2093FBB6
:105B4000F0F400FB14303030124C1055521C0A2077
:105B500093FBF0F3012BF1DA002903D52D200D4C36
:105B60001055521C00200B4C10550A4C094D28783A
:105B7000002801D06D1CFAE76D1EAC4207D22078D8
:105B8000060028782070641C2E706D1EF5E7014811
:105B900070BC7047500EFF1F4100090E7F3915D4AD
:105BA000D1F11F0114D4400007D2C00140F00040E1
:105BB000C84048BF6FF000407047C00140F000404F
:105BC000C8404CBF4FF00040404270470020704733
:105BD00000424FF0004058BFC0437047002840F1DA
:105BE0000980F446404200F005F850F0004060475C
:105BF000002800BF0AD0B0FA80F18840D1F19D01A1
:105C0000C905020672F1004241EB10207047000006
:105C10005FF0FF0C1CEAD05114BF614506E0C110D3
:105C2000400721F0E04101F16051704779B900F07F
:105C3000004100020AD0B0FA80FC00FA0CF001F139
:105C40006051A1EB0C5101EBD0214005704741029E
:105C50000CBF40F4E0016FF000010020704700002D
:105C60002DE9F84380460C005FEA981010F0070019
:105C7000C0B25FEA40194046103810F03F00C0B291
:105C8000C000050015EB09000700E4B217EBC400E3
:105C9000401E0600F6B2FFB2BE420DD30022002124
:105CA0003800C0B2FCF7CEF94FF481713800C0B2B1
:105CB000FCF7C2FA7F1CEDE7BDE8F1832DE9F84F50
:105CC00004000D0016001F009DF92880DDF82C90BF
:105CD000DDF830A04FFA88F8B8F1000F02D15FF07C
:105CE000010B11E04FFA88F8B8F1010F02D15FF013
:105CF000020B09E04FFA88F8B8F1020F02D15FF009
:105D0000040B01E05FF0100B4FFA88F8B8F1000FB8
:105D100005D16748854202D36648A84221D24FFA8E
:105D200088F8B8F1010F09D16148854206D362486D
:105D3000A84203D315F00300032812D14FFA88F8C4
:105D4000B8F1020F09D15A48854206D35B48A842F0
:105D500003D315F00300002803D061215848FCF755
:105D600000FBB9F5004F03D363215548FCF7F9FA5E
:105D70005448006850F002005249086052480068D8
:105D800050F0020050490860504864B261010D5063
:105D900064B2600100F1804010F5104006610020FF
:105DA00064B2610101F1804111F5104188805FFA10
:105DB0008BFB64B2600100F1804010F51040A0F848
:105DC00014B04FFA88F85FEA082010F4E0604FFA48
:105DD00088F818F00701084364B2610101F18041BD
:105DE00011F51041C88048464004400C64B261017E
:105DF00001F1804111F51041C88248464004400C31
:105E000064B2610101F1804111F51041C88330484D
:105E1000006830F080002E4908605FFA8BFB64B2A6
:105E2000600100F1804010F51040C0F808B000207B
:105E300064B2610101F1804111F51041C8605FEA6F
:105E4000CA7002D4D9F1000000E0002064B2610100
:105E500001F1804111F5104188614CF20A0064B2F1
:105E6000610101F1804111F510418883FFB2780989
:105E7000313050F08000174964B260541649380040
:105E8000C0B2FCF7D9F95946C9B22800FFF7E8FEBD
