:10000000F8FF0020110400006B2300006B230000A8
:100010006B2300006B2300006B2300006B230000A8
:100020006B2300006B2300006B2300006B23000098
:100030006B2300006B2300006B2300006B23000088
:100040006B2300006B2300006B2300006B23000078
:10040000FFFFFFFFFFFFFFFFFFFFFFFFFEFFFFFFFD
:1004100062B604F0EDFEFEE710B500200400E4B281
:10042000082C08DA0022012114F14000C0B201F0CA
:1004300009FE641CF3E700220121492001F002FEBD
:10044000012201214A2001F0FDFD012201214B2062
:1004500001F0F8FD002201214C2001F0F3FD002203
:1004600001214D2001F0EEFD4FF4A071492001F073
:100470007DFE4FF4A0714A2001F078FE4FF4A07188
:100480004B2001F073FE4FF4A0714C2001F06EFE82
:100490000020DFF8241D08600120DFF81C1D086023
:1004A0004FF4FA7001F0BAFE0120DFF8101D086069
:1004B0000020DFF80C1D08600020DFF8081D086030
:1004C0001120DFF8041D08700020DFF8001D08600F
:1004D0000120DFF8F81C08600120DFF8E81C086044
:1004E000782001F09BFE0120DFF8D01C086000207E
:1004F000DFF8CC1C08600020DFF8C81C0860B120C1
:10050000DFF8C41C08700020DFF8C01C0860012060
:10051000DFF8B81C08600120DFF8A81C0860012083
:10052000DFF8981C08600120DFF8941C08600020A8
:10053000DFF8901C08600520DFF88C1C0870002094
:10054000DFF8881C08600120DFF8801C08600120AB
:10055000DFF8701C08600120DFF8601C08600120D3
:10056000DFF85C1C08600020DFF8581C08603A20A7
:10057000DFF8541C08700020DFF8501C08600120D0
:10058000DFF8481C08600120DFF8381C08600120F3
:10059000DFF8281C08600120DFF8241C0860002018
:1005A000DFF8201C08603A20DFF81C1C08700020CF
:1005B000DFF8181C08600120DFF8101C086001201B
:1005C000DFF8001C08600120DFF8F01B0860002045
:1005D000DFF8EC1B08600020DFF8E81B0860B220A1
:1005E000DFF8E41B08700020DFF8E01B0860012042
:1005F000DFF8D81B08600120DFF8C81B0860012065
:10060000DFF8B81B08600120DFF8B41B0860002089
:10061000DFF8B01B08600520DFF8AC1B0870002075
:10062000DFF8A81B08600120DFF8A01B086001208C
:10063000DFF8901B08600120DFF8801B08600120B4
:10064000DFF87C1B08600020DFF8781B08603A2088
:10065000DFF8741B08700020DFF8701B08600120B1
:10066000DFF8681B08600120DFF8581B08600120D4
:10067000DFF8481B08600120DFF8441B08600020F9
:10068000DFF8401B08603A20DFF83C1B08700020B0
:10069000DFF8381B08600120DFF8301B08600120FC
:1006A000DFF8201B08600120DFF8101B0860002025
:1006B000DFF80C1B08600020DFF8081B0860B3207F
:1006C000DFF8041B08700020DFF8001B0860012021
:1006D000DFF8F81A08600120DFF8E81A0860012046
:1006E000DFF8D81A08600120DFF8D41A086000206B
:1006F000DFF8D01A08600520DFF8CC1A0870002057
:10070000DFF8C81A08600120DFF8C01A086001206D
:10071000DFF8B01A08600120DFF8A01A0860012095
:10072000DFF89C1A08600020DFF8981A08603A2069
:10073000DFF8941A08700020DFF8901A0860012092
:10074000DFF8881A08600120DFF8781A08600120B5
:10075000DFF8681A08600120DFF8641A08600020DA
:10076000DFF8601A08603A20DFF85C1A0870002091
:10077000DFF8581A08600120DFF8501A08600120DD
:10078000DFF8401A08600120DFF8301A0860012005
:10079000DFF82C1A08600020DFF8281A086005200E
:1007A000DFF8241A08700020DFF8201A0860012002
:1007B000DFF8181A08600120DFF8081A0860012025
:1007C000DFF8F81908600120DFF8F419086000204C
:1007D000DFF8F01908603A20DFF8EC190870002003
:1007E000DFF8E81908600120DFF8E019086001204F
:1007F000DFF8D01908600120DFF8C0190860012077
:10080000DFF8BC1908600020DFF8B81908603A204A
:10081000DFF8B41908700020DFF8B0190860012073
:10082000DFF8A81908600120DFF898190860012096
:10083000DFF8881908600020DFF8841908600020BC
:10084000DFF880190860B420DFF87C1908700020F8
:10085000DFF8781908600120DFF8701908600120BE
:10086000DFF8601908600120DFF8501908600120E6
:10087000DFF84C1908600020DFF8481908600720ED
:10088000DFF8441908700020DFF8401908600120E3
:10089000DFF8381908600120DFF828190860012006
:1008A000DFF8181908600020DFF81419086000202C
:1008B000DFF810190860C020DFF80C19087000205C
:1008C000DFF8081908600120DFF80019086001202E
:1008D000DFF8F01808600120DFF8E0180860012058
:1008E000DFF8DC1808600020DFF8D818086028203E
:1008F000DFF8D41808700020DFF8D0180860012055
:10090000DFF8C81808600120DFF8B8180860012077
:10091000DFF8A81808600120DFF8A418086000209C
:10092000DFF8A01808600820DFF89C180870002085
:10093000DFF8981808600120DFF89018086001209F
:10094000DFF8801808600120DFF8701808600120C7
:10095000DFF86C1808600020DFF868180860842051
:10096000DFF8641808700020DFF8601808600120C4
:10097000DFF8581808600120DFF8481808600120E7
:10098000DFF8381808600020DFF83418086000200D
:10099000DFF830180860C120DFF82C18087000203C
:1009A000DFF8281808600120DFF82018086001200F
:1009B000DFF8101808600120DFF800180860012037
:1009C000DFF8FC1708600020DFF8F8170860C02087
:1009D000DFF8F41708700020DFF8F0170860012036
:1009E000DFF8E81708600120DFF8D8170860012059
:1009F000DFF8C81708600020DFF8C417086000207F
:100A0000DFF8C0170860C220DFF8BC1708700020AC
:100A1000DFF8B81708600120DFF8B0170860012080
:100A2000DFF8A01708600120DFF8901708600120A8
:100A3000DFF88C1708600020DFF8881708600C20AA
:100A4000DFF8841708700020DFF8801708600120A5
:100A5000DFF8781708600120DFF8681708600120C8
:100A6000DFF8581708600120DFF8541708600020ED
:100A7000DFF8501708600020DFF84C1708700020DE
:100A8000DFF8481708600120DFF8401708600120F0
:100A9000DFF8301708600120DFF820170860002019
:100AA000DFF81C1708600020DFF818170860C32063
:100AB000DFF8141708700020DFF810170860012015
:100AC000DFF8081708600120DFF8F8160860012039
:100AD000DFF8E81608600120DFF8E416086000205F
:100AE000DFF8E01608608C20DFF8DC1608700020C4
:100AF000DFF8D81608600120DFF8D0160860012062
:100B0000DFF8C01608600120DFF8B0160860012089
:100B1000DFF8AC1608600020DFF8A81608602A206D
:100B2000DFF8A41608700020DFF8A0160860012086
:100B3000DFF8981608600120DFF8881608600120A9
:100B4000DFF8781608600020DFF8741608600020CF
:100B5000DFF870160860C420DFF86C1608700020FB
:100B6000DFF8681608600120DFF8601608600120D1
:100B7000DFF8501608600120DFF8401608600120F9
:100B8000DFF83C1608600020DFF8381608608A207D
:100B9000DFF8341608700020DFF8301608600120F6
:100BA000DFF8281608600120DFF818160860012019
:100BB000DFF8081608600120DFF80416086000203E
:100BC000DFF800160860EE20DFF8FC150870002042
:100BD000DFF8F81508600120DFF8F0150860012043
:100BE000DFF8E01508600120DFF8D015086000206C
:100BF000DFF8CC1508600020DFF8C8150860C520B4
:100C0000DFF8C41508700020DFF8C0150860012067
:100C1000DFF8B81508600120DFF8A815086001208A
:100C2000DFF8981508600120DFF8941508600020AF
:100C3000DFF8901508600C20DFF88C150870002094
:100C4000DFF8881508600120DFF8801508600120B2
:100C5000DFF8701508600120DFF8601508600020DB
:100C6000DFF85C1508600020DFF858150860E02008
:100C7000DFF8541508700020DFF8501508600120D7
:100C8000DFF8481508600120DFF8381508600120FA
:100C9000DFF8281508600120DFF82415086000201F
:100CA000DFF8201508600520DFF81C15087000200B
:100CB000DFF8181508600120DFF810150860012022
:100CC000DFF8001508600120DFF8F014086001204B
:100CD000DFF8EC1408600020DFF8E81408601A2040
:100CE000DFF8E41408700020DFF8E0140860012049
:100CF000DFF8D81408600120DFF8C814086001206C
:100D0000DFF8B81408600120DFF8B4140860002090
:100D1000DFF8B01408600C20DFF8AC140870002075
:100D2000DFF8A81408600120DFF8A0140860012093
:100D3000DFF8901408600120DFF8801408600120BB
:100D4000DFF87C1408600020DFF8781408600E20BB
:100D5000DFF8741408700020DFF8701408600120B8
:100D6000DFF8681408600120DFF8581408600120DB
:100D7000DFF8481408600120DFF844140860002000
:100D8000DFF8401408603A20DFF83C1408700020B7
:100D9000DFF8381408600120DFF830140860012003
:100DA000DFF8201408600120DFF81014086001202B
:100DB000DFF80C1408600020DFF808140860342005
:100DC000DFF8041408700020DFF800140860012028
:100DD000DFF8F81308600120DFF8E813086001204D
:100DE000DFF8D81308600120DFF8D4130860002072
:100DF000DFF8D01308602D20DFF8CC130870002036
:100E0000DFF8C81308600120DFF8C0130860012074
:100E1000DFF8B01308600120DFF8A013086001209C
:100E2000DFF89C1308600020DFF8981308602F207B
:100E3000DFF8941308700020DFF890130860012099
:100E4000DFF8881308600120DFF8781308600120BC
:100E5000DFF8681308600120DFF8641308600020E1
:100E6000DFF8601308602D20DFF85C1308700020A5
:100E7000DFF8581308600120DFF8501308600120E4
:100E8000DFF8401308600120DFF83013086001200C
:100E9000DFF82C1308600020DFF8281308602A20F0
:100EA000DFF8241308700020DFF820130860012009
:100EB000DFF8181308600120DFF80813086001202C
:100EC000DFF8F81208600120DFF8F4120860002053
:100ED000DFF8F01208602F20BB4908700020BB49E2
:100EE00008600120B94908600120B6490860012066
:100EF000B24908600120B24908600020B149086089
:100F00003C20B14908700020B04908600120AF4979
:100F100008600120AB4908600120A8490860012051
:100F2000A74908600020A74908600020A64908706A
:100F30000020A64908600120A44908600120A149B9
:100F4000086001209D49086001209D49086000203B
:100F50009C49086001209C49087000209B4908605A
:100F600001209A49086001209649086001209349B0
:100F70000860012092490860002092490860022020
:100F80009149087000209149086001208F4908604C
:100F900001208C49086001208849086001208849A7
:100FA00008600020874908601020874908700020E9
:100FB0008649086001208549086001208149086050
:100FC00001207E49086000207D49086000207D499D
:100FD0000860E1207C49087000207C4908600120FD
:100FE0007A49086001207749086001207349086048
:100FF000012073490860002072490860042072498A
:1010000008700020714908600120704908600120C3
:101010006C4908600120694908600120684908603E
:101020000020684908601B20674908700020674954
:1010300008600120654908600120624908600120BC
:101040005E49086001205E49086000205D49086033
:101050000D205D49087000205C49086001205B4953
:1010600008600120574908600120544908600120A8
:10107000534908600020534908600E205249087007
:1010800000205249086001205049086001204D4964
:101090000860012049490860012049490860002092
:1010A000484908602D2048490870002047490860D9
:1010B00001204649086001204249086001203F495B
:1010C000086001203E49086000203E490860292050
:1010D0003D49087000203D49086001203B490860F7
:1010E0000120384908600120344908600120344952
:1010F000086000203349086024203349087000202C
:101100003249086001203149086001202D490860FA
:1011100001202A4908600120294908600020294946
:10112000086029202849087000202849086001200B
:101130002649086001202349086001201F490860F2
:1011400001201F49086000201E49086028201E4910
:10115000087000201D49086001201C49086001201A
:1011600018490860012015490860012014490860E9
:1011700000201449086026201349087000201349F4
:10118000086001201149086001200E490860012013
:101190000A49086001200A490860002009490860DE
:1011A00031200949087000200849086001200749DA
:1011B0000860012003490BE03410FE432810FE4371
:1011C0003010FE432C10FE4380F00F402410FE43ED
:1011D00008600120DFF80C1C08600120DFF8081C03
:1011E00008600020DFF8041C08603B20DFF8001CCA
:1011F00008700020DFF8FC1B08600120DFF8F41BFA
:1012000008600120DFF8E41B08600120DFF8D41B30
:1012100008600120DFF8D01B08600020DFF8CC1B3D
:1012200008600020DFF8C81B08700020DFF8C41B2E
:1012300008600120DFF8BC1B08600120DFF8AC1B50
:1012400008600120DFF89C1B08600120DFF8981B74
:1012500008600020DFF8941B08600020DFF8901B76
:1012600008700020DFF88C1B08600120DFF8841B69
:1012700008600120DFF8741B08600120DFF8641BA0
:1012800008600120DFF8601B08600020DFF85C1BAD
:1012900008600320DFF8581B08700020DFF8541B9B
:1012A00008600120DFF84C1B08600120DFF83C1BC0
:1012B00008600120DFF82C1B08600120DFF8281BE4
:1012C00008600020DFF8241B08601220DFF8201BD4
:1012D00008700020DFF81C1B08600120DFF8141BD9
:1012E00008600120DFF8041B08600120DFF8F41A11
:1012F00008600020DFF8F01A08600020DFF8EC1A20
:1013000008603A20DFF8E81A08700020DFF8E41AD5
:1013100008600120DFF8DC1A08600120DFF8CC1A31
:1013200008600120DFF8BC1A08600120DFF8B81A55
:1013300008600020DFF8B41A08600520DFF8B01A52
:1013400008700020DFF8AC1A08600120DFF8A41A4A
:1013500008600120DFF8941A08600120DFF8841A81
:1013600008600020DFF8801A08600020DFF87C1A8F
:1013700008602920DFF8781A08700020DFF8741A56
:1013800008600120DFF86C1A08600120DFF85C1AA1
:1013900008600120DFF84C1A08600020DFF8481AC6
:1013A00008600020DFF8441A08602C20DFF8401A9B
:1013B00008700020DFF83C1A08600120DFF8341ABA
:1013C00008600120DFF8241A0860DFF8540C007868
:1013D00000F001F810BD10B50400E4B2042C04DBE9
:1013E000C821DFF8400C00F056FFDFF8340C047021
:1013F000E4B2002C09D0022C00F0B982C0F05E816A
:10140000032C00F0EA8300F0EBBC0120DFF8D419D4
:1014100008600020DFF8D01908600020DFF8CC1940
:1014200008603620DFF8C81908700020DFF8C419FA
:1014300008600120DFF8BC1908600120DFF8AC1952
:1014400008600120DFF89C1908600120DFF8981976
:1014500008600020DFF894190860C820DFF89019B0
:1014600008700020DFF88C1908600120DFF884196B
:1014700008600120DFF8741908600120DFF86419A2
:1014800008600020DFF8601908600020DFF85C19B0
:1014900008602A20DFF8581908700020DFF8541976
:1014A00008600120DFF84C1908600120DFF83C19C2
:1014B00008600120DFF82C1908600120DFF82819E6
:1014C00008600020DFF8241908600020DFF82019E8
:1014D00008700020DFF81C1908600120DFF81419DB
:1014E00008600120DFF8041908600120DFF8F41813
:1014F00008600120DFF8F01808600020DFF8EC1821
:1015000008600220DFF8E81808700020DFF8E4180F
:1015100008600120DFF8DC1808600120DFF8CC1833
:1015200008600120DFF8BC1808600120DFF8B81857
:1015300008600020DFF8B41808600020DFF8B01859
:1015400008700020DFF8AC1808600120DFF8A4184C
:1015500008600120DFF8941808600120DFF8841883
:1015600008600120DFF8801808600020DFF87C1890
:1015700008608120DFF8781808700020DFF8741800
:1015800008600120DFF86C1808600120DFF85C18A3
:1015900008600120DFF84C1808600020DFF84818C8
:1015A00008600020DFF8441808602B20DFF840189E
:1015B00008700020DFF83C1808600120DFF83418BC
:1015C00008600120DFF8241808600120DFF81418F3
:1015D00008600120DFF8101808600020DFF80C1800
:1015E00008600020DFF8081808700020DFF80418F1
:1015F00008600120DFF8FC1708600120DFF8EC1715
:1016000008600120DFF8DC1708600120DFF8D81738
:1016100008600020DFF8D41708600320DFF8D01737
:1016200008700020DFF8CC1708600120DFF8C4172D
:1016300008600120DFF8B41708600120DFF8A41764
:1016400008600120DFF8A01708600020DFF89C1771
:1016500008600020DFF8981708700020DFF8941762
:1016600008600120DFF88C1708600120DFF87C1784
:1016700008600120DFF86C1708600120DFF86817A8
:1016800008600020DFF8641708608220DFF8601728
:1016900008700020DFF85C1708600120DFF854179D
:1016A00008600120DFF8441708608020DFF878190F
:1016B00008808020DFF87419088091E30120DFF8AA
:1016C000241708600020DFF8201708600020DFF8EA
:1016D0001C1708603620DFF8181708700020DFF8A4
:1016E000141708600120DFF80C1708600120DFF8EC
:1016F000FC1608600120DFF8EC1608600120DFF816
:10170000E81608600020DFF8E4160860A820DFF87B
:10171000E01608700020DFF8DC1608600120DFF812
:10172000D41608600120DFF8C41608600120DFF835
:10173000B41608600020DFF8B01608600020DFF85B
:10174000AC1608602A20DFF8A81608700020DFF821
:10175000A41608600120DFF89C1608600120DFF85D
:101760008C1608600120DFF87C1608600120DFF885
:10177000781608600020DFF8741608600020DFF893
:10178000701608700020DFF86C1608600120DFF882
:10179000641608600120DFF8541608600120DFF8A5
:1017A000441608600120DFF8401608600020DFF8CA
:1017B0003C1608600320DFF8381608700020DFF8B8
:1017C000341608600120DFF82C1608600120DFF8CD
:1017D0001C1608600120DFF80C1608600120DFF8F5
:1017E000081608600020DFF8041608600020DFF803
:1017F000001608700020DFF8FC1508600120DFF8F3
:10180000F41508600120DFF8E41508600120DFF816
:10181000D41508600120DFF8D01508600020DFF83B
:10182000CC1508608220DFF8C81508700020DFF8AA
:10183000C41508600120DFF8BC1508600120DFF83E
:10184000AC1508600120DFF89C1508600020DFF867
:10185000981508600020DFF8941508602B20DFF849
:10186000901508700020DFF88C1508600120DFF863
:10187000841508600120DFF8741508600120DFF886
:10188000641508600120DFF8601508600020DFF8AB
:101890005C1508600020DFF8581508700020DFF89C
:1018A000541508600120DFF84C1508600120DFF8AE
:1018B0003C1508600120DFF82C1508600120DFF8D6
:1018C000281508600020DFF8241508600220DFF8E2
:1018D000201508700020DFF81C1508600120DFF8D3
:1018E000141508600120DFF8041508600120DFF8F6
:1018F000F41408600120DFF8F01408600020DFF81D
:10190000EC1408600020DFF8E81408700020DFF80D
:10191000E41408600120DFF8DC1408600120DFF81F
:10192000CC1408600120DFF8BC1408600120DFF847
:10193000B81408600020DFF8B41408608120DFF8D4
:10194000B01408700020DFF8AC1408600120DFF844
:10195000A41408600120DFF8941408608020DFF8E8
:10196000C81608808020DFF8C416088038E20120FD
:10197000DFF8701408600020DFF86C1408600020A5
:10198000DFF8681408603620DFF86414087000205F
:10199000DFF8601408600120DFF8581408600120A7
:1019A000DFF8481408600120DFF8381408600120CF
:1019B000DFF8341408600020DFF8301408600820D5
:1019C000DFF82C1408700020DFF8281408600120CC
:1019D000DFF8201408600120DFF8101408600120EF
:1019E000DFF8001408600020DFF8FC130860002016
:1019F000DFF8F81308602A20DFF8F41308700020DD
:101A0000DFF8F01308600120DFF8E8130860012018
:101A1000DFF8D81308600120DFF8C8130860012040
:101A2000DFF8C41308600020DFF8C013086000204E
:101A3000DFF8BC1308700020DFF8B813086001203D
:101A4000DFF8B01308600120DFF8A0130860012060
:101A5000DFF8901308600120DFF88C130860002085
:101A6000DFF8881308600220DFF884130870002074
:101A7000DFF8801308600120DFF878130860012088
:101A8000DFF8681308600120DFF8581308600120B0
:101A9000DFF8541308600020DFF8501308600020BE
:101AA000DFF84C1308700020DFF8481308600120AD
:101AB000DFF8401308600120DFF8301308600120D0
:101AC000DFF8201308600120DFF81C1308600020F5
:101AD000DFF8181308608120DFF814130870002065
:101AE000DFF8101308600120DFF8081308600120F8
:101AF000DFF8F81208600120BA4908600020BA49EE
:101B000008600020B94908602B20B94908700020FE
:101B1000B84908600120B74908600120B34908604E
:101B20000120B04908600120AF4908600020AF499A
:101B300008600020AE4908700020AE49086001200E
:101B4000AC4908600120A94908600120A549086046
:101B50000120A54908600020A44908600320A44989
:101B600008700020A34908600120A24908600120F4
:101B70009E49086001209B49086001209A4908603D
:101B800000209A490860002099490870002099496E
:101B900008600120974908600120944908600120ED
:101BA0009049086001209049086000208F49086032
:101BB00082208F49087000208E49086001208D49DD
:101BC00008600120894908608020DFF85C140880E3
:101BD0008020DFF85814088002E101208149086064
:101BE0000020814908600020804908603620804933
:101BF000087000207F49086001207E4908600120AC
:101C00007A49086001207749086001207649086018
:101C100000207649086068207549087000207549E1
:101C200008600120734908600120704908600120A4
:101C30006C49086000206C49086000206B4908600E
:101C40002A206B49087000206A4908600120694910
:101C50000860012065490860012062490860012090
:101C600061490860002061490860002060490870EF
:101C700000206049086001205E49086001205B493E
:101C8000086001205749086001205749086000207A
:101C900056490860032056490870002055490860DD
:101CA00001205449086001205049086001204D4935
:101CB000086001204C49086000204C490860002061
:101CC0004B49087000204B490860012049490860D1
:101CD000012046490860012042490860012042492C
:101CE00008600020414908608220414908700020B6
:101CF0004049086001203F49086001203B490860D5
:101D00000120384908600020374908600020374921
:101D100008602B20364908700020364908600120F1
:101D20003449086001203149086001202D490860CC
:101D300001202D49086000202C49086000202C4912
:101D4000087000202B49086001202A490860012002
:101D500026490860012023490860012022490860C3
:101D600000202249086002202149087000202149F2
:101D7000086001201F49086001201C4908600120FB
:101D800018490860012018490860002017490860B8
:101D900000201749087000201649086001201549E5
:101DA000086001201149086001200E4908600120E7
:101DB0000D49086000200D49086081200C49087019
:101DC00000200C49086001200A49086001200749E9
:101DD0000860802094490880802094490880FFE7AB
:101DE00010BD00002810FE433010FE432C10FE43AF
:101DF00080F00F402410FE4303B489480078C007E8
:101E00000AD5BDF80000C01CADF80000BDF8020006
:101E1000801CADF8020009E0BDF80000801CADF8A0
:101E20000000BDF80200C01CADF80200012080498E
:101E3000086000207F49086000207F4908602A2050
:101E40007E49087000207E49086001207C490860B6
:101E50000120794908600120754908600120754911
:101E60000860002074490860BDF8000080B2000AD4
:101E700072490870002072490860012070490860AA
:101E800001206D4908600120694908600120694905
:101E90000860002068490860BDF8000067490870C4
:101EA00000206749086001206549086001206249F7
:101EB000086001205E49086001205E49086000203A
:101EC0005D490860BDF80000BDF8041011FA80F00B
:101ED000401E00125949087000205949086001202D
:101EE00057490860012054490860012050490860A2
:101EF00001205049086000204F490860BDF80000EB
:101F0000BDF804100818401E4C49087000204C49C8
:101F1000086001204A490860012047490860012003
:101F20004349086000204349086000204249086096
:101F30002B20424908700020414908600120404997
:101F4000086001203C4908600120394908600120EF
:101F500038490860002038490860BDF8020080B2A6
:101F6000000A3649087000203549086001203449CC
:101F7000086001203049086001202D4908600120D7
:101F80002C49086000202C490860BDF802002B494C
:101F9000087000202A4908600120294908600120B2
:101FA0002549086001202249086001202149086074
:101FB000002021490860BDF80200BDF8061011FAA2
:101FC00080F0401E00121D49087000201C49086066
:101FD00001201B49086001201749086001201449AD
:101FE0000860012013490860002013490860BDF80B
:101FF0000200BDF806100818401E104908700020A5
:102000000F49086001200E49086001200A49086054
:1020100002B0704704480088704704480088704741
:10202000680EFF1F9C550000C40BFF1FC60BFF1F4F
:102030002810FE433010FE432C10FE4380F00F406A
:102040002410FE4370B504000D0016004FF480719B
:102050002000C0B200F08AF86DB2002D11D14148C5
:10206000E4B2611150F821003E49E4B2621151F826
:1020700022104969012214F01F039A4091434161E3
:1020800036E03848E4B2611150F821003549E4B235
:10209000621151F822104969012214F01F039A407D
:1020A00011434161F6B2002E11D12E48E4B2611104
:1020B00050F821000068012114F01F02914088436C
:1020C0002849E4B2621151F82210086010E0254856
:1020D000E4B2611150F821000068012114F01F02E0
:1020E000914008431F49E4B2621151F82210086080
:1020F00070BD10B504001B48E4B2611150F8210016
:10210000406914F01F01C840C00703D47B21164862
:1021100000F0C1F81348E4B2611150F82100012128
:1021200014F01F029140C16010BD10B504000D48AD
:10213000E4B2611150F82100406914F01F01C84059
:10214000C00703D58C21084800F0A5F80548E4B283
:10215000611150F82100006914F01F01C84010F00F
:10216000010010BD340BFF1F5856000010B4294A5F
:1021700012684FF40073C0B24409A3401A43254BC0
:102180001A60254AC0B2431152F82320012310F0EF
:102190001F04A340C2F8A0301F4AC0B2431152F836
:1021A0002320C0B210F01F0342F8231010BC704768
:1021B00010B4184A12684FF40073C0B24409A34027
:1021C0001A43144B1A60144AC0B2431152F8232028
:1021D000012310F01F04A340C2F8A03031F4E061E5
:1021E0000D4AC0B2431152F82320C0B210F01F03B1
:1021F00052F8232012F4E0621143074AC0B243119F
:1022000052F82320C0B210F01F0342F8231010BC74
:102210007047000038800440900BFF1F80B20028F8
:102220001BD00E49096851F001010C4A11600021D0
:102230000B4A116080B20C4908600521094A1160FF
:102240000121074A1160064909680906FBD50449BE
:10225000096849084900024A116070473880044003
:10226000000004400400044008000440DFF800F0CF
:102270003D0CFF1FDFF800F06D0CFF1FBFF34F8F09
:102280004648006810F4E060454908434349086047
:10229000BFF34F8FFEE738B504000D00002000F0BB
:1022A0008DF82A0021003F4800F0C0F8002000F01F
:1022B000A2F84FF47A70FFF7B1FFF2E738B50400E7
:1022C0000D00210049B2042000F0CEF9200032BDFB
:1022D00010B50024042000F0E1F9042000F014FA05
:1022E000002841D1002000F069F8042000F00CFA29
:1022F000012801D101200400002000F07CF82A48C8
:1023000000F094F84FF4FA70FFF788FFE4B2012C64
:10231000EBD1042000F0F8F90028E6D1042000F009
:10232000F3F9002806D1002000F065F86420FFF7DB
:1023300075FFF3E7042000F0E7F9012806D100203B
:1023400000F059F83220FFF769FFF3E7174800F073
:102350006DF8FFF78BFF6420FFF760FF0020FFF7A9
:1023600089FFFFF78BFFC0E710BD10B51048046868
:10237000012000F023F8012000F03DF80D48E4B200
:102380000F2101FB0402E4B221000B4800F04EF8DB
:102390004FF47A70FFF742FFEDE700000CED00E02C
:1023A0000400FA0518580000CC5800004C580000F2
:1023B00004ED00E02C04FF1FB457000010B504002A
:1023C00064B2042C07DA01220121174864B2205CB0
:1023D000FFF738FE0EE0042004002000441E40B247
:1023E000002807D0012201210F4864B2205CFFF7CA
:1023F00029FEF2E710BD10B5040064B2042C05DA22
:10240000094864B2205CFFF774FE0CE0042004006D
:102410002000441E40B2002805D0034864B2205C6E
:10242000FFF767FEF4E710BDC80BFF1F0EB400B541
:1024300082B003A90091024600AB01210348784411
:102440000A3000F03BFA06BC5DF810FB5D3400007A
:102450002DE9F84304000D0064B2002C08D0022CD2
:102460002CD018D3042C4FD03BD3052C5FD071E077
:10247000DFF81002006850F48060DFF8081208608E
:102480004FF440716620FFF771FE4FF440716720F2
:10249000FFF76CFE5EE0DFF8EC01006850F40060CE
:1024A000DFF8E01108604FF440714320FFF75EFE53
:1024B0004FF440714420FFF759FE4BE0DFF8C401B0
:1024C000006850F48050DFF8BC1108604FF4407190
:1024D0006320FFF74BFE4FF440716220FFF746FE8A
:1024E00038E0DFF8A001006850F40050DFF89411E4
:1024F00008604FF440715020FFF738FE4FF44071F0
:102500005120FFF733FE25E0DFF87C01006850F42E
:102510008060DFF8741108604FF440719920FFF774
:1025200025FE4FF440719820FFF720FE12E0DFF8FF
:102530005801006850F40060DFF84C1108604FF457
:1025400040718920FFF712FE4FF440718820FFF799
:102550000DFEFFE7DFF8340164B250F82400C078C4
:1025600010F0F300DFF8241164B251F82410C870A1
:10257000DFF8180164B250F824008078DFF80C11FD
:1025800064B251F82410887064B2002C02D064B296
:10259000012C07D1DFF8F80000684FF47A71484346
:1025A000814606E0DFF8EC0000684FF47A7148439A
:1025B00081462801B9FBF0F00600B6B2B6F5005F1F
:1025C00002DB41F6FF700600B9FBF5F0B6B2B0EBE6
:1025D00006100700BFB2202F03DBDC212E48FFF7D7
:1025E0005AFE2A4864B250F82400007810F0E00047
:1025F0008046B6B2300A10F01F0050EA08002349A6
:1026000064B251F824100870204864B250F82400D5
:1026100046701E4864B250F82400807A10F0E00042
:10262000804617F01F0050EA0800184964B251F8BC
:1026300024108872154864B250F82400007C50F0D1
:102640008800124964B251F8241008740F4864B22B
:1026500050F82400C07850F00C000C4964B251F8D6
:102660002410C870BDE8F183084A40B252F8202017
:1026700012791206F8D5054A40B252F82020D171DD
:10268000704700003480044028800440A40BFF1FE2
:10269000D80DFF1FE00DFF1F0857000010B5040004
:1026A00064B2082C0DDA002200217E4864B2205C5E
:1026B000FFF7C8FC03217B4864B2205CFFF778FD7C
:1026C00014E0082004002000441E40B200280DD071
:1026D00000220021734864B2205CFFF7B3FC0321A1
:1026E000704864B2205CFFF763FDECE710BD10B5E5
:1026F00004006C4864B2205CFFF717FD002801D18C
:10270000002000E0012010BD10B50400200040B200
:10271000FFF7EDFF00280AD10A20FFF77FFD200018
:1027200040B2FFF7E4FF002801D1002000E00120C3
:1027300010BD01B45C490978022929D09DF8001028
:102740005A4A5B4B1B7802F813109DF80110574A48
:10275000574B1B7812EB4302517055490978491CBD
:10276000534A117052490978142902DB0021504A5A
:1027700011704F49097808004E490978C0B2884263
:1027800003D10221484A117002E00121464A11702A
:1027900001B07047010044480078002801D10020B2
:1027A00028E04248434B1B7810F8130008703F485C
:1027B000404B1B7810EB4300407848703D48007850
:1027C000401C3C4B18703B480078142802DB00206A
:1027D000384B187036480078020036480078D2B27C
:1027E000904203D10020304B187002E001202E4BA4
:1027F00018700120704710B582B00020040064B248
:10280000082C4EDA200040B2FFF771FF002835D1C6
:10281000294864B2205C401C274964B260542648B1
:1028200064B2205C02283ADB234864B2205C0228B0
:1028300008D18DF8004000208DF801000098FFF7C6
:1028400078FF2CE01C4864B2205C332827DB1A4850
:1028500064B2205C33280CD18DF8004002208DF842
:1028600001000098FFF765FF0220134964B260542D
:1028700015E00220104964B2605410E00E4864B2C2
:10288000205C022807DB8DF8004001208DF8010054
:102890000098FFF74EFF0020074964B26054641CA3
:1028A000ADE713BDBC0BFF1F670EFF1FE40DFF1F3D
:1028B000660EFF1F650EFF1F0C0EFF1F2DE9F04F68
:1028C000A1B08246002017461D4602910B900DF1E3
:1028D000440B6FF000490AE017F8011B0298D0473B
:1028E0000290002800F0A3820B98401C0B903878CF
:1028F00008B90B989DE22528EED10020059006909E
:102900000790089009900A9001E040F0010017F844
:10291000011F2029F9D023290DD02B2904D02D29DE
:1029200006D030290AD00CE040F0020080B2EEE779
:1029300040F00400FAE740F00800F7E740F010002C
:10294000F4E72A290ED12968296051F8042B29605F
:102950000D92002A04D5514240F004000D9180B23E
:102960007F1C11E000210D9109E00D99494505D02A
:1029700001EB810302EB430130390D917F1C3A7862
:10298000A2F130010A29F0D339782E2903D04FF073
:10299000FF310C911DE017F8011F2A2907D1296882
:1029A00029607F1C51F8042B29600C9211E0002152
:1029B0000C9109E00C99494505D001EB810302EB2C
:1029C000430130390C917F1C3A78A2F130010A2979
:1029D000F0D3ADF838000FF6B820397800F076FD66
:1029E00008B117F8010B8DF83A009DF83A006828F5
:1029F00002BF39786829622005D06C2804BF387876
:102A00006C2803D171208DF83A007F1C11A8049026
:102A100017F8014BB4F1250024D02038022840F2E9
:102A2000C680133800F0EC800B3800F05081401E57
:102A300000F02581401E022840F2B980001F00F0FE
:102A40001E81401F00F08480401E00F0D980401E8F
:102A500029D0C01E0CD0801E00F0D280C01E00F015
:102A6000CF803EE10120059025208DF8440044E10F
:102A70002868286050F8044B28600394DDF8308003
:102A8000B8F1000F04D5204600F02CFD804607E089
:102A900042460021204600F041FD08B1A0EB0408A9
:102AA000CDF8188029E1296829604FF03C0851F8D9
:102AB000040B29600021CDE9000111A80390DDE994
:102AC0000001049C11B908B90C9ACAB10206120F90
:102AD000A0EB02123032A8F1010ED2B2F0463A2A2F
:102AE000A8BF273200090EF8042040EA0170090946
:102AF00008BF002804D0039A08EB04039A42E5D3E8
:102B000008EB04000390C8F13C010C980691814247
:102B100009DA401A08904FF6EF71BDF83800084006
:102B2000ADF83800E9E0002840F1E7809DF8380072
:102B300000F01400102840F0E0800D98059A801AEB
:102B4000089A801A401A0128C0F2D7800890D4E071
:102B50009DF83A0062281AD0682806D06A280CD05E
:102B60006C281CD0712808D019E02868286050F81B
:102B7000041B28600B980880BFE02868286050F884
:102B8000042B28600B98C117C2E90001B5E0286842
:102B9000286050F8041B28600B980870ADE0286886
:102BA000286050F8041B28600B980860A5E028688E
:102BB000C01D20F007022A60D2E9000108322A6015
:102BC000CDE90001002903D5012005902D200CE05E
:102BD000BDF83800810703D5012005902B2004E0C3
:102BE000C00704D50120059020208DF844000599E8
:102BF00011A808180390214600A800F0D7F97CE03E
:102C00009DF83A206C2A0DD0712A18BF6A2A09D182
:102C10002868C01D20F007032B60D3E900010833AA
:102C20002B6005E02968296051F8040B2960002118
:102C3000CDE90001682A08BF80B207D0622A08BF28
:102C4000C0B203D0742A18BF7A2A02D10021CDE97C
:102C500000019DF83800000730D5DDE900010029AA
:102C600008BF00282AD044F02000782826D1302040
:102C70008DF844008BF80140022005901EE02946A3
:102C80009DF83A0000F0D8F8CDE90001002904DAF7
:102C90000598411C05912D210EE0BDF838008107F3
:102CA00004D50598411C05912B2105E0C00705D5E9
:102CB0000598411C0591202100F80B10059911A8D9
:102CC00008180390214600A800F0EDF815E0012057
:102CD00005902868286050F8041B28608DF844107F
:102CE0000BE00120059025208DF84400002C04D035
:102CF0000598411C059100F80B400D980599401A64
:102D00000899401A0699401A0999401A0799401AD9
:102D10000A99A0EB01089DF8380040070FD4202045
:102D20008DF84000002408E0012310AA00A95046B5
:102D300000F097FB00287AD1641C4445F4DB059C25
:102D400011AE0AE016F8011B0298D0470290002845
:102D50006DD00B98401C0B90641E002CF2D13020DB
:102D60008DF840000026089C08E0012310AA00A965
:102D7000504600F076FB002859D1761CA642F4DBC1
:102D8000069C039E0AE016F8011B0298D0470290A9
:102D900000284CD00B98401C0B90641E002CF2D1E4
:102DA00030208DF840000026099C07E0012310AA7E
:102DB00000A9504600F055FBC8BB761CA642F5DBC7
:102DC00003980699079C0E1809E016F8011B029853
:102DD000D047029058B30B98401C0B90641E002CF7
:102DE000F3D130208DF8400000260A9C07E0012333
:102DF00010AA00A9504600F034FBC0B9761CA642C8
:102E0000F5DB9DF8380040077FF571AD20208DF887
:102E10004000002400E0641C4445BFF668AD012377
:102E200010AA00A9504600F01CFB0028F3D04FF078
:102E3000FF3021B0BDE8F08F622826D068281DD071
:102E40006A2808D06C2827D0712804D0742823D091
:102E50007A280CD020E00868C01D20F00700086028
:102E6000D0E90023083008601946104670470A6808
:102E70000A6052F8040B0A60002170470A680A6071
:102E800052F8040B0A6000B20BE00A680A6052F8BC
:102E9000040B0A6040B204E00A680A6052F8040BAE
:102EA0000A60C11770472DE9FA4E05460A462F6998
:102EB0006F2A08BF082405D041F02000782814BFED
:102EC0000A241024D5E900013C2681468A46642A5A
:102ED00018BF692A05D1002903DAD9F100096AEB84
:102EE0004A0ABAF1000F08BFB9F1000F0CD1286BE4
:102EF00050B9082C36D195F83800000732D530206B
:102F00003B2687F83B002DE0E31748465146224612
:102F100000F030FBA4FB0023A9EB02023032A6F143
:102F2000010BD2B25E463A2A03DB9DF80030513BDA
:102F30009A180BF8072081465FEA010A08BFB9F129
:102F4000000F03D0E868F1198842DDD3082C09D1BD
:102F500095F83800000705D5F05D302802D0761EC0
:102F60003020F055C6F13C00A861F119E960296BE9
:102F7000884208DA081A28624FF6EF71288F084055
:102F80002887BDE8F38E00290ED595F8381001F09A
:102F90001401102908D1696B6A69891A2A6A891A89
:102FA000081A0128A8BF2862BDE8F38E2DE9F34F67
:102FB0008BB0D0E90089006B01AF002848BF062024
:102FC00005D404BF41F02000672802D101200B99ED
:102FD000086340F2FF720B984168C1F30A509042B7
:102FE00020D1080302BF0B98006800280AD10B9972
:102FF000032088619DF8300061381A2858D30FF2F9
:10300000A44109E00B99032088619DF830006138E4
:103010001A284AD30FF284410B98C068032200F0AB
:1030200021FB00E1012807DA0B9800F056FB01288C
:1030300002DB00230026EDE00B9A526840F2FE31DD
:1030400061F31E520B994A6040F2FE31461A404627
:1030500049460022002300F061FB38BF89F0004997
:1030600036B247F2975070434949DFF828B190FBD8
:10307000F1F636B2C6F107079246012F1BDBF807BF
:1030800007D552465B464046494600F05FFB804606
:1030900089467F105046594652465B4600F056FB23
:1030A00082468B46002FEAD126E00FF2EC31B3E7DF
:1030B0000FF2EC31B0E77F420024374D12E0F80701
:1030C00007D552465B462046294600F03FFB0446A2
:1030D0000D467F105046594652465B4600F036FB7F
:1030E00082468B46002FEAD14046494622462B466F
:1030F00000F0FEFB804689469DF8300040F0200538
:10310000662D0CBF06F10A0006200B99096B4718C3
:10311000142FA8BF132730208DF804000DF10504EB
:10312000DFF878B0012F3BDB4046494600F004FD54
:10313000014604F1080204234FF00A0CB1FBFCFC29
:103140000CEB8C04A1EB4401303102F8011D0A2183
:10315000BCFBF1FE0EEB8E04ACEB44043034714644
:1031600002F8014D5B1EE7D1083F02F10804012F70
:10317000D8DB00F0F7FC02460B464046494600F01B
:10318000FFFC00225B4600F0E1FA80468946CBE76F
:10319000A0860100000024400000F03F84D7974142
:1031A0000DF10500201A0DF1050702E0401E761E04
:1031B0007F1C39783029F9D0662D02D136B2711CC6
:1031C00003E0652D0CBF012100210B9A126B8B18B7
:1031D0001BB29842B8BF03461BB219001AD48142F1
:1031E00004DAC85D3528A8BF392000DA3020CA19B2
:1031F000521E00E05B1E12F80159491E8542F9D0AB
:10320000392802D1C85D401CC855002902D57F1E4F
:103210005B1C761C36B29DF830100B9800961BB2E2
:103220003A4600F003F80DB0BDE8F08F2DE9F04705
:1032300086B006468A4690461D4600F07EFD406AEE
:10324000376B90F80090012D02DA01250FF2582813
:103250004AF02000BDF93840662808BF641C13D02E
:10326000672840F0888014F1040F73DBBC4271DAE8
:1032700096F83800641C000702D4BD42B8BF2F4640
:1032800024B23F1B48BF0027F068B16924B2012C6B
:1032900021DA30234A1C0B54012F03DA96F8381038
:1032A000090702D502F80090521CB261E742B8BF8C
:1032B0007C4224B26142E7197162AF42B8BF3D4619
:1032C0002DB2F5612A46B3694146181800F0CAF9D3
:1032D000781BB062AEE00818A54216DA2A464146CD
:1032E00000F0C0F9B1696918B161601B7062012F0B
:1032F00003DA96F83800000705D5F06801F8009069
:10330000F069401CF061B76294E02246414600F04B
:10331000A9F9B06920182D1B012F03DA96F838108F
:10332000090703D5F16800F80190401C2DB2B06187
:10333000AF42B8BF3D46F068B3692DB22A4604EBF0
:103340000801181800F08EF9B0692818B061781BD0
:1033500070626FE0BD4204DA96F83810090758BF72
:103360002F467F1E48BF0027BAF1670F0CBF4FF0F2
:10337000650A4FF0450AB169F06818F8013B0B5433
:103380004A1C012F05DA96F83810090758BFB261B8
:1033900015D502F80090531CB361012F0FDB6D1E91
:1033A0002DB2AF42B8BF3D462DB22A46414618184D
:1033B00000F058F9B0692818B061781B7062F068A5
:1033C000B16901EB0008200008F801AB03D42B2001
:1033D00008F8010B03E02D2108F8011B64420025C9
:1033E00002AF08E00A2200A800F0C0FC019807F82C
:1033F000010B6D1C009C21B20129F3DA022D06DAC3
:103400004AF02000652804BF302008F8010B4DB9B0
:10341000302008F8010B07E06D1E02A8285C303050
:1034200008F8010B012DF7DAF068B1690818A8EB6C
:103430000000F06196F8380000F0140010280DD15B
:103440007069B1690818716A0818F1690818B16AD9
:103450000818716B8842BCBF081A306206B0BDE81C
:10346000F087F8B504460D4616461F46002004E0D6
:10347000E86A401CE8627F1E002047B116F8011B75
:10348000A868A047A8600028F2D14FF0FF30F2BD35
:10349000686A6C747A4C00006E616E004E414E009A
:1034A000696E6600494E4600300050F8041B61B159
:1034B00050F8042BD30744BFA9F101039A18002345
:1034C00042F8043B091FFAD1EFE770470278C9B20E
:1034D0008A421AB11CBF10F8012FF9E718BF00206B
:1034E0007047000000F10103810704D010F8011BB0
:1034F00089B18107FAD10268B2F10131914311F02B
:10350000803F04BF50F8042FF6E710F8011B11B1FB
:1035100010F8011BFBE7C01A70470000C9B283070F
:1035200006D0521E22D310F8013B9942F7D11FE07A
:10353000083A13D302F1040241EA012141EA0141B0
:1035400050F8043B121F21BF4B40A3F1013C2CEA71
:10355000030C1CF0803FF3D0C9B2001F083210F8F2
:10356000013B521E28BF91EA030FF8D818BF012073
:10357000401E70471B4213D1094236D12AB18446FE
:10358000B0FBF2F002FB10C2704700F0F7BBFCD3B7
:103590000022002370470B0002000021002070472A
:1035A000904271EB030CF6D370B5B1FA81F4B3FA23
:1035B00083F52C1BA340C4F1200532FA05F63343F2
:1035C000A2405FF00046E64002E05B085FEA32029C
:1035D000841A71EB030524BF204629467641F4D3B3
:1035E00002000B003000002170BD012ACFD970B558
:1035F000140C20D0B1FA81F4B2FA82F5C4F120049F
:103600006419B4F12006D6D3B2405FF00044F44010
:10361000002502E052085FEA3303C61A71EB020E7E
:1036200024BF3046714664416D41F3D302000B0064
:103630002000290070BD0C46B1FBF2F102FB1145E0
:103640002D0445EA1045B5FBF2F402FB145580B297
:1036500040EA0545B5FBF2F002FB105240EA044097
:1036600070BD000062B38B0708D0521E11F8013BF9
:1036700000F8013B00F024808B07F6D1830740F06F
:10368000208000BF103A07D330B4B1E83810103AA8
:10369000A0E83810F9D230BC530724BFB1E80810B5
:1036A000A0E8081044BF51F8043B40F8043BD2079F
:1036B00024BF31F8022B20F8022B44BF0B78037093
:1036C0007047083A07D3B1E80810083A40F8043BBD
:1036D00040F804CBF7D25307E4E730B4436803F073
:1036E000004201211B031B0B436004BF0368002B36
:1036F00008D10DE00368DD0F45EA440444605B0037
:103700000360491E4468E302F4D523031B0B4360A6
:1037100043681A434260084630BC70474FF4001CAF
:103720001CEB410F94BF1CEB430F09E041EA030C73
:1037300050EA4C0C52EA0C0C03D2994208BF90425A
:10374000704714BF8B42824270470000B0B581EAD7
:10375000030C0CF0004C40F2FF7515EA11541DBF2C
:1037600015EA1357AC42AF4239E0E41923EA455356
:1037700043F48013C90241F0004141EA505EC702A0
:103780001100A7FB020200284FF00000EEFB012011
:103790004FF00001E3FB072118BF42F0010240187F
:1037A00000214941E3FB0E01A4F580640F0302D21E
:1037B00052004041494154F101046CDD470872F167
:1037C000004250F1000051EB0451A1F580115CBFA3
:1037D00041EA0C01B0BD4CEA05510020B0BD05EA3C
:1037E0001357AC4214BFAF4241E050EA410E1CBF38
:1037F00052EA430E02E061460020B0BD24423C4440
:103800001BD15FEA070EF6D0090302BF0146002074
:10381000AEF1140EB1FA81F7AEEB070401FA07FE20
:103820000C37C7F1200100FA07F7C8404EEA000E36
:1038300023EA455343F48013A2E733F00043B3FA7D
:1038400083F704BFB2FA82FE77440B3FE41BB7F163
:10385000200E2FBF02FA0EF3BB40C7F1200E22FA52
:103860000EFE38BF43EA0E03BA40641C82E750EAFA
:10387000410E14BF52EA430E6FF000014FF40017DF
:1038800017EB430F8ABF194617EB410FB5E74CEA18
:1038900005510020B0BDD4F10104B4F120070FDAC6
:1038A000C4F12007520828BF42F0010210FA07F5C0
:1038B00001FA07F7E1BF2A43E0403843E1400FE057
:1038C000352C98DCC7F1200452EA400220FA07F2B6
:1038D00018BF42F0010231FA07F0A1400A4300216B
:1038E00072F1004250F1000051EB0C01B0BD00003C
:1038F000F0B540F2FF7581EA030C0CF0004C15EABC
:1039000011541DBF15EA1357AC42AF42E5E0BC416C
:10391000C1F31301C3F31303801A994143F48013D5
:1039200004D2641E4000494180185941C90241EA4D
:103930005051B1FBF3F603FB1611A2FB0675D7EB52
:10394000C020A94102D2761E80185941C90241EA1D
:103950005051B1FBF3FE03FB1E11A2FB0E75D7EB1A
:10396000C020A94103D2AEF1010E8018594189024D
:1039700041EA9051760546EA8E2EB1FBF3F603FB41
:103980001611A2FB0675D7EB8020A94102D2761E44
:1039900080185941C90241EA50514EEA060EB1FB66
:1039A000F3F603FB1611A2FB0675D7EBC020A94165
:1039B00002D2761E80185941C90241EA5051B1FB2A
:1039C000F3F703FB1711A2FB0735D3EBC020A94186
:1039D00067F100070CBF004247F0010766F3D527E7
:1039E0004FEA1E31B80814F5806412DDBD0775F189
:1039F000004250EB0E5051EB045111F5801F5CBF9B
:103A000041EA0C01F0BD4CF07F6141F0E041002043
:103A1000F0BDBD076D0840EA0E5041F48011D4F1AD
:103A20000104B4F120060ADAC4F120060200E040E5
:103A300001FA06F3E1401843B24015430EE0342C7E
:103A400013DCC6F1200445EA40056D0820FA06F2B1
:103A5000154321FA06F0A1400D43002175F1004203
:103A600050F1000051EB0C01F0BD00205FEA0C01A9
:103A7000F0BDCFB992185B41B3FA83F704BFB2FA35
:103A800082F6BF190B3FB7F120062FBF02FA06F3EB
:103A9000BB40C7F1200622FA06F638BF3343BA40CE
:103AA0001CB1E419641E33E77F4231F00041B1FAE2
:103AB00081F404BFB0FA80F6A4190B3CB4F12006DF
:103AC0002FBF00FA06F1A140C4F1200620FA06F645
:103AD00038BF3143A0403C1B1AE7AC421ABF05EA8D
:103AE0001357AF4212E050EA41061CBF52EA4306A8
:103AF000BFE750EA4107304661461CBF41EA055125
:103B0000F0BD52EA430C08BFC143F0BD00204FF4A2
:103B1000001616EB410F98BF16EB430F08BF16EBCC
:103B2000410F24BFC14305E016EB430F0CBF6146B4
:103B30004CEA0551F0BD0000400D40EAC1204900AB
:103B400080F00D8040F00040490DA1F58061491CD6
:103B500005D4D1F11F0154BFC840C01770474FF0C2
:103B600000007047010000BF09D0B0FA80F1884022
:103B7000C91CC1F58461090501EBD02140057047DE
:103B800070B44FF0004591EA030F44BF6B4000F062
:103B9000F7B800BF841A71EB030604D26E40001B15
:103BA000B141121973414FF4001C1CEB410F34BF9B
:103BB0007CEB430684E00C0DA4EB1356362E7DDC23
:103BC000012E43DC45EAC32343EA525312BFD2021B
:103BD00092025B08240545EAC12141EA5051D2EB2B
:103BE000C020994125D407D1B0FA80F610FA06F129
:103BF00064D00020203608E0B1FA81F6B140C6F169
:103C0000200220FA02F21143B0404FEAF474B4EB00
:103C1000465434F001064FEA74040AD8D6F500166B
:103C2000760D04F00044F04061FA06F25040F14095
:103C30004840C00A40EA415021F0004128BF5FEAF5
:103C4000500550F1000044EBD12137E045EAC32391
:103C5000DB0A45EAC121C90AB6F120050EDD42EAB8
:103C60000242120CC5F1200603FA06F6EB4042EAC6
:103C700006056D42984161F100010DE062FA06F51A
:103C8000F240554063FA06FC82EA0C02F3405A40C7
:103C90006D42904161EB030111F4801F05D1641E58
:103CA000620502D06D004041494121F48011430872
:103CB00075F1004350F1000041EB045170BC7047B6
:103CC0001CEB410F15D223F0004352EA43060BD000
:103CD0004FEA4C0CBCEB410F04D80C0D661E342E81
:103CE000B7DDEBE7801A994150EA410608BF002191
:103CF000E4E708BF1CEB430F28BF6FF00001DDE7CE
:103D000080B5134800F0A6F80FF248010160416049
:103D10008160C1600161416181610FF23C024262D8
:103D20008162C162016341630FF2300282630FF26C
:103D30003402C2630164416401BD10B5044800F05F
:103D400089F80446206808B9FFF7DAFF204610BD5D
:103D50006C0EFF1F000000002E00000066616C73F7
:103D600065000000747275650000000091FBF2F3BD
:103D700003FB1211C0E900317047000070470000DA
:103D8000841A71EB030603D2001BB141121973416F
:103D90004FF4001C1CEB410F34BF7CEB430443E0A9
:103DA0000C0DA4EB1356352E50DC45EAC323DB0A79
:103DB00045EAC121C912B6F120050DDD63FA05F609
:103DC000EB4086EA0305124218BF45F00105C01812
:103DD00051F100010CD213E062FA06F5F2405540B1
:103DE000F3415A40B340F3405A408018594107D339
:103DF00049085FEA30005FEA350528BF45F0010554
:103E000001F58011420875F1004250F1000041EBCC
:103E1000045170BC4FF4001C1CEB410F38BF7047BD
:103E20000020090D090570471CEB410F10D252EA22
:103E300043060BD0BCEB410F05D80C0DAB43661EFF
:103E4000342EB5DD02E0AB438018594170BC704799
:103E500070BC7047704700003C5500000300000034
:103E6000CF4F00009C540000050000002F500000C0
:103E70000200000000000000000000000000000040
:103E80000000000000000000000000000000000032
:103E900000004E6F6E4D61736B61626C65000000D7
:103EA00000486172644661756C7400000000000097
:103EB0004D656D4D616E6167656D656E74000042A4
:103EC00075734661756C7400000000000000557346
:103ED0006167654661756C740000000000000000B9
:103EE00000000000000000000000000000000000D2
:103EF00000000000000000000000000000000000C2
:103F000000000000000000000000000000000000B1
:103F1000000000000000000000535643616C6C007C
:103F2000000000000000000044656275674D6F6E80
:103F300069746F72000000000000000000000000C3
:103F400000000000000050656E6453560000000041
:103F500000000000005379735469636B0000000097
:103F600000000000444D413000000000000000004F
:103F7000000000444D41310000000000000000003E
:103F80000000444D4132000000000000000000002D
:103F900000444D413300000000000000000000001C
:103FA000444D4134000000000000000000000044C7
:103FB0004D41350000000000000000000000444DAD
:103FC00041360000000000000000000000444D41A8
:103FD000370000000000000000000000444D4138A0
:103FE0000000000000000000000000444D413900C6
:103FF00000000000000000000000444D413130008E
:10400000000000000000000000444D41313100007C
:104010000000000000000000444D4131320000006B
:1040200000000000000000444D413133000000005A
:10403000000000000000444D413134000000000049
:104040000000000000444D41313500000000000038
:1040500000000000444D415F4572726F7200000025
:104060000000004D434D0000000000000000000073
:1040700000004654464C0000000000000000000014
:1040800000526561645F436F6C6C6973696F6E00A9
:104090004C56445F4C565700000000000000004C96
:1040A0004C570000000000000000000000005761B5
:1040B000746368646F6700000000000000524E47A0
:1040C0000000000000000000000000004932433002
:1040D00000000000000000000000004932433100F1
:1040E00000000000000000000000535049300000B4
:1040F00000000000000000000053504931000000A3
:104100000000000000000000535049320000000091
:104110000000000000000043414E305F4F525F4DF1
:10412000425F6275660043414E305F4275735F4F78
:10413000666600000043414E305F4572726F720048
:104140000000000043414E305F54785F5761726E4B
:10415000696E6743414E305F52785F5761726E6996
:104160006E6743414E305F57616B655F557000006D
:104170000052657365727665643531000000000099
:104180005265736572766564353200000000004345
:10419000414E315F4F525F4D425F62756600434151
:1041A0004E315F4275735F4F666600000043414EBB
:1041B000315F4572726F72000000000043414E3162
:1041C0005F54785F5761726E696E6743414E315F2D
:1041D00052785F5761726E696E6743414E315F5727
:1041E000616B655F5570000000526573657276659E
:1041F00064353900000000005265736572766564AD
:104200003630000000000055415254305F52585F74
:1042100054580000000055415254305F455252003E
:10422000000000000055415254315F52585F54580D
:104230000000000055415254315F455252000000C9
:1042400000000055415254325F52585F54580000EC
:10425000000055415254325F4552520000000000A8
:104260000055415254335F52585F545800000000CB
:1042700055415254335F4552520000000000005532
:10428000415254345F52585F545800000000554169
:104290005254345F45525200000000000055415214
:1042A00054355F52585F5458000000005541525435
:1042B000355F455252000000000000414443300089
:1042C00000000000000000000000414443310000F5
:1042D000000000000000000000434D5030000000CE
:1042E0000000000000000000434D503100000000BD
:1042F00000000000000000434D50320000000000AC
:1043000000000000000046544D3000000000000096
:10431000000000000046544D310000000000000085
:104320000000000046544D32000000000000000074
:10433000000000434D540000000000000000000099
:104340000000525443000000000000000000000084
:1043500000526573657276656438330000000000B2
:1043600050495430000000000000000000000050E0
:1043700049543100000000000000000000005049D6
:1043800054320000000000000000000000504954BA
:1043900033000000000000000000000050444230E4
:1043A00000000000000000000000005553423000F3
:1043B0000000000000000000000055534244434448
:1043C000000000000000000000454E45545F3135FC
:1043D00038385F54696D6572454E45545F5472615B
:1043E0006E736D69740000454E45545F5265636598
:1043F000697665000000454E45545F4572726F72E4
:1044000000000000004932533000000000000000AE
:10441000000000005344484300000000000000007A
:104420000000004441433000000000000000000094
:104430000000444143310000000000000000000083
:10444000005453493000000000000000000000004C
:104450004D43470000000000000000000000004C39
:104460005054696D65720000000000000000526544
:1044700073657276656431303200000000504F522F
:10448000544100000000000000000000504F525452
:104490004200000000000000000000504F52544352
:1044A00000000000000000000000504F5254440083
:1044B000000000000000000000504F525445000072
:1044C00000000000000000005265736572766564AC
:1044D00031303800000000526573657276656431D2
:1044E00030390000000052657365727665643131C1
:1044F00030000000005265736572766564313131B9
:1045000000000000526573657276656431313200D7
:1045100000000052657365727665643131330000C6
:1045200000005265736572766564313134000000B5
:1045300000526573657276656431313500000000A4
:104540005265736572766564313136000000005241
:10455000657365727665643131370000000052651D
:1045600073657276656431313800000000526573FE
:1045700065727665643131390000000000F00F404B
:1045800040F00F4080F00F40C0F00F4000F10F40AE
:10459000F0000A1D300018003200180160001818E1
:1045A0006400181A6E00181F780013187D00131A83
:1045B0008200131C8C000E1296000E15A0000E181F
:1045C000AA000E1BB4000E1EC8000C1CE1000B1E3E
:1045D000FA000A1F000109080090044000A00440EE
:1045E00000B0044000C0044000D0044000A00640D9
:1045F00000B0064000C0064000D0064000A00E40BB
:1046000000B00E406A6E6B6C6F6D4E4F8000800084
:104610003435363702040101140EFF1F640EFF1FEC
:10462000140EFF1F140EFF1F140EFF1F090CFF1F97
:10463000F00BFF1F00000000000000000000000061
:10464000000000000000000000000000000000006A
:1046500000000000DFF800F0850DFF1FDFF8A81351
:1046600040B231F8201040B20128C0F2738140B24C
:10467000112880F26F810022DFF890331A7089B21E
:104680005B2904DA0022DFF884335A7080E089B2B3
:10469000B52904DA0122DFF874335A7078E089B260
:1046A000B1F5877F04DC0222DFF860335A706FE0D7
:1046B00089B2B1F5B47F04DC0322DFF850335A70BD
:1046C00066E089B2B1F5E17F04DC0422DFF83C3317
:1046D0005A705DE089B2B1F5077F04DC0522DFF88E
:1046E0002C335A7054E089B240F27722914204DAB6
:1046F0000622DFF818335A704AE089B2B1F5347FE8
:1047000004DC0722DFF804335A7041E089B240F23A
:104710002B32914204DA0822DFF8F0325A7037E087
:1047200089B2B1F5617F04DC0922DFF8E0325A700A
:104730002EE089B240F2DF32914203DA0A22B34B13
:104740005A7025E089B2B1F5876F03DC0B22AF4BBD
:104750005A701DE089B240F29342914203DA0C2272
:10476000AA4B5A7014E089B240F2ED42914203DA4A
:104770000D22A64B5A700BE089B240F2475291428B
:1047800003DA0E22A14B5A7002E00F229F4B5A709F
:1047900089B21A2903DA00229C4B9A7069E089B227
:1047A000332903DA0122994B9A7062E089B24C29CD
:1047B00003DA0222954B9A705BE089B2652903DA2D
:1047C0000322924B9A7054E089B27E2903DA0422C4
:1047D0008E4B9A704DE089B2972903DA05228B4BF4
:1047E0009A7046E089B2B02903DA0622874B9A70A4
:1047F0003FE089B2C92903DA0722844B9A7038E076
:1048000089B2E22903DA0822804B9A7031E089B23A
:10481000FB2903DA09227D4B9A702AE089B2B1F5AF
:104820008A7F03DA0A22794B9A7022E089B2B1F5C5
:10483000967F03DC0B22754B9A701AE089B2B1F5B2
:10484000A37F03DA0C22714B9A7012E089B2B1F5A2
:10485000AF7F03DC0D226D4B9A700AE089B2B1F58F
:10486000BC7F03DA0E22694B9A7002E00F22674B7D
:104870009A7089B21A2903DA0022644BDA7069E06F
:1048800089B2332903DA0122604BDA7062E089B21F
:104890004C2903DA02225D4BDA705BE089B26529AC
:1048A00003DA0322594BDA7054E089B27E2903DA25
:1048B0000422564BDA704DE089B2972903DA0522BB
:1048C000524BDA7046E089B2B02903DA06224F4B28
:1048D000DA703FE089B2C92903DA07224B4BDA705C
:1048E00038E089B2E22903DA0822484BDA7031E075
:1048F00089B2FB2903DA0922444BDA702AE089B233
:10490000B1F58A7F03DA0A22404BDA7022E089B2DD
:10491000B1F5967F03DC0B223C4BDA701AE089B2CA
:10492000B1F5A37F03DA0C22384BDA7012E089B2BA
:10493000B1F5AF7F03DC0D22344BDA700AE089B2A7
:10494000B1F5BC7F03DA0E22304BDA7002E00F22A1
:104950002E4BDA70704710B50400200040B2FFF70C
:104960007DFE2B48007810F0FD002949087028488A
:10497000007850F0100026490870B82025490870CA
:1049800025480078C006FBD423480078C0F3810096
:10499000C0B20228F8D11D48C3781C4882781B4851
:1049A00041781A480078FFF755FE174864B210EBBB
:1049B0008400807810F01F0018490870124864B213
:1049C00010EB8400C07810F01F0050F04000144934
:1049D0000870114800788006FBD50F480078400623
:1049E000FBD50C48007810F03F000A4908700A48CF
:1049F0000078C0F38100C0B20328F8D1024864B245
:104A000030F82400C0B210BD480BFF1F8C0BFF1FF5
:104A10000140064000400640064006400440064073
:104A2000054006402DE9F04182B005000E00170058
:104A30009846089CE4B200944346DBB22200D2B20E
:104A40003100280000F088F8BDE8F3812DE9FC4131
:104A500005000E0017009846089C01A8FDF79AFE75
:104A6000012876D19DF905000028F6D19DF90400B2
:104A7000002836D0012804D004285FD005285FD054
:104A800066E098F80000E4B2611E884211DA98F8F6
:104A90000000401C88F80000E4B2009498F8003050
:104AA00098F80000421ED2B23100280000F054F8FD
:104AB0000CE0002088F80000E4B2009498F8003080
:104AC000621ED2B23100280000F046F8E4B2009431
:104AD00098F8003098F800203100280000F03CF8E9
:104AE000BBE798F8000000280CD1601E88F8000091
:104AF000E4B2009498F8003000223100280000F061
:104B00002BF810E098F80000401E88F80000E4B28E
:104B1000009498F8003098F80000421CD2B231009E
:104B2000280000F019F8E4B2009498F8003098F8E2
:104B300000203100280000F00FF88EE7012009E086
:104B400098F800000C2101FB00608068804701E0BC
:104B500083E70020BDE8F6812DE9F14783B00D0021
:104B600016001F000C9C5FF00008BDF80C00ADF8AB
:104B70000400F6B2E4B2A64203D1601E80460020D3
:104B80000600F6B2FFB2BE4205D11F2082464FF6A4
:104B9000E070814604E0002082464FF6FF708146B7
:104BA000BDF80E00F6B2310111FA80F0ADF8060042
:104BB0001FFA89F9CDF8009053469BB2F6B20C204B
:104BC00000FB0650426892B2F6B20C2000FB065081
:104BD0000168019800F0AEF8761C4046B0F101087B
:104BE000C0B20028CDD1BDE8FF8700002DE9F84F05
:104BF00004000D0016001F005FF0000A4C48D0F8BA
:104C000000B059462000FDF7F7F80120434908603D
:104C10000020434908600020424908602C20424996
:104C200008700020414908600120404908600120C7
:104C30003C490860002080465FFA88F8B8F1200FF0
:104C400069DA287882466D1C002081465FFA89F96E
:104C5000B9F1080F5CDA5FEA0A602AD501202F4912
:104C6000086001202E49086000202E490860B6B275
:104C7000300A2D49087000202C49086001202B497A
:104C800008600120274908600120244908600120AC
:104C9000234908600020234908602348067000204B
:104CA0002249086001202149086001201D4908604F
:104CB00029E00120194908600120194908600020F5
:104CC00018490860BFB2380A174908700020174910
:104CD0000860012015490860012012490860012080
:104CE0000E49086001200E49086000200D49086047
:104CF0000D48077000200D49086001200B4908602D
:104D00000120084908605FEA4A0A19F101099DE794
:104D100018F1010890E7BDE8F18F00002810FE436C
:104D20003010FE432C10FE4380F00F402410FE4351
:104D3000FC580000F1B50D0017001E00069C38005D
:104D4000471E80B200282AD0FDF767F91038BDF859
:104D50000010884207DA0020ADF80000BDF802001C
:104D60001030ADF80200FDF755F91038BDF802100B
:104D7000884205DA0020ADF802000020ADF80000FE
:104D800023009BB2320092B229000098FFF72EFF59
:104D90002035BDF800001030ADF80000CFE7F1BDC0
:104DA000DFF800F01D220000DFF800F0972200007D
:104DB000F0204D4908704C4800780006FBD54A4861
:104DC00000787121084201D0002000E001207047E6
:104DD00080B54648006850F40020444908604448C3
:104DE000006850F40020424908603F4800780006FF
:104DF000FBD5F0203C4908700A20FFF7D1FF01BD28
:104E000010B582B00400A4B24FF4006000FB04F0BF
:104E100000900920374908709DF802003649087053
:104E20009DF80100354908709DF80000344908706C
:104E3000FFF7BEFF002801D100200CE0A4B2002C37
:104E400008D17FF0010240F20C41200080B200F056
:104E500003F800E0012016BD7CB504000D0016002B
:104E6000A4B24FF40060ADB200FB04500190ADB2AB
:104E7000042095FBF0F101FB1051002903D0EA2139
:104E80002048FFF791FFADB2B5F5006F03DDEC21CF
:104E90001C48FFF789FF9DF80600174908709DF828
:104EA0000500164908709DF8040015490870009621
:104EB0009DF80300144908709DF80200134908701A
:104EC0009DF80100124908709DF800001149087012
:104ED000062008490870FFF76BFF002801D1002069
:104EE00000E0012076BD00000000024004F0014017
:104EF00008F00140070002400600024005000240A1
:104F000004000240FC5500000B0002400A00024071
:104F10000900024008000240F0B4114E3668340027
:104F20000F4E366856F47F060D4F3E600E0616F0A3
:104F3000706656EA0076170517F470073E431F04A3
:104F400017F470273E43074F3E6000263500EDB250
:104F50009D4201D26D1CFAE7014E3460F0BC7047EF
:104F600000F001404480044080B54948007800903A
:104F70004848037847480278474948480068FFF79F
:104F800051FD01BD80B5424800780090414B414839
:104F90000278414941480068FFF758FD02BD10B54D
:104FA00082B000A8FDF7F6FB0128FAD04FF6FF709B
:104FB00000F0FCF8FFF7D8FFFFF7E4FF040064B24D
:104FC000012C03D064B2022CF6D1EAE713BD1CB564
:104FD0003348046801A8FDF7DDFB0128FAD04FF63D
:104FE000FF7000F0E3F84FF6FF70009000230322FB
:104FF0002C492000FFF79EFE002201211120FDF721
:1050000021F81120FDF775F84FF4FA70FDF706F955
:1050100001A8FDF7BFFB0128F3D19DF90500022887
:10502000F6D19DF904000528F2D1022016BD1CB569
:105030001D48046801A8FDF7ADFB0128FAD04FF622
:10504000FF7000F0B3F84FF6FF70009000230522C8
:1050500016492000FFF76EFE012201219A20FCF77D
:10506000F1FF9A20FDF745F84FF4FA70FDF7D6F8F6
:1050700001A8FDF78FFB0128F3D19DF90500022857
:10508000F6D19DF904000528F2D1022016BD0000DA
:105090002804FF1F640EFF1F1004FF1FD40DFF1F05
:1050A000EC5800003C550000F05800009C540000F3
:1050B00010B582B0DFF81C010468FBF7ADF9FCF70E
:1050C000ACFFADF80000FCF7A5FFADF802004FF60D
:1050D000FF720099200000F001F813BDF2B5040042
:1050E000150000992000FCF787FEBDF80000BDF810
:1050F0000210484307000120DFF8DC1008600020A0
:10510000DFF8D81008600020DFF8D41008602C20E9
:10511000DFF8D01008700020DFF8CC100860012004
:10512000DFF8C41008600120DFF8B4100860002028
:105130000600BE4239D20120DFF89C100860012031
:10514000DFF8981008600020DFF894100860ADB216
:10515000280ADFF8901008700020DFF88C10086033
:105160000120DFF8841008600120DFF87410086067
:105170000120DFF8641008600120DFF8601008608B
:105180000020DFF85C100860DFF858000570002090
:10519000DFF8541008600120DFF84C10086001208F
:1051A000DFF83C100860761CC3E7F1BD38B5040099
:1051B000DFF838000568FCF72DFFADF80200FCF7BA
:1051C0002CFFADF80000220092B200992800FFF7F2
:1051D00085FF31BDF45800002810FE433010FE4317
:1051E0002C10FE4380F00F402410FE43F8580000BE
:1051F00080B500F095F800F02AF800F00AF8FDF705
:1052000067F8012201210420FCF71CFF00F0C0F820
:10521000FEE780B50D20FFF79EFB3349086032485A
:1052200000684FF47A714843304908602F4800689D
:105230002F490968C1F30361491CB0FBF1F02D4906
:1052400008605FF4E1310420FDF702F901BD2DE9AA
:10525000F8432948294988420DD000208046B8F5F6
:10526000826F08D2254850F82800234941F82800C9
:1052700018F10108F3E7204800F0AAF820480700D9
:105280002048060020480400A01B80464046B0F19C
:105290000108002804D030783870761C7F1CF5E7B0
:1052A0001A4881461A480500B5EB09008046404679
:1052B000B0F10108002805D0002089F8000019F19C
:1052C0000109F4E713481449144A531A984643460F
:1052D000B3F10108002B04D00B780370491C401C6B
:1052E000F5E7BDE8F1830000DC0DFF1FD80DFF1FBF
:1052F00044800440E00DFF1F0000FF1F000000007D
:105300001004FF1F583E000054460000D40DFF1F3C
:10531000690EFF1F0C0CFF1FA04D0000684F00001E
:1053200080B500F008F80C4800884FF6FE71084080
:105330000949088001BDEFF3118072B64CF220518B
:10534000064A11804DF62811044A1180C0B2002887
:1053500000D162B670470000002005400E200540D5
:10536000012110F01F029140154A40B2430942F852
:105370002310704780B513480068012807D11148F1
:10538000006850F001000F490860FDF734FA01BDD4
:1053900080B50820FDF782F90B4800680A2101FB5F
:1053A00000F1022000F03CF80849562000F021F8F6
:1053B0004620FFF7D5FFFFF77BFEFFF7F0FDFCE788
:1053C00000E100E02C710340E00DFF1F7553000069
:1053D00010B504004FF4007094FBF0F101FB104194
:1053E000002903D01E210B48FCF755FF0A48046032
:1053F00010BD38B504000D00074800680749884211
:1054000003D030210348FCF746FF044864B240F85B
:10541000245031BD6057000008ED00E00000FF1F80
:1054200038B504000D00002D03D122211748FCF7E8
:1054300032FF1748006850F400001549086000204A
:1054400014490860681E144964B222015050124881
:1054500064B210EB0410C06850F001000E4964B251
:1054600011EB0411C8600C4864B210EB04108068A2
:1054700040084000084964B211EB04118860032021
:10548000054964B211EB0411886031BDB0560000CB
:105490003C800440007003400071034000000000A5
:1054A0000000E0004000400040004000400040009C
:1054B000400040004200FE0000000000000000002C
:1054C0000000FC0042004800480078004800480006
:1054D000400042004200FC0000000000000000000C
:1054E0000000F80044004200420042004200420036
:1054F000420042004400F8000000000010041004C4
:1055000017C42214221463D46254A454265425547C
:1055100028942094210422042414280808001DFC47
:10552000F10411041104FDFC1000300039FE542078
:10553000542091FC1020102013FE100002000100E6
:1055400000007FFC01000100010001003FF80100A4
:105550000100010001000100FFFE000008001DFC29
:10556000F10411041104FDFC1000300039FE542038
:10557000542091FC1020102013FE10000100008028
:105580003FFE200023F8201020A020402FFE2042C4
:10559000204420404040404081400080433A5C55D8
:1055A000736572735C41646D696E69737472617462
:1055B0006F725C4465736B746F705CD6B1C1A2B3DB
:1055C000CCD0F2202D20B7E2D7B0BAF3202D20D7CF
:1055D000DBBACF202D20BCF2D2D7B7BDB0B85C4229
:1055E0006F6172645C7372635C5643414E5F4C43FF
:1055F000445F535437373335532E6300433A5C5579
:10560000736572735C41646D696E69737472617401
:105610006F725C4465736B746F705CD6B1C1A2B37A
:10562000CCD0F2202D20B7E2D7B0BAF3202D20D76E
:10563000DBBACF202D20BCF2D2D7B7BDB0B85C43C7
:105640006869705C7372635C4D4B36305F666C6189
:1056500073682E6300000000433A5C5573657273F3
:105660005C41646D696E6973747261746F725C44DD
:1056700065736B746F705CD6B1C1A2B3CCD0F220ED
:105680002D20B7E2D7B0BAF3202D20D7DBBACF2038
:105690002D20BCF2D2D7B7BDB0B85C436869705C4E
:1056A0007372635C4D4B36305F6770696F2E6300B9
:1056B000433A5C55736572735C41646D696E6973DE
:1056C000747261746F725C4465736B746F705CD6D6
:1056D000B1C1A2B3CCD0F2202D20B7E2D7B0BAF33B
:1056E000202D20D7DBBACF202D20BCF2D2D7B7BDDA
:1056F000B0B85C436869705C7372635C4D4B363064
:105700005F5049542E630000433A5C5573657273D1
:105710005C41646D696E6973747261746F725C442C
:1057200065736B746F705CD6B1C1A2B3CCD0F2203C
:105730002D20B7E2D7B0BAF3202D20D7DBBACF2087
:105740002D20BCF2D2D7B7BDB0B85C436869705C9D
:105750007372635C4D4B36305F756172742E6300FB
:10576000433A5C55736572735C41646D696E69732D
:10577000747261746F725C4465736B746F705CD625
:10578000B1C1A2B3CCD0F2202D20B7E2D7B0BAF38A
:10579000202D20D7DBBACF202D20BCF2D2D7B7BD29
:1057A000B0B85C436869705C7372635C6D69736305
:1057B0002E6300000A2A2A2A2A64656661756C74C1
:1057C0005F69737220656E7465726564206F6E2008
:1057D000766563746F722025642A2A2A2A2A0A0AA7
:1057E000257320496E746572727570740000000034
:1057F00010B5074979441831064C7C44163404E04E
:105800000A68081D511888470146A142F8D110BD09
:105810002C00000038000000417373657274696FDA
:105820006E206661696C656420696E202573206155
:1058300074206C696E652025640A00006FDCFFFF30
:1058400098000000D40DFF1F000000000ABDF8D032
:10585000D0BDE2CBF8B2D9D7F7A3ACC7EBD6D8D03E
:10586000C2CBA2C8EBB9CCBCFE00000000F00BF824
:10587000002801D0FFF7BCFF0020C046C046FFF75C
:1058800087FD00F002F80120704700F001B8000029
:105890000746384600F002F8FBE700002021090324
:1058A00026311820ABBEF9E738B504460D46284628
:1058B00000F006F8A84218BF0024204632BD0000C0
:1058C0000149FCF7FBBC00BFCC0BFF1F0ABDF8C8A9
:1058D000EBCBC0D1ADBBB7B5C8B4FDA3A1000000F0
:1058E000C046C046C046C046FFF7C0FF00000000EB
:1058F0000000000000000000000000001000100088
:105900000000000000000000000000000000000097
:10591000000000000000000000000000FFFFFFFF8B
:10592000FFFFFFFF0000000000000000000000007B
:105930000000000000000000000000000000000067
:105940000000000000000000FFFFFFFFFFFF00005D
:105950000000000000000000000000000000000047
:105960000000000000000000000000000000000037
:105970000000000000000000000000000000000027
:0859800000000000000000001F
:04000005000058E1BE
:00000001FF
